:100000003DC0000056C0000054C0000052C00000B7
:1000100050C000004EC000004CC000004AC00000AC
:1000200048C0000046C0000044C00000DEC0000020
:1000300040C000003EC000003CC000003AC00000CC
:1000400038C0000036C0000034C0000032C00000DC
:1000500030C000002EC000002CC000002AC00000EC
:1000600028C0000026C0000024C0000022C00000FC
:1000700020C000001EC000001CC0000011241FBED4
:10008000CFEFD0E1DEBFCDBF11E0A0E0B1E0E0E70F
:10009000F4E002C005900D92A030B107D9F711E04D
:1000A000A0E0B1E001C01D92AC30B107E1F702D091
:1000B000DDC1A6CFEF92FF920F931F93CF93DF93F3
:1000C000E12C81E0F82E7AD062E070E09AD1EB0169
:1000D000C050D1408FEFC030D80711F4C1E0DFEF3E
:1000E000CE01BE0180D0BE01D7FF03C070956195DF
:1000F0007F4F479A3F9A8701061B170BC801AFD065
:1001000047983F9AC801ABD0DECFEF92FF920F9392
:100110001F93982F803278F487E880937A0080913B
:100120007C0080648076892B80937C0080917A00AB
:10013000806480937A0080917A0086FDFCCFFB0179
:10014000EE24FF24870180917A00806480937A00F6
:1001500080917A0086FDFCCF80917C0085FF04C0F1
:100160008091790090E004C08091780090917900AE
:10017000A0E0B0E0E80EF91E0A1F1B1F319719F727
:10018000CB01969587956034710530F48E0D9F1DD7
:1001900070E023D19B010CC0A0E0B0E0E80EF91E96
:1001A0000A1F1B1F9B0140E050E0C801B7013CD172
:1001B000C9011F910F91FF90EF90089587E064E1CE
:1001C00070E0A3CFAC0181E060E067C0AC0180E0EB
:1001D00060E063C00F931F938B01F8DFC801F2DF6B
:1001E0001F910F910895F6CF08952F928F939F93AB
:1001F0002FB6809101019091020101968093010137
:100200009093020190E080910301891F8093030184
:10021000909109019C5F90930901809108018051A0
:100220009742C0F0909309018093080180910401E6
:10023000909105010196809304019093050190E04F
:1002400080910601891F8093060180910701891F13
:10025000809307012FBE9F918F912F90189528EEC4
:1002600033E009C0F9016F9364E06A95F1F76F918B
:100270003197C9F701970097A9F7089528EE33E061
:1002800009C0F9016F9364E06A95F1F76F913197B6
:10029000C9F701970097A9F708950F931F93CF937C
:1002A000DF93082F162FEA0180910B010F3F41F4D5
:1002B0008823C9F587ED8FD081E080930B0133C08F
:1002C0008823A9F186ED87D010920B0130C01F3F23
:1002D00011F082E90DC080E90BC090E0CA9606C01B
:1002E00090E01F3F11F4809601C08296880F880F1E
:1002F000D7FF06C0D095C195DF4F1F3F09F08E5F35
:10030000CF3FD10521F01CF0CFEFD0E001C0C7FDF9
:10031000816061D09E012F77822F5DD0DF91CF91D8
:100320001F910F910895113091F684EEE1CF80E096
:10033000013009F481E0113099F6CFCF982F24993C
:100340000CC02C990AC02C9AEEE1F0E06F9364E0A7
:100350006A95F1F76F913197C9F784B1806A84B9D2
:100360002698892F837080656C7A862B8CBD892FA7
:1003700090E0969587959695879581708DBD81E0E3
:1003800090E07CCF0F931F93082F162F0CB406FC20
:1003900003C085E060E0D2DF0CB404FC03C08CB580
:1003A00080618CBD0EBD05C00CB404FC02C080E0B1
:1003B0000FC00DB407FEF8CF112349F0812F90E054
:1003C0006F9364E06A95F1F76F910197C9F78EB565
:1003D0001F910F91089560E0D5CFAA1BBB1B51E17F
:1003E00007C0AA1FBB1FA617B70710F0A61BB70BA5
:1003F000881F991F5A95A9F780959095BC01CD014A
:10040000089597FB092E07260AD077FD04D0E5DF73
:1004100006D000201AF4709561957F4F0895F6F785
:10042000909581959F4F0895A1E21A2EAA1BBB1BA0
:10043000FD010DC0AA1FBB1FEE1FFF1FA217B307B0
:10044000E407F50720F0A21BB30BE40BF50B661FC6
:10045000771F881F991F1A9469F76095709580958A
:1004600090959B01AC01BD01CF010895F894FFCF99
:00000001FF
