:100000003BC2000055C2000053C2000051C20000B4
:100010004FC200004DC200004BC2000049C20000A8
:1000200047C200000C94711143C2000041C200009D
:100030003FC200000C94B50D3BC2000039C2000065
:1000400037C2000035C2000033C2000031C20000D8
:100050002FC200002DC200002BC2000029C20000E8
:1000600027C2000025C200001E0B240B270B2A0B01
:100070002D0B300B330B360B390B3C0B3F0B420B6C
:1000800020506F6C6F6C7500204C562D3332380049
:1000900044656D6F0050726F6772616D00557365D6
:1000A000204220746F0073656C6563742E0050727B
:1000B0006573732042002D747279206974210020C9
:1000C0005468616E6B20002020796F75210020201C
:1000D0004D61696E0020204D656E750054656D7030
:1000E000004C454473004C4344004D6F746F727371
:1000F000004D75736963005472696D706F740054BC
:10010000696D6572007F4120A54220437E00064252
:10011000003E6733323E3E633332003E3E6333324D
:100120003E673332002163333200216533320021D0
:10013000673332002176383E3E63333200000000E0
:10014000000000001F1F1F1F1F1F1F0406050504BE
:100150001C1C0000020105091E08044F36205434FF
:1001600030204C31362064233C623C66233C6423BF
:100170003C66233C62642366235438302063233C6E
:10018000622D3C66233C63233C66233C622D632343
:100190003854313830206423623C6623642366235C
:1001A0003E62642366236323622D3C6623632366D9
:1001B000233E622D63233820633E63233C63233E4A
:1001C00063233C623E63233C63233E6323633E63BD
:1001D000233C63233E63233C623E63233C63233E14
:1001E0006323633E63233C63233E63233C622D3ED3
:1001F00063233C63233E6323633E63233C63233ECC
:1002000063233C622D3E63233C63233E6323633EB2
:1002100063233C63233E6323663E63233C63233EA8
:100220006323633E63233C63233E6323663E632371
:100230003C63233E6323633E63233C63233E63238B
:1002400066233E63233C63233E6323633E63233C78
:1002500063233E632366233E63233C63233E632381
:10026000642362622D6264236266236423632362D3
:100270002D61622D6323622D6623642300202020DC
:1002800020202020072048756E67617269616E200A
:1002900052686170736F6479204E6F2E2032202D6A
:1002A000206279204672616E7A204C69737A7420DC
:1002B00007202020202020200021204F35204C31F5
:1002C000362061676166616561206461632B6164EA
:1002D0006165612066613C61613C6261632361200C
:1002E00064616323616461656120664F36206463E5
:1002F000643C622D643C61643C6720643C662B6412
:100300003C67643C61643C622D20643C64643C65F1
:10031000643C662B643C6720643C662B643C6764E9
:100320003C61644C38204D53203C622D643C622D6E
:1003300064204D4C652D3C67652D3C67204D536313
:100340003C61633C61204D4C20643C66643C66200B
:100350004F35204D5320622D67622D674D4C203E56
:100360006323653E632365204D53206166616620EB
:100370004D4C20676323676323204D5320666466DA
:1003800064204D4C20653C622D653C622D4F36202B
:100390004C31367261676166616561206461632317
:1003A00061646165612066613C61613C62616323F7
:1003B00061206461632361646165612066616561D8
:1003C000646163613C622D61636164673C622D67B7
:1003D000206567646763673C622D67203C61673C0A
:1003E000622D6763663C616620646663663C622DCD
:1003F000663C61663C67663C61663C622D653C67B5
:1004000065206323653C622D653C61653C67652022
:100410003C66653C67653C61643C66644F352065BD
:100420003E65653E65663E64663E6420622D3E63C1
:1004300023622D3E6323613E64663E6420653E6513
:10044000653E65663E64663E64653E643E63233E8B
:1004500064623E643E632362203E6323616761659C
:100460006766652066204F36206463236466646394
:10047000233C62206323340011241FBECFEFD8E059
:10048000DEBFCDBF11E0A0E0B1E0ECECF5E202C0D0
:1004900005900D92A439B107D9F711E0A4E9B1E0B4
:1004A00001C01D92AD3DB107E1F7C7D60C94E4122F
:1004B000A7CDCF93DF93C0E0D0E08AE090E00E9428
:1004C000AB1180E10E94EB10882311F081E005C0A0
:1004D0002196C931D10589F780E0DF91CF91089548
:1004E0001F93882321F4CB010E94BB1003C0CB01D2
:1004F0000E94DE1082E090E00E94AB1180E30E9437
:10050000EB10182F882351F05998519A5F98579AF9
:1005100080E090E060E070E00E94E910812F1F9180
:1005200008950F931F93CF93DF930E94430F80E0B2
:1005300091E00E94FA0F80E061E00E94150F87E0D1
:1005400091E00E94FA0F10E0112311F4599A01C0B2
:100550005998519A00E0112309F401E087E0602FD7
:100560000E94150F8EE091E00E94FA0F87E0612F44
:100570000E94150F80E191E00E94FA0F5F9A579A4E
:10058000C0E0D0E0812FBE01ABDF882351F521967A
:10059000CF3FD105B9F70EC08FEFCF3FD80751F449
:1005A0005F98579A87E0602F0E94150F82E191E0D3
:1005B0000E94FA0F812FBE0193DF882391F42197C7
:1005C0008FEFC230D80744F7C1E0DFEF812FBE01C3
:1005D00087DF882331F42196C130D105B9F7102F78
:1005E000B3CFDF91CF911F910F9108950F931F9378
:1005F00082E00E94EB1020919401309195018823B4
:10060000E9F0232B89F488EC90E00E94AB1182E0A2
:100610000E94EB10882341F490E08091AF01882381
:1006200009F491E09093AF0180919401909195012C
:100630000A96909395018093940106C0245130400E
:10064000309395012093940180E20E94EB10209159
:100650009601309197018823E9F0232B89F488ECE7
:1006600090E00E94AB1180E20E94EB10882341F4DD
:1006700090E08091AE01882309F491E09093AE015F
:1006800080919601909197010A969093970180939B
:10069000960106C024513040309397012093960173
:1006A000809194019091950197FF04C0109295015B
:1006B0001092940180919401909195018F3F910542
:1006C00039F034F08FEF90E090939501809394018E
:1006D000809196019091970197FF04C01092970125
:1006E0001092960180919601909197018F3F91050C
:1006F00039F034F08FEF90E090939701809396015A
:1007000080919401909195016AE170E00E945712E6
:10071000FB01E458FE4F1081809196019091970162
:100720006AE170E00E945712FB01E458FE4F00811D
:10073000812F0E94FC0F8091AF01882311F481E486
:1007400001C081E60E94FC0F812F0E94FC0F85E012
:1007500060E00E94150F802F0E94FC0F8091AE0177
:10076000882311F483E401C083E60E94FC0F802FEC
:100770000E94FC0FE0919401F09195018091AF01EE
:10078000882319F441E050E002C04FEF5FEF209161
:100790009601309197018091AE01882319F481E090
:1007A00090E002C08FEF9FEF829FB001839F700D9A
:1007B000929F700D11244E9FC0014F9F900D5E9F20
:1007C000900D11240E94E91082E390E00E94AB1189
:1007D0001F910F910895DF920F931F93DF93CF9393
:1007E00000D000D0CDB7DEB75998519A5F98579A8C
:1007F0000E94430F84E191E00E94FA0F80917C00F7
:10080000806280937C0000E871C0DD24D3940E9454
:10081000161217B818B88AB18C7F8AB98BB18C7F41
:100820008BB928B1802F90E080959095959587950C
:1008300095958795282B28B997B1802F8695869511
:10084000892B87B99BB1802F80958370892B8BB9B9
:100850009AB1802F8370892B8AB989B116B1110F93
:10086000110F8370182B80E061E00E94150F812F1B
:100870000E94640F84E190E00E94AB1182E20E942A
:10088000EB10982F882399F017B818B88AB18C7F8D
:100890008AB98BB18C7F8BB9892F0F900F900F90F5
:1008A0000F90CF91DF911F910F91DF9008950E94DB
:1008B000FE1169837A838B839C8322D5880F991FCD
:1008C000A0E0B0E029813A814B815C81281739078B
:1008D0004A075B0710F2DD2011F0000F01C00695FA
:1008E000013009F492CF003809F091CFDD248FCF89
:1008F0008F929F92AF92BF92CF92DF92EF92FF9230
:100900001F93CF93DF9389EB92E00E94A60D599835
:10091000519A5F98579A0E94430F8DE191E00E948F
:10092000FA0F80E061E00E94150F85E291E00E94DD
:10093000FA0F0E941612C0E0D0E078EE872E73E026
:10094000972E6EEEA62E62E0B62E54EFC52E51E025
:10095000D52E4AEFE42EF12C0E94FE116530710570
:1009600081059105F0F00E94161282E10E94EB10C1
:10097000182F882371F05CD5812FDF91CF911F91C3
:10098000FF90EF90DF90CF90BF90AF909F908F90AF
:100990000895259683E0C83ED8071CF0C0E0D0E05B
:1009A00003C0CA3FD10584F4599A519A2196CE01C9
:1009B0006F9364E06A95F1F76F910197C9F72197FA
:1009C0005998519AC70134C081E0C43FD807DCF47C
:1009D000599A519AC6018C1B9D0B6F9364E06A95DE
:1009E000F1F76F910197C9F75998519AC95FD040B3
:1009F000CE016F9364E06A95F1F76F910197C9F7A3
:100A0000C750DF4FA9CF82E0CE3ED807DCF45F9A13
:100A1000579AC35FD140CE016F9364E06A95F1F7B6
:100A20006F910197C9F7CD50DE4F5F98579AC50176
:100A30008C1B9D0B6F9364E06A95F1F76F910197A2
:100A4000C9F78ACF5F9A579AC4018C1B9D0B6F938D
:100A500064E06A95F1F76F910197C9F75F98579A2B
:100A6000CD5ED240CE016F9364E06A95F1F76F914D
:100A70000197C9F7C351DD4F6FCF0F931F930E94AA
:100A8000430F88EC90E00E94AB118BE291E00E9452
:100A9000FA0F80E991E00E94AB1180E061E00E94D2
:100AA000150F84E391E00E94FA0F88EE93E00E9414
:100AB000AB110E94430F8CE391E00E94FA0F7BD4AC
:100AC0008C0181E061E00E94150FC8016AE070E0CE
:100AD0000E945712882777FD8095982F0E94DD0F7E
:100AE00084E491E00E94FA0FC8016AE070E00E947D
:100AF0005712AA2797FDA095BA2FBC01CD010E94DD
:100B0000DD0F8FED0E94FC0F86E491E00E94FA0F4A
:100B100082E390E00E94AB1182E30E94EB108823F5
:100B200071F285FF02C0E4DEFCCF84FF02C053DE19
:100B3000F8CF81FFF6CFF5DCF4CFEF92FF920F9361
:100B40001F938C017B010E94430FC8010E94EC0F90
:100B500080E061E00E94150FC7010E94EC0F88EE53
:100B600093E00E94AB111F910F91FF90EF900895B9
:100B70001F93CF93DF938EEC90E065ED70E0DDDFA7
:100B8000C5E0D0E00E94430F80E061E00E94150FB5
:100B900085E091E00E94EC0F80E060E00E94150F7C
:100BA000E0919801F0919901EE0FFF1FE159FE4F7E
:100BB000808191810E94EC0F81E00E94F70E82E318
:100BC0000E94EB108823D9F782E30E946F11182F3F
:100BD000992787FD909581FF09C085E291E0B6D7FE
:100BE000809198019091990101974EC084FF42C075
:100BF0000E94EF0E0E94430F8AE291E0A7D7812F57
:100C00000E94371118C080E061E00E94150F8EE04D
:100C100091E00E94EC0F80E060E00E94150FE091EF
:100C20009801F0919901EE0FFF1FED59FE4F0190D1
:100C3000F081E02D099580E10E94EB10882319F3E3
:100C400080E090E060E070E00E94E910F1D3109243
:100C50009501109294011092970110929601599863
:100C6000519A5F98579A8AE291E070D7DF91CF91BD
:100C70001F91089585FF0CC08FE291E067D78091A6
:100C80009801909199010196909399018093980110
:100C9000809198019091990197FF04C0D093990198
:100CA000C0939801809198019091990106970CF456
:100CB00069CF109299011092980164CF1F9382E33B
:100CC0000E946F11182F992787FD909581FF03C00F
:100CD00085E291E007C084FF03C08AE291E002C090
:100CE0008FE291E033D7812F0E943711812F1F911E
:100CF0000895EF92FF920F931F930E94FE117B01C4
:100D00008C0180919D0190919E01A0919F01B091D5
:100D1000A0010097A105B10501F18091A501909175
:100D2000A601A091A701B091A8012091A101309145
:100D3000A2014091A3015091A401821B930BA40B2B
:100D4000B50B8E0D9F1DA01FB11F8093A501909321
:100D5000A601A093A701B093A801E092A101F0928F
:100D6000A2010093A3011093A40182E00E94EB1062
:100D70008823E9F080919C018823C9F481E0809365
:100D80009C0110929D0110929E0110929F01109261
:100D9000A0011092A5011092A6011092A701109235
:100DA000A80138D3882319F485E291E0CFD682E0F8
:100DB0000E94EB10882311F410929C0180E20E94A3
:100DC000EB10882331F180919B01882311F581E09C
:100DD00080939B0120E030E040E050E080919D0155
:100DE00090919E01A0919F01B091A0010097A10553
:100DF000B10521F421E030E040E050E020939D0176
:100E000030939E0140939F015093A0018FE291E0A7
:100E10009DD680E20E94EB10882311F410929B0172
:100E20006091A5017091A6018091A7019091A80100
:100E300020EC37E249E050E00E948C12CA01B9016F
:100E40002AE030E040E050E00E948C120E94DD0F6A
:100E50006091A5017091A6018091A7019091A801D0
:100E600020E63AEE40E050E00E948C12CA01B9013F
:100E70002AE030E040E050E00E948C120E94DD0F3A
:100E80008AE30E94FC0F6091A5017091A6018091F8
:100E9000A7019091A80128EE33E040E050E00E94C5
:100EA0008C12CA01B9012CE330E040E050E00E940E
:100EB0008C122AE030E040E050E00E948C12CA011F
:100EC000B9010E94DD0F6091A5017091A60180918A
:100ED000A7019091A80128EE33E040E050E00E9485
:100EE0008C12CA01B9012CE330E040E050E00E94CE
:100EF0008C122AE030E040E050E00E948C12162F65
:100F0000772767FD7095872F972F0E94DD0F8EE260
:100F10000E94FC0F6091A5017091A6018091A7012C
:100F20009091A80124E630E040E050E00E948C124D
:100F3000CA01B9012AE030E040E050E00E948C1282
:100F40000E94DD0F6091A5017091A6018091A7011B
:100F50009091A8012AE030E040E050E00E948C121D
:100F6000CA01B9012AE030E040E050E00E948C1252
:100F70000E94DD0F80919A01181791F08091A501D0
:100F80009091A601A091A701B091A8010097A10599
:100F9000B10531F03FD2882319F484E391E0D6D52E
:100FA00010939A011F910F91FF90EF900895CF93A6
:100FB000DF930E94FE112091A9013091AA01409176
:100FC000AB015091AC01621B730B840B950B6B3F13
:100FD00071058105910550F1C0E0D0E0E091AD01CF
:100FE000FF27E7FDF095EC0FFD1FE358FD4FE4915F
:100FF0008E2F0E94FC0F2196C830D10579F70E94F0
:10100000FE116093A9017093AA018093AB019093A4
:10101000AC018091AD018F5F8093AD01992787FD71
:1010200090950896CC9710F01092AD01F3D18823DB
:1010300019F48BE591E08AD584E690E00E94AB112B
:10104000DF91CF910895FF920F93DF93CF9300D05C
:10105000CDB7DEB70E94FE11F62E80917C008F7D09
:1010600080937C004DD1A0E0B0E0BC01CD01A5D7BC
:101070008AE491E0BFD718C043D19A83898368EC92
:1010800070E04FE0ADD22AE00202C0011124E981F4
:10109000FA81E817F90724F45998519A5F9A03C026
:1010A000599A519A5F98579A0E94FE11062F0F196C
:1010B000043614F30F900F90CF91DF910F91FF90B2
:1010C00008958EE491E04FD582E591E093D7599A47
:1010D000519AEFD98823B1F45998519AEAD98823C3
:1010E00089F488E591E03FD580E060E09ED68DE50B
:1010F00091E080D75F9A579ADCD9882319F45F98DA
:10110000579AD7C90895CF93DF938091B0019091FA
:10111000B101892B11F07CD101C04DD1EC016AE005
:1011200070E00E945712882777FD8095982F45D749
:1011300084E491E05FD7CE016AE070E00E9457122C
:10114000AA2797FDA095BA2FBC01CD0136D78FED08
:1011500053D78091B0019091B101892B11F083E4B4
:1011600001C086E449D782E00E94EB10882331F069
:1011700081E090E09093B1018093B00180E20E9401
:10118000EB10882321F01092B1011092B00184E697
:1011900090E00E94AB11DF91CF9108950F931F93C0
:1011A0000DE311E0C80160E04CD7C801019661E091
:1011B00048D7C801029662E044D7C801049663E0AC
:1011C00040D7C801059664E03CD7C801069665E0A3
:1011D00038D783E591E066E034D78BE491E067E0AF
:1011E00030D751D61F910F910895D8DF81E191E05A
:1011F000ADD480E890E068E870E09FDC80E990E0A2
:1012000065E970E09ADC8DE990E066EA70E095DCD3
:101210003AD68EEA90E0E0D680E061E006D686EB32
:1012200090E0DAD64BDD84FFFDCF8BE191E08ED4E8
:101230008FEB90E067EC70E080CC82E3CCD7882322
:1012400009F01BDCD2DF94DCFECFEF92FF920F930C
:101250001F93982F803278F487E880937A008091EA
:101260007C0080648076892B80937C0080917A005A
:10127000806480937A0080917A0086FDFCCFFB0128
:10128000EE24FF24870180917A00806480937A00A5
:1012900080917A0086FDFCCF80917C0085FF04C0A0
:1012A0008091790090E004C080917800909179005D
:1012B000A0E0B0E0E80EF91E0A1F1B1F319719F7D6
:1012C000CB01969587956034710538F48E0D9F1D7E
:1012D00070E00E9443129B010DC0A0E0B0E0E80E58
:1012E000F91E0A1F1B1F9B0140E050E0C801B70117
:1012F0000E946A12C9011F910F91FF90EF9008950B
:1013000087E064E170E0A1CFA0E0B0E02091860129
:101310003091870140E050E0BC01CD010E941812DD
:101320009B01AC0180917C0085FF0BC0B901CA0113
:1013300061587F4F8F4F9F4F2FEF30E040E050E0DC
:101340000AC0B901CA0161507E4F8F4F9F4F2FEFE6
:1013500033E040E050E00E946A12C901089575DF51
:10136000D3CF1F9310917C0080917C008F7D809360
:101370007C0086E064E170E0F2DF9C0115FD04C0B2
:1013800080917C008F7D03C080917C00806280937F
:101390007C00C901880F991F820F931F880F991F26
:1013A000880F991F8A5792406DE070E00E94571293
:1013B000CB011F910895D5CF08951F9310917C0004
:1013C00080917C008F7D80937C0086E064E170E0FA
:1013D000C6DF9C0115FD04C080917C008F7D03C099
:1013E00080917C00806280937C0084E190E0AC017D
:1013F000249FC001259F900D349F900D11248E5283
:101400009F4167E270E00E945712CB011F9108953F
:10141000D4CF089580919301882339F020E0809102
:10142000D0019091D101892B09F021E0822F0895FC
:1014300010926F00E1E8F0E08081887F8160808316
:1014400080E197E2909389008093880010928B004E
:1014500010928A0081E0809393011092D101109242
:10146000D0010895A0E0B0E0E8E3FAE00C94AF12F8
:10147000FC015B01C42E8091CF018823C9F481E077
:101480008093CF0110926F0083E28093800081E10E
:10149000809381001092820080E197E2909389000E
:1014A0008093880010928B0010928A00229A789480
:1014B00010929301F7FD03C0DD24D39403C0FF779E
:1014C0002AE0D22E80918100082F10E0087F107052
:1014D00088ECD89EC00111248E179F07B8F4EF0145
:1014E00087E2E131F80710F0C0E1D7E2BE0176955E
:1014F000679580E090E06058794687469F4F9E014F
:1015000040E050E0E7D77901016023C088E2D89E2F
:10151000802D1124C82FD0E0CE17DF0708F4EF018B
:10152000BE01769567959E0140E050E08AE0D816AE
:1015300039F480E090E0605E734481449F4F06C0C0
:1015400080E090E060537D4E8C4E9F4FC3D7790171
:1015500002608AE0D81631F4CE0105966AE070E0A8
:1015600092D7EB0183E0C83ED80711F4B5010DC056
:10157000BE0180E090E0950140E050E059D728EEB0
:1015800033E040E050E0C8D7B90110926F000093FB
:101590008100F0928900E0928800E0918800F0914B
:1015A0008900AC2DA03108F0AFE080E190E08A1B0B
:1015B000910902C0F695E7958A95E2F7F0938B00C2
:1015C000E0938A007093B7016093B60186B38FEF02
:1015D00086BB81E080936F00CDB7DEB7EAE0DBC762
:1015E00041CF0895CF93DF93EB018F3F11F0442358
:1015F00029F488EE93E0BE0140E064C0813110F42C
:1016000020E005C0282F2051203608F02FE5822F3A
:101610006CE02DD7382F682F70E084EF9FEF689F24
:10162000F001699FF00D789FF00D1124E20FF11D7C
:10163000EC30F10530F4EC5CFF4FC0C78CE991E071
:1016400023C080E090E020C085EB91E01DC08FECCE
:1016500091E01AC08AEE91E017C087E092E014C0D2
:1016600086E292E011C087E492E00EC089E692E043
:101670000BC08EE892E008C085EB92E005C08EEDCD
:1016800092E002C08AE093E0373071F002C0880F28
:10169000991F6A95E2F7323020F005966AE070E013
:1016A0000BC0805090480AC036E0880F991F3A95C9
:1016B000E1F7029665E070E0E6D6CB01403108F034
:1016C0004FE0BE01CFDEDF91CF9108953091B4019C
:1016D000E091D001F091D101332311F0249101C0A8
:1016E0002081822F81548A3108F4205E203259F4FF
:1016F0008091D0019091D10101969093D101809376
:10170000D001019729F7822F0895CF93DF93DEDF71
:10171000282FC0E0D0E01CC0CE0153E0880F991FF5
:101720005A95E1F7CC0FDD1FC80FD91F822F9927DB
:1017300087FD9095C80FD91FE0978091D0019091B7
:10174000D10101969093D1018093D001BFDF282F62
:10175000822F80538A3000F3CE01DF91CF9108951C
:10176000A0E0B0E0E5EBFBE0F8C680908801B09027
:10177000B201BB2021F06091B301662399F4A090DF
:10178000B30100918D0110918E01E0908901F090DC
:101790008A01C0918B01D0918C01C0908F01D090B3
:1017A000900103C18FEF70E040E01CDF1092B301A5
:1017B000BDC194E0892EBB2404EF11E084E0E82E43
:1017C000F12CC0EDD7E0B4E09B2EAFE0CA2ED12CB7
:1017D0007DDF282F8091D0019091D10101969093C7
:1017E000D1018093D001263609F498C02736CCF475
:1017F0002236A1F1233674F42E3361F12F3334F401
:101800002132B9F22C3309F004C126C0213609F087
:1018100000C11AC1243609F451C025360CF066C047
:1018200035C02F3609F4BFC0203754F42C3609F4E4
:10183000A5C02D3609F4A5C0273609F0EAC086C038
:10184000243709F4CEC0263709F4E0C0223709F066
:10185000E0C0ADC08394BCCF8A94BACFA092B3014C
:10186000B092B20110938E0100938D01F0928A0123
:10187000E0928901D0938C01C0938B0190928801F2
:10188000D0929001C0928F012BE0F5C0A092B301DD
:10189000B092B20110938E0100938D01F0928A01F3
:1018A000E0928901D0938C01C0938B0190928801C2
:1018B000D0929001C0928F0120E0DDC0A092B301D0
:1018C000B092B20110938E0100938D01F0928A01C3
:1018D000E0928901D0938C01C0938B019092880192
:1018E000D0929001C0928F0122E0C5C0A092B301B6
:1018F000B092B20110938E0100938D01F0928A0193
:10190000E0928901D0938C01C0938B019092880161
:10191000D0929001C0928F0124E0ADC0A092B3019B
:10192000B092B20110938E0100938D01F0928A0162
:10193000E0928901D0938C01C0938B019092880131
:10194000D0929001C0928F0125E095C0A092B30182
:10195000B092B20110938E0100938D01F0928A0132
:10196000E0928901D0938C01C0938B019092880101
:10197000D0929001C0928F0127E07DC0C6DE7C012D
:1019800040C0A4DE8C3611F4BB2403C0AA24BB24BF
:10199000B3948091D0019091D10101969093D1019F
:1019A0008093D00115CFB1DE882E982C11CFA09254
:1019B000B301B092B20110938E0100938D01F092A9
:1019C0008A01E0928901D0938C01C0938B0190929F
:1019D0008801D0929001C0928F0120E0FF24F394FF
:1019E0004BC093DEBC0180EC9DE54DD5CB01EB01F6
:1019F000F3E0CC0FDD1FFA95E1F7880F991FC80FB0
:101A0000D91FCE01B7013FD58B01E2CE7EDE6C013E
:101A1000DFCEA092B301B092B20110938E01009379
:101A20008D01F0928A01E0928901D0938C01C093DC
:101A30008B0190928801D0929001C0928F011092F8
:101A4000D1011092D00172C0A092B301B092B20144
:101A500010938E0100938D01F0928A01E09289012A
:101A6000D0938C01C0938B0190928801D092900109
:101A7000C0928F0129E0FF248CE0889EC0011124D0
:101A8000E22EE80E0AC08091D0019091D10101961A
:101A90009093D1018093D001E39418DE8B3299F3B7
:101AA000833289F30BC08091D0019091D1010196CE
:101AB0009093D1018093D001EA9408DE8D3299F39E
:101AC000C0918D01D0918E018153883048F40091EE
:101AD0008B0110918C0119DEBC01C801D4D4EB013B
:101AE0008E010BC08091D0019091D101019690930D
:101AF000D1018093D001C00FD11F16950795E6DD67
:101B00008E3281F38091B201882339F0CE0196950F
:101B100087958093B301C81BD109FF2011F0EE24F3
:101B2000EA948E2DBE0140918F015CDDCDB7DEB70A
:101B3000ECE02FC510926F009093D1018093D001FB
:101B400081E08093B4011092B3010ACEF3CF0895DF
:101B500010926F009093D1018093D0011092B40144
:101B60001092B301FDCDF4CF08951F920F920FB6DE
:101B70000F9211242F933F934F935F936F937F9313
:101B80008F939F93AF93BF93EF93FF938091B60191
:101B90009091B70101979093B7018093B601019698
:101BA00009F510926F00789480918100887F8160A0
:101BB0008093810080E197E2909389008093880070
:101BC00010928B0010928A0081E0809393018091A3
:101BD000D0019091D101892B29F08091B501882302
:101BE00009F4BEDDFF91EF91BF91AF919F918F916D
:101BF0007F916F915F914F913F912F910F900FBE09
:101C00000F901F901895EF92FF920F931F936AB158
:101C100057985A98289AE090BC01F090BD01009125
:101C2000BE011091BF0120E030E041E050E0CA0168
:101C30006F9364E06A95F1F76F910197C9F75C9A29
:101C4000CA016F9364E06A95F1F76F910197C9F744
:101C500089B15C98FA016F9364E06A95F1F76F912E
:101C60003197C9F75C9AFA016F9364E06A95F1F7CE
:101C70006F913197C9F75C9887FF0BC02C5F3F4F7E
:101C8000C901A0E0B0E08E159F05A007B10708F4D8
:101C9000CECF6AB91F910F91FF90EF90089565B173
:101CA00090E0AC0141705070440F551F9C012670AC
:101CB000307053E0220F331F5A95E1F7422B6D7CB1
:101CC000462B45B92BB18870907034E0880F991F6E
:101CD0003A95E1F72F77282B2BB95C9A81E090E0B9
:101CE000FC016F9364E06A95F1F76F913197C9F742
:101CF0005C986F9364E06A95F1F76F910197C9F76B
:101D0000089580E197E2A0E0B0E08093BC01909359
:101D1000BD01A093BE01B093BF01529A209A549A7C
:101D20008EE190E027D383E08ED186E090E022D34D
:101D300083E089D182E090E01DD383E084D182E00A
:101D400090E018D382E07FD182E090E013D388E264
:101D500041D088E03FD081E03DD086E03BD08CE0B0
:101D600039C08091C001882321F481E08093C001B3
:101D7000C8CF0895BF92CF92DF92EF92FF920F9358
:101D80001F93082F162FF42EECDF3DDFB4B0C5B043
:101D9000DAB0EBB02898112311F05A9A01C05A9882
:101DA00084B1826384B9579A81E0F81621F0802FBC
:101DB00082958F7074DF802F8F7071DFDAB8EBB887
:101DC000B4B8C5B81F910F91FF90EF90DF90CF90FE
:101DD000BF90089560E042E0CDCF8CE0FBCFFDCF17
:101DE0000895813011F48FE001C08EE0F3CFF9CF78
:101DF0000895A4E0B0E0EEEFFEE0B7C3182F062F81
:101E000080E8898380EC8A8384E98B8384ED8C83EA
:101E1000FE01E60FF11D8181810FDCDF1093BB0114
:101E20000093BA012496E4E0BCC3E3CF089581E0B7
:101E3000D1DF8091B8019091B901892B19F160E04F
:101E400070E208C0E091B801F091B901E40FF51F0C
:101E500070836F5F462F50E08091910190E0019771
:101E60002091920130E0FC01E29FC001E39F900DC0
:101E7000F29F900D11244817590724F31092BB01CB
:101E80001092BA010895D3CF089561E042E072CF75
:101E90000F931F93CF93DF9300E010E8C82FD0E09B
:101EA000812F90E08C239D23892B11F081E301C0C9
:101EB00080E3EBDF0F5F083011F01695F1CFDF9173
:101EC000CF911F910F910895E3CF08956F927F9264
:101ED0008F929F92AF92BF92CF92DF92FF920F9319
:101EE000DF93CF93CDB7DEB72A970FB6F894DEBF56
:101EF0000FBECDBF5B016C010AE03E010894611C7E
:101F0000711CFA2CC601B5012AE030E040E050E037
:101F1000E1D2C901DA015C016D0101504301800E7B
:101F2000911C80E3F80EC601B5012AE030E040E0E4
:101F300050E07ED2F61AF401F082A114B104C1047B
:101F4000D104F9F607C0F601E00FF11D80819DDF95
:101F50000F5F04C06E010894C11CD11C0A3098F3B5
:101F60002A960FB6F894DEBF0FBECDBFCF91DF919A
:101F70000F91FF90DF90CF90BF90AF909F908F9088
:101F80007F906F900895EF92FF920F931F937B01C4
:101F90008C0197FF0AC010950095F094E094E11C25
:101FA000F11C011D111D8DE270DFC801B7018EDF2C
:101FB0001F910F91FF90EF900895E5CF0895CF9373
:101FC000DF93EC0102C061DF2196FE01849188233A
:101FD000D1F7DF91CF910895F2CF0895CF93DF939A
:101FE000EC0102C0219651DF88818823D9F7DF9167
:101FF000CF910895F3CF089548CF0895EF92FF92BF
:102000000F931F93CF93DF937C01062F10E0F3E033
:10201000000F111FFA95E1F7C0E0D0E09E01200FFC
:10202000822F8064D7DEF701EC0FFD1FE4918E2F25
:102030002CDF2196C830D10589F7CDB7DEB7E6E0B1
:10204000AEC2DCCF089560E041E094CE282F883006
:1020500068F481E090E002C0880F991F2A95E2F7AA
:10206000282FAAE2B0E0EBE2F0E029C08E3080F445
:1020700030E02850304081E090E002C0880F991F86
:102080002A95E2F7282FA4E2B0E0E5E2F0E017C0DD
:10209000853130F020E0A0E0B0E0E0E0F0E00FC0FB
:1020A00030E02E50304081E090E002C0880F991F50
:1020B0002A95E2F7282FA7E2B0E0E8E2F0E06F3FD0
:1020C00019F48081822709C0662319F08081822B50
:1020D00004C09081822F8095892380838C91822BEC
:1020E0008C930895E0EBF0E083EF8083808184BDE2
:1020F000E1EBF0E082E08083808185BDE4EBF0E0FD
:1021000010828081E3EBF0E08083808188BD88B518
:1021100087BD86E060E09ADF85E060E097DF8BE0D6
:1021200060E094DF83E060E091CF8091C10188237B
:1021300021F481E08093C101D5CF0895CF93DF933F
:10214000EC01F3DFD7FD02C020E004C0D095C195BB
:10215000DF4F21E0CE01CF3FD10519F014F08FEF12
:1021600090E0222319F018BC87BD02C088BD17BCBF
:10217000DF91CF910895E2CF0895CF93DF93EC01E3
:10218000D4DFD7FD02C020E004C0D095C195DF4F59
:1021900021E0CE01CF3FD10519F014F08FEF90E090
:1021A000222329F01092B4008093B30004C08093DE
:1021B000B4001092B300DF91CF910895DECF08955F
:1021C0000F931F938B01BADFC801D7DF1F910F91C7
:1021D0000895F6CF0895282F8091C201882391F4A5
:1021E00081E08093C20184B18D7C84B985B1826322
:1021F00085B985E090E06F9364E06A95F1F76F919F
:102200000197C9F783B18095822308951F93CF93D7
:10221000DF93182F8091C201882391F481E080938D
:10222000C20184B18D7C84B985B1826385B985E0B2
:1022300090E06F9364E06A95F1F76F910197C9F7A9
:10224000C12FD0E083B190E08C239D23892BD1F363
:102250008AE090E08FD083B190E08C239D23892B7E
:1022600089F383B18123DF91CF911F910895CECF60
:1022700008951F93CF93DF93182F8091C201882375
:1022800091F481E08093C20184B18D7C84B985B1E1
:10229000826385B985E090E06F9364E06A95F1F719
:1022A0006F910197C9F7C12FD0E083B190E080957D
:1022B00090958C239D23892BC1F38AE090E05AD01E
:1022C00083B190E0809590958C239D23892B69F3B1
:1022D00083B180958123DF91CF911F910895C9CF5C
:1022E00008952F928F939F932FB68091D301909151
:1022F000D40101968093D3019093D40190E0809112
:10230000D501891F8093D5019091DB019C5F90934B
:10231000DB018091DA0180519742C0F09093DB019C
:102320008093DA018091D6019091D7010196809334
:10233000D6019093D70190E08091D801891F8093B6
:10234000D8018091D901891F8093D9012FBE9F9117
:102350008F912F90189528EE33E009C0F9016F9303
:1023600064E06A95F1F76F913197C9F7019700978B
:10237000A9F7089528EE33E009C0F9016F9364E0EE
:102380006A95F1F76F913197C9F701970097A9F70F
:102390000895A0E7B0E08C918E7F8C93E0EBF0E0A5
:1023A000808183608083E1EBF0E08081807F8083A7
:1023B000808182608083B89A8C9181608C937894BC
:1023C00008958091DC01882321F481E08093DC0171
:1023D000E0CF0895F6DFE0E7F0E080818E7F808334
:1023E0002091D6013091D7014091D8015091D90167
:1023F000808181608083B901CA010895EBCF08957F
:10240000E0DFE0E7F0E080818E7F80831092D601EC
:102410001092D7011092D8011092D9011092DB01CD
:102420001092DA018081816080830895E9CF089558
:10243000629FD001739FF001829FE00DF11D649FA8
:10244000E00DF11D929FF00D839FF00D749FF00D34
:10245000659FF00D9927729FB00DE11DF91F639FD5
:10246000B00DE11DF91FBD01CF0111240895991B85
:1024700079E004C0991F961708F0961B881F7A957B
:10248000C9F780950895AA1BBB1B51E107C0AA1F7D
:10249000BB1FA617B70710F0A61BB70B881F991F05
:1024A0005A95A9F780959095BC01CD01089597FBA9
:1024B000092E07260AD077FD04D0E5DF06D00020DC
:1024C0001AF4709561957F4F0895F6F79095819570
:1024D0009F4F0895A1E21A2EAA1BBB1BFD010DC040
:1024E000AA1FBB1FEE1FFF1FA217B307E407F507C4
:1024F00020F0A21BB30BE40BF50B661F771F881FA0
:10250000991F1A9469F760957095809590959B0135
:10251000AC01BD01CF01089597FB092E05260ED011
:1025200057FD04D0D7DF0AD0001C38F450954095F1
:10253000309521953F4F4F4F5F4F0895F6F7909597
:102540008095709561957F4F8F4F9F4F08952F9283
:102550003F924F925F926F927F928F929F92AF9233
:10256000BF92CF92DF92EF92FF920F931F93CF9380
:10257000DF93CDB7DEB7CA1BDB0B0FB6F894DEBF17
:102580000FBECDBF09942A88398848885F846E843D
:102590007D848C849B84AA84B984C884DF80EE8087
:1025A000FD800C811B81AA81B981CE0FD11D0FB690
:1025B000F894DEBF0FBECDBFED010895EE0FFF1FF3
:0C25C0000590F491E02D0994F894FFCFF1
:1025CC006D6F746F7232006D6F746F7231004600F4
:1025DC002D0052005573657220492F4F006D656CAC
:1025EC006F64793A006675677565004F72616E6746
:1025FC0075746E00204C562D3332380020205465F3
:10260C006D702E002E004620200020202000633309
:10261C0032005265642020003E63333200477265FD
:10262C00656E00830861082308F602D7077906DC7B
:10263C0000E100F700EA00F100FF000620000001B5
:10264C000203030405FF8813040400D007F4010FF0
:04265C00000208016F
:00000001FF
