:1000000033C000004CC000004AC0000087C200009E
:1000100085C2000083C2000042C0000040C0000052
:100020003EC0000009C200003AC0000038C0000015
:1000300036C0000034C0000032C0000030C00000F4
:100040002EC000002CC000002AC0000028C0000004
:1000500026C0000024C0000022C0000020C0000014
:100060001EC000001CC0000011241FBECFEFD8E04E
:10007000DEBFCDBF11E0A0E0B1E0E2E2FAE002C0F5
:1000800005900D92A231B107D9F711E0A2E1B1E0DC
:1000900001C01D92A433B107E1F702D0C0C4B0CFB4
:1000A00080E161E142E123E140D480E060E035D1CC
:1000B0001BD2AA2797FDA095BA2FBC01CD01A9D1CB
:1000C00080E091E0B4D184E060E027D114D2AA2787
:1000D00097FDA095BA2FBC01CD019BD180E091E0A6
:1000E000A6D110D2892B31F080E061E016D182E0F8
:1000F00091E09DD10DD2892B31F080E061E00DD1EE
:100100008AE091E094D182E390E0D0D1CECFEF921B
:10011000FF920F931F936AB157985A98289AE090CC
:100120001601F0901701009118011091190120E0BB
:1001300030E041E050E0CA016F9364E06A95F1F766
:100140006F910197C9F75C9ACA016F9364E06A9551
:10015000F1F76F910197C9F789B15C98FA016F9334
:1001600064E06A95F1F76F913197C9F75C9AFA01EB
:100170006F9364E06A95F1F76F913197C9F75C98D6
:1001800087FF0BC02C5F3F4FC901A0E0B0E08E1588
:100190009F05A007B10708F4CECF6AB91F910F9150
:1001A000FF90EF90089565B190E0AC014170507000
:1001B000440F551F9C012670307053E0220F331FEF
:1001C0005A95E1F7422B6D7C462B45B92BB18870CF
:1001D000907034E0880F991F3A95E1F72F77282B1C
:1001E0002BB95C9A81E090E0FC016F9364E06A9522
:1001F000F1F76F913197C9F75C986F9364E06A9556
:10020000F1F76F910197C9F7089580E197E2A0E0B7
:10021000B0E08093160190931701A0931801B0935A
:100220001901529A209A549A8EE190E04ED183E0BF
:1002300000D186E090E049D183E0FBD082E090E0FD
:1002400044D183E0F6D082E090E03FD182E0F1D06B
:1002500082E090E03AD188E241D088E03FD081E06E
:100260003DD086E03BD08CE039C080911A018823D4
:1002700021F481E080931A01C8CF0895BF92CF92F4
:10028000DF92EF92FF920F931F93082F162FF42EF9
:10029000ECDF3DDFB4B0C5B0DAB0EBB02898112385
:1002A00011F05A9A01C05A9884B1826384B9579A5E
:1002B00081E0F81621F0802F82958F7074DF802FF7
:1002C0008F7071DFDAB8EBB8B4B8C5B81F910F9171
:1002D000FF90EF90DF90CF90BF90089560E042E0F4
:1002E000CDCFA4E0B0E0E6E7F1E070C3182F062F11
:1002F00080E8898380EC8A8384E98B8384ED8C8316
:10030000FE01E60FF11D8181810FE8DF10931501D9
:10031000009314012496E4E075C3E3CF089561E0EF
:1003200042E0ACCF6F927F928F929F92AF92BF923A
:10033000CF92DF92FF920F93DF93CF93CDB7DEB7CB
:100340002A970FB6F894DEBF0FBECDBF5B016C01DC
:100350000AE03E010894611C711CFA2CC601B5012B
:100360002AE030E040E050E001D3C901DA015C014D
:100370006D0101504301800E911C80E3F80EC6010F
:10038000B5012AE030E040E050E0D1D2F61AF401A5
:10039000F082A114B104C104D104F9F607C0F6013A
:1003A000E00FF11D8081BBDF0F5F04C06E01089478
:1003B000C11CD11C0A3098F32A960FB6F894DEBF00
:1003C0000FBECDBFCF91DF910F91FF90DF90CF9007
:1003D000BF90AF909F908F907F906F900895EF9215
:1003E000FF920F931F937B018C0197FF0AC010951A
:1003F0000095F094E094E11CF11C011D111D8DE2AB
:100400008EDFC801B7018EDF1F910F91FF90EF9033
:100410000895E5CF0895CF93DF93EC0102C02196B4
:100420007EDF88818823D9F7DF91CF910895F3CFBC
:10043000089560E041E022CF2F928F939F932FB6D3
:1004400080911C0190911D01019680931C01909355
:100450001D0190E080911E01891F80931E019091E3
:1004600024019C5F90932401809123018051974245
:10047000C0F0909324018093230180911F019091FB
:100480002001019680931F019093200190E08091BC
:100490002101891F8093210180912201891F80936E
:1004A00022012FBE9F918F912F90189528EE33E057
:1004B00009C0F9016F9364E06A95F1F76F91319784
:1004C000C9F701970097A9F7089528EE33E009C00E
:1004D000F9016F9364E06A95F1F76F913197C9F76D
:1004E00001970097A9F70895F894789480912A01CC
:1004F00090912B010895F89478948091280190911F
:1005000029010895809127011092270190E0089514
:10051000809126011092260190E008951F920F927B
:100520000FB60F9211242F933F934F935F936F93C6
:100530007F938F939F93AF93BF93EF93FF934091DC
:100540002C01483040F489B190E002C09595879520
:100550004A95E2F712C0242F30E04E3028F483B1E0
:1005600090E02850304004C086B190E02E503040DA
:1005700002C0959587952A95E2F7E82FE1704091A2
:100580002E01483040F489B190E002C095958795DE
:100590004A95E2F712C0242F30E04E3028F483B1A0
:1005A00090E02850304004C086B190E02E5030409A
:1005B00002C0959587952A95E2F7682F6170409162
:1005C0002D01483040F489B190E002C0959587959F
:1005D0004A95E2F712C0242F30E04E3028F483B160
:1005E00090E02850304004C086B190E02E5030405A
:1005F00002C0959587952A95E2F7582F5170409142
:100600002F01483040F489B190E002C0959587955C
:100610004A95E2F712C0242F30E04E3028F483B11F
:1006200090E02850304004C086B190E02E50304019
:1006300002C0959587952A95E2F7482F4170F09171
:10064000310170913001B0913301A0913201EF1767
:1006500049F080912A0190912B01019690932B01F2
:1006600080932A01571749F080912A0190912B011C
:10067000019790932B0180932A016B1749F0809189
:1006800028019091290101969093290180932801D6
:100690004A1749F080912801909129010197909380
:1006A0002901809328012E2F30E0872F992787FD7D
:1006B00090952817390761F0252F30E08F2F992763
:1006C00087FD90952817390719F081E0809327015D
:1006D000262F30E08A2F992787FD90952817390714
:1006E00061F0242F30E08B2F992787FD90952817F4
:1006F000390719F081E080932601E093300150938F
:1007000031016093320140933301FF91EF91BF912A
:10071000AF919F918F917F916F915F914F913F9199
:100720002F910F900FBE0F901F901895282F883093
:10073000B8F4809168008460809368003AB181E0E9
:1007400090E002C0880F991F2A95E2F7282F209584
:1007500023232AB920916D00822B80936D00089588
:100760008E30D0F48091680081608093680044B13D
:1007700030E02850304081E090E002C0880F991F9F
:100780002A95E2F7282F2095242324B920916B0085
:10079000822B80936B0008958431C8F480916800A7
:1007A00082608093680047B130E02E50304081E095
:1007B00090E002C0880F991F2A95E2F7282F209514
:1007C000242327B920916C00822B80936C0008951C
:1007D000EF92FF920F931F93182F062FF42EE22E05
:1007E00080932C0160932D0140932E0120932F01C3
:1007F000F8949CDF802F9ADF8F2D98DF8E2D96DF67
:1008000010922B0110922A011092290110922801B6
:100810001092270110922601183040F489B190E01F
:1008200002C0959587951A95E2F712C0212F30E006
:100830001E3028F483B190E02850304004C086B1C7
:1008400090E02E50304002C0959587952A95E2F7AA
:10085000817080933001083040F489B190E002C08B
:10086000959587950A95E2F712C0202F30E00E305B
:1008700028F483B190E02850304004C086B190E065
:100880002E50304002C0959587952A95E2F78170E9
:100890008093310187E08F1540F089B190E002C06C
:1008A00095958795FA94E2F713C02F2D30E08DE0EF
:1008B0008F1528F083B190E02850304004C086B1F5
:1008C00090E02E50304002C0959587952A95E2F72A
:1008D00081708093320187E08E1540F089B190E0FD
:1008E00002C095958795EA94E2F713C02E2D30E06B
:1008F0008DE08E1528F083B190E02850304004C080
:1009000086B190E02E50304002C0959587952A958B
:10091000E2F78170809333018BB387608BBB78944F
:100920001F910F91FF90EF90089552CF0895629F0D
:10093000D001739FF001829FE00DF11D649FE00DD7
:10094000F11D929FF00D839FF00D749FF00D659F38
:10095000F00D9927729FB00DE11DF91F639FB00D37
:10096000E11DF91FBD01CF0111240895A1E21A2E46
:10097000AA1BBB1BFD010DC0AA1FBB1FEE1FFF1F43
:10098000A217B307E407F50720F0A21BB30BE40B93
:10099000F50B661F771F881F991F1A9469F76095DA
:1009A0007095809590959B01AC01BD01CF01089594
:1009B0002F923F924F925F926F927F928F929F926F
:1009C000AF92BF92CF92DF92EF92FF920F931F935D
:1009D000CF93DF93CDB7DEB7CA1BDB0B0FB6F8940E
:1009E000DEBF0FBECDBF09942A88398848885F844E
:1009F0006E847D848C849B84AA84B984C884DF80BF
:100A0000EE80FD800C811B81AA81B981CE0FD11DA2
:100A10000FB6F894DEBF0FBECDBFED010895F89478
:020A2000FFCF06
:100A220020004572726F722031004572726F72201F
:020A3200320090
:00000001FF
