:100000003DC0000056C0000054C0000052C00000B7
:1000100050C000004EC000004CC000004AC00000AC
:1000200048C0000046C0000044C000004FC20000AD
:1000300040C000003EC000003CC000003AC00000CC
:1000400038C0000036C0000034C0000032C00000DC
:1000500030C000002EC000002CC000002AC00000EC
:1000600028C0000026C0000024C0000022C00000FC
:1000700020C000001EC000001CC0000011241FBED4
:10008000CFEFD8E0DEBFCDBF11E0A0E0B1E0ECEAF9
:10009000F6E002C005900D92AA30B107D9F711E041
:1000A000AAE0B1E001C01D92A433B107E1F770D01E
:1000B000FBC2A6CF482F883068F481E090E002C0F0
:1000C000880F991F4A95E2F7282FAAE2B0E0EBE2E9
:1000D000F0E03EC0803188F4282F30E028503040D6
:1000E00081E090E002C0880F991F2A95E2F7282F3F
:1000F000A4E2B0E0E5E2F0E02BC0883188F4282FDC
:1001000030E02051304081E090E002C0880F991F1C
:100110002A95E2F7282FA7E2B0E0E8E2F0E018C065
:10012000803230F020E0A0E0B0E0E0E0F0E010C08D
:100130002FE130E0281B310981E090E002C0880FF8
:10014000991F2A95E2F7282FA1E2B0E0E2E2F0E061
:100150006F3F19F48081822709C0662319F08081DE
:10016000822B04C09081822F8095892380838C917B
:10017000822B8C9308958F3F19F481E06FEF07C0B5
:10018000882319F481E061E002C081E060E092CF51
:100190000F931F93CF93DF9380917C0080628093B5
:1001A0007C001092300110922F01109231011092B8
:1001B00033011092320180E8F2D0C0E0D1E08091AA
:1001C0007A0086FD25C000912F0110913001AED03C
:1001D000080F191F1093300100932F0180E8DFD022
:1001E000809131018F5F80933101843189F4809156
:1001F0002F019091300164E170E005D270933301DA
:1002000060933201109231011092300110922F014F
:1002100080E0B1DF80913201909133019E01281B73
:10022000390BC9016F9364E06A95F1F76F910197FB
:10023000C9F781E0A0DF80913201909133010196EE
:100240006F9364E06A95F1F76F910197C9F7B7CFA3
:10025000EF92FF920F931F93CF93DF9380910A0148
:10026000882309F451C080910B0190910C012091D9
:100270007C00C0910001D0910101BC0180E090E0C0
:1002800025FF1FC07E01F694E79400E010E02FEFF9
:1002900030E040E050E098D1E60EF71E081F191F2D
:1002A0009E0140E050E0C801B701C1D1C901DA01A7
:1002B0008F3F9105A105B10529F120F12FEF30E025
:1002C00030C07E01F694E79400E010E02FEF33E0B9
:1002D00040E050E079D1E60EF71E081F191F9E017D
:1002E00040E050E0C801B701A2D1C901DA01803075
:1002F00020E0920721E0A20720E0B20718F02FEFDC
:100300003FEF0FC09C010DC080917C0085FF05C0B0
:1003100080917900282F30E004C02091780030913E
:100320007900C901CDB7DEB7E6E0AFC191CF08953E
:10033000982F8032D8F081E080930A01903811F430
:1003400072D00FC0913811F468D00BC0923811F4FC
:100350005ED007C0933811F454D003C09438F1F440
:100360004AD090930C0180930B01089510920A01DA
:1003700087E880937A0080917C00282F2064662390
:1003800011F0806C02C0822F8F77807E892B809342
:100390007C0080917A00806480937A00089560E008
:1003A000C7CF8FEF64E069C0CF93DF93F9D020917E
:1003B000060130910701409108015091090162172F
:1003C000730784079507A1F081E867E056D0C6E17E
:1003D000D1E0E7DF899381E0C332D807D1F7E0D0DD
:1003E00060930601709307018093080190930901BF
:1003F000DF91CF910895D8DF80911D0190911E016A
:100400000895D2DF80911B0190911C010895CCDFEB
:100410008091190190911A010895C6DF809117010A
:10042000909118010895C0DF80911F0190912001E3
:100430000895982F24990CC02C990AC02C9AEEE1AB
:10044000F0E06F9364E06A95F1F76F913197C9F727
:1004500084B1806A84B92698892F837080656C7A0C
:10046000862B8CBD892F90E09695879596958795DC
:1004700081708DBD81E090E063C00F931F93082FC2
:10048000162F0CB406FC03C080E064E0D2DF0CB48D
:1004900004FC03C08CB580618CBD0EBD05C00CB4DE
:1004A00004FC02C080E00FC00DB407FEF8CF11239A
:1004B00049F0812F90E06F9364E06A95F1F76F91B6
:1004C0000197C9F78EB51F910F9108952F928F93C1
:1004D0009F932FB6809125019091260101968093DC
:1004E00025019093260190E080912701891F809338
:1004F000270190912D019C5F90932D0180912C01FB
:1005000080519742C0F090932D0180932C018091EF
:100510002801909129010196809328019093290147
:1005200090E080912A01891F80932A0180912B01FC
:10053000891F80932B012FBE9F918F912F9018952B
:1005400028EE33E009C0F9016F9364E06A95F1F792
:100550006F913197C9F701970097A9F70895A0E720
:10056000B0E08C918E7F8C93E0EBF0E08081836033
:100570008083E1EBF0E08081807F808380818260F6
:100580008083B89A8C9181608C937894089580913F
:100590002E01882321F481E080932E01E0CF08957D
:1005A000F6DFE0E7F0E080818E7F808320912801F4
:1005B0003091290140912A0150912B018081816065
:1005C0008083B901CA010895629FD001739FF00131
:1005D000829FE00DF11D649FE00DF11D929FF00DD3
:1005E000839FF00D749FF00D659FF00D9927729F0A
:1005F000B00DE11DF91F639FB00DE11DF91FBD0195
:10060000CF0111240895AA1BBB1B51E107C0AA1FEB
:10061000BB1FA617B70710F0A61BB70B881F991FA3
:100620005A95A9F780959095BC01CD010895A1E256
:100630001A2EAA1BBB1BFD010DC0AA1FBB1FEE1F5C
:10064000FF1FA217B307E407F50720F0A21BB30BA7
:10065000E40BF50B661F771F881F991F1A9469F723
:1006600060957095809590959B01AC01BD01CF017F
:1006700008952A88398848885F846E847D848C84B4
:100680009B84AA84B984C884DF80EE80FD800C81BD
:100690001B81AA81B981CE0FD11D0FB6F894DEBFA0
:0C06A0000FBECDBFED010895F894FFCF10
:0A06AC008813FFFFFFFFFFFFFFFFB1
:00000001FF
