:100000003DC0000057C0000055C0000053C00000B4
:1000100051C000004FC000004DC000004BC00000A8
:1000200049C0000047C0000045C000000C94AC0867
:1000300041C000003FC000003DC000003BC00000C8
:1000400039C0000037C0000035C0000033C00000D8
:1000500031C000002FC000002DC000002BC00000E8
:1000600029C0000027C0000025C0000023C00000F8
:1000700021C000001FC000001DC0000011241FBED1
:10008000CFEFD8E0DEBFCDBF11E0A0E0B1E0E8EBFC
:10009000F4E102C005900D92A234B107D9F711E046
:1000A000A2E4B1E001C01D92AA37B107E1F703D085
:1000B0000C945A0AA5CFEF92FF920F931F93CF9300
:1000C000DF9353D62ED788EC90E00E94E60800D04C
:1000D00080E091E0ADB7BEB712969C938E931197D6
:1000E000D3D10F900F9088EC90E00E94E60800D0EA
:1000F00086E091E0EDB7FEB792838183C5D10F9082
:100100000F9080ED97E00E94E6080BD7C1E4D0E0A5
:10011000CE01CCD182E390E00E94E6082196CB3755
:10012000D105B1F780ED97E00E94E608FAD600D03D
:100130008DE091E0ADB7BEB712969C938E93119768
:10014000A3D1C0E0D0E00F900F9080E2E82E83E0D2
:10015000F82E05E111E0C7018C1B9D0B0E94E608FB
:1001600000D000D000D0EDB7FEB73196ADB7BEB726
:1001700012961C930E931197D383C283D583C483A5
:1001800083D1E296EDB7FEB736960FB6F894FEBF70
:100190000FBEEDBFF2E0C632DF07E9F680ED97E073
:1001A0000E94E608BED600D08FE191E0ADB7BEB7A1
:1001B00012969C938E93119767D10F900F90C8E27F
:1001C000D1E080E061E07FD622D59BD400D000D082
:1001D000EDB7FEB7D283C1839483838355D10F904B
:1001E0000F900F900F9082E390E0F0D7EACFCF937B
:1001F000DF93BC018230910510F462E070E0A091C1
:100200007201B0917301ED01E0E0F0E040E050E0F8
:1002100021C0888199818617970769F48A819B811B
:10022000309719F09383828304C090937301809375
:100230007201FE0134C06817790738F44115510581
:1002400019F08417950708F4AC01FE018A819B819F
:100250009C01E9012097E9F641155105A9F1CA0170
:10026000861B970B049708F4BA01E0E0F0E02AC07F
:100270008D919C91119784179507F9F46417750770
:1002800081F412968D919C911397309719F0938376
:10029000828304C09093730180937201FD013296B2
:1002A0004CC0CA01861B970BFD01E80FF91F619333
:1002B000719302978D939C9340C0FD01828193813D
:1002C0009C01D9011097A1F6809170019091710164
:1002D000892B41F480913D0190913E0190937101F1
:1002E0008093700140913F015091400141155105AB
:1002F00041F44DB75EB780913B0190913C01481BA2
:10030000590B2091700130917101CA01821B930B2E
:100310008617970780F0AB014E5F5F4F84179507F4
:1003200050F0420F531F5093710140937001F90137
:100330006193719302C0E0E0F0E0CF01DF91CF91D3
:100340000895CF93DF93009709F450C0EC012297F2
:100350001B821A82A0917201B0917301109709F16A
:1003600040E050E0AC17BD0708F1BB83AA83FE0153
:1003700021913191E20FF31FAE17BF0779F48D91F0
:100380009C911197280F391F2E5F3F4F3983288387
:1003900012968D919C9113979B838A8341155105E9
:1003A00071F4D0937301C093720120C012968D91A5
:1003B0009C911397AD01009711F0DC01D3CFFA01A6
:1003C000D383C28321913191E20FF31FCE17DF0750
:1003D00069F488819981280F391F2E5F3F4FFA01F8
:1003E000318320838A819B8193838283DF91CF91A4
:1003F00008950F931F93CF93DF938C01EB01009728
:1004000031F46115710519F420E030E037C081E066
:1004100090E06EE070E01DD2FC019C01009771F14C
:1004200080E88383209771F0D387C28781E8838334
:100430008091740190917501892B21F4F0937501DD
:10044000E093740101151105C9F0118700878381BC
:10045000826083838091760190917701892B71F47A
:10046000F0937701E0937601809178019091790182
:10047000892B21F4F0937901E0937801C901DF9190
:10048000CF911F910F910895A0E0B0E0E9E4F2E070
:10049000EAC7FE0135966191719180917601909144
:1004A0007701AF0108D02096E2E0F9C760917601AC
:1004B0007091770105C2ABE0B0E0E0E6F2E0C3C7BF
:1004C0003C012B015A01FC0117821682838181FDB8
:1004D00003C06FEF7FEFB9C19AE0892E1E01089427
:1004E000211C311CF3012381F20123FD859123FF9F
:1004F00081912F01882309F4A5C1853239F423FDA8
:10050000859123FF81912F01853221F490E0B30181
:10051000D7D1E8CF982FFF24EE249924FFE1FF15CF
:10052000D0F09B3269F09C3228F4903259F093322B
:1005300091F40EC09D3249F0903369F441E024C03B
:1005400052E0F52A84E0F82A28C098E0F92A25C06C
:10055000E0E1FE2A22C0F7FC29C0892F80538A30AF
:1005600070F4F6FE05C0989C902C1124980E15C0CE
:10057000E89CE02C1124E80EF0E2FF2A0EC09E3227
:1005800029F4F6FC5FC140E4F42A07C09C3619F454
:1005900050E8F52A02C0983649F4F20123FD9591FE
:1005A00023FF91912F01992309F0B8CF892F85540A
:1005B000833018F08052833038F444E050E0A40EC9
:1005C000B51E5FE359830FC0933631F0933779F04E
:1005D000933509F052C01FC0F5018081898342E044
:1005E00050E0A40EB51E610101E010E011C0F5015C
:1005F000C080D180F6FC03C06FEF7FEF02C0692D91
:1006000070E042E050E0A40EB51EC6014ED18C0150
:100610005FE7F52213C0F501C080D180F6FC03C06E
:100620006FEF7FEF02C0692D70E042E050E0A40E52
:10063000B51EC60128D18C0150E8F52AF3FE06C08C
:1006400018C080E290E0B3013BD1EA948E2D90E097
:1006500008171907B0F30DC0F601F7FC8591F7FEF6
:1006600081916F0190E0B3012BD1E110EA94015028
:1006700010400115110581F7E2C0943611F099364A
:1006800061F5F7FE08C0F501208131814281538177
:1006900084E090E00AC0F501808191819C014427AB
:1006A00037FD4095542F82E090E0A80EB91E9FE6DA
:1006B000F92257FF09C050954095309521953F4F3D
:1006C0004F4F5F4FE0E8FE2ACA01B901A1012AE0BD
:1006D00030E022D1D82ED2183FC0953729F41F2DF3
:1006E0001F7E2AE030E01DC01F2D197F9F3661F06C
:1006F000903720F4983509F0A5C00FC0903739F035
:10070000983709F09FC004C028E030E00AC01061AB
:1007100014FD146020E130E004C014FD166020E1F7
:1007200032E017FF08C0F5016081718182819381F9
:1007300044E050E008C0F50180819181BC0180E077
:1007400090E042E050E0A40EB51EA101E5D0D82E05
:10075000D2188FE7F82EF122F6FE0BC05EEFF522DD
:10076000D91438F4F4FE07C0F2FC05C08FEEF8226D
:1007700002C01D2D01C0192DF4FE0DC0FE01ED0DAE
:10078000F11D8081803319F499EEF92208C01F5FB2
:10079000F2FE05C003C08F2D867809F01F5F0F2D74
:1007A000F3FC13C0F0FE0EC01E1510F09D2C0AC005
:1007B0009D2C9E0C911A1E2D05C080E290E0B30185
:1007C0007FD01F5F1E15C8F304C01E1510F4E11A78
:1007D00001C0EE2404FF0EC080E390E0B30170D0AE
:1007E00002FF1BC001FD03C088E790E00EC088E552
:1007F00090E00BC0802F867881F001FF02C08BE271
:1008000001C080E2F7FC8DE290E0B30159D005C051
:1008100080E390E0B30154D09A94D914C8F3DA94E9
:10082000F101ED0DF11D808190E0B30149D0DD2093
:10083000B1F705C080E290E0B30142D0EA94EE2027
:10084000C9F750CEF30166817781CB012B96E2E1A7
:1008500016C60F931F93CF93DF93689F8001699F04
:10086000100D789F100D1124C801C1DCEC01009718
:1008700021F060E070E0A80111D0CE01DF91CF91AE
:100880001F910F910895FC01059061507040011077
:10089000D8F7809590958E0F9F1F0895DC0101C0B9
:1008A0006D9341505040E0F70895FC016150704055
:1008B00001900110D8F7809590958E0F9F1F089595
:1008C0000F931F93CF93DF938C01EB018B8181FFFB
:1008D0001BC082FF0DC02E813F818C819D81281716
:1008E000390764F4E881F9810193F983E88306C04C
:1008F000E885F985802F0995892B31F48E819F81B8
:1009000001969F838E8302C00FEF1FEFC801DF9116
:10091000CF911F910F910895FA01AA27283051F124
:10092000203181F1E8946F936E7F6E5F7F4F8F4F20
:100930009F4FAF4FB1E03ED0B4E03CD0670F781F7F
:10094000891F9A1FA11D680F791F8A1F911DA11D64
:100950006A0F711D811D911DA11D20D009F468949D
:100960003F912AE0269F11243019305D3193DEF645
:10097000CF010895462F4770405D4193B3E00FD0FB
:10098000C9F7F6CF462F4F70405D4A3318F0495DE6
:1009900031FD4052419302D0A9F7EACFB4E0A695C9
:1009A0009795879577956795BA95C9F700976105EB
:1009B000710508959B01AC010A2E06945795479541
:1009C00037952795BA95C9F7620F731F841F951F36
:1009D000A01D0895EF92FF920F931F93CF93DF9383
:1009E00080914201882309F451C080914301909184
:1009F000440120917C00C0912F01D0913001BC01B5
:100A000080E090E025FF1FC07E01F694E79400E0AF
:100A100010E02FEF30E040E050E0C0D4E60EF71ECB
:100A2000081F191F9E0140E050E0C801B701E9D43A
:100A3000C901DA018F3F9105A105B10529F120F126
:100A40002FEF30E030C07E01F694E79400E010E034
:100A50002FEF33E040E050E0A1D4E60EF71E081F70
:100A6000191F9E0140E050E0C801B701CAD4C90176
:100A7000DA01803020E0920721E0A20720E0B207EF
:100A800018F02FEF3FEF0FC09C010DC080917C004C
:100A900085FF05C080917900282F30E004C02091A7
:100AA000780030917900C901CDB7DEB7E6E0F3C434
:100AB000A0E0B0E020912F013091300140E050E003
:100AC000BC01CD016BD49B01AC0180917C0085FF02
:100AD0000BC0B901CA0161587F4F8F4F9F4F2FEF55
:100AE00030E040E050E00AC0B901CA0161507E4FD9
:100AF0008F4F9F4F2FEF33E040E050E082D4C90189
:100B00000895D6CF0895982F8032D8F081E0809351
:100B10004201903811F4EFD30FC0913811F4E5D3AE
:100B20000BC0923811F4DBD307C0933811F4D1D342
:100B300003C09438F1F4C7D39093440180934301E8
:100B400008951092420187E880937A0080917C009A
:100B5000282F2064662311F0806C02C0822F8F77CB
:100B6000807E892B80937C0080917A0080648093C2
:100B70007A00089560E0C7DF80917A0086FDFCCF9F
:100B800029CFA0E0B0E0E6ECF5E067C46B0180326D
:100B900018F0F0DF9C0136C060E0B5DF80917A008C
:100BA00086FDFCCFE601EE24FF24870180917A00C8
:100BB000806480937A0080917A0086FDFCCF0ADF02
:100BC000A0E0B0E0E80EF91E0A1F1B1F219771F785
:100BD000C6019695879520E4C216D10438F48E0D8F
:100BE0009F1D6C2D70E0F9D39B010CC0A0E0B0E01C
:100BF000E80EF91E0A1F1B1F960140E050E0C801D5
:100C0000B701FFD3C901CDB7DEB7E8E042C480E841
:100C100064E170E0B6CF80E090E00895EF92FF923B
:100C20000F931F9367B13D982898299AE090490146
:100C3000F0904A0100914B0110914C0120E030E00E
:100C400041E050E0CA016F9364E06A95F1F76F915B
:100C50000197C9F72A9ACA016F9364E06A95F1F780
:100C60006F910197C9F786B12A98FA016F9364E0F2
:100C70006A95F1F76F913197C9F72A9AFA016F9344
:100C800064E06A95F1F76F913197C9F72A982C5F64
:100C90003F4F85FF09C0C901A0E0B0E08E159F0558
:100CA000A007B10708F4CECFC901A0E0B0E08E15CF
:100CB0009F05A007B10728F082E390E0A0E0B0E034
:100CC00004C080E395E7A0E0B0E0809349019093F1
:100CD0004A01A0934B01B0934C0167B91F910F914A
:100CE000FF90EF9008958091450190914601009703
:100CF00009F027DB8091310190E0019720913201CA
:100D000030E0AC01429FC001439F900D529F900D77
:100D100011246DDA9093460180934501009721F1EB
:100D200060E070E208C0E0914501F0914601E40FF7
:100D3000F51F70836F5F462F50E08091310190E086
:100D400001972091320130E0FC01E29FC001E39F56
:100D5000900DF29F900D11244817590724F386E94E
:100D600097E06BE076E045CB0895BDCF08953D98C0
:100D7000459A80E395E7A0E0B0E080934901909325
:100D80004A01A0934B01B0934C01209A219A229AD8
:100D90008EE190E02AD283E0DCD186E090E025D29B
:100DA00083E0D7D182E090E020D283E0D2D182E00C
:100DB00090E01BD282E0CDD182E090E016D288E2B2
:100DC00063D088E061D081E05FD086E05DD08CE0C8
:100DD0005BC080914D01882321F481E080934D0117
:100DE000C6CF0895FF920F931F93082F162FF42E4E
:100DF000F0DF14DF37B128B12998112311F0289AB8
:100E000001C0289887B18C6387B981E0F816E1F0BA
:100E100088B1902F92959F70990F990F837C982B92
:100E200098B92A9A81E090E0FC016F9364E06A959A
:100E3000F1F76F913197C9F72A986F9364E06A953B
:100E4000F1F76F910197C9F788B10F70000F000F8C
:100E5000837C802B88B92A9A81E090E0FC016F9313
:100E600064E06A95F1F76F913197C9F72A986F930B
:100E700064E06A95F1F76F910197C9F737B928B91E
:100E80001F910F91FF90089560E042E0ABCFA4E086
:100E9000B0E0ECE4F7E0E5C2182F062F80E8898384
:100EA00080EC8A8384E98B8384ED8C83FE01E60FDA
:100EB000F11D8181810FE8DF109348010093470104
:100EC0002496E4E0EAC2E3CF089581E0DDDF80917B
:100ED000450190914601892B19F160E070E208C04C
:100EE000E0914501F0914601E40FF51F70836F5FBB
:100EF000462F50E08091310190E00197209132011E
:100F000030E0FC01E29FC001E39F900DF29F900D45
:100F100011244817590724F31092480110924701F1
:100F20000895D3CF089561E042E05CCFA0E0B0E047
:100F3000EBE9F7E092C2E82E8091450190914601DD
:100F4000892B09F4FDC02AE0E21609F445C038E017
:100F5000E316C9F4809148018150809348018F3F86
:100F600051F4809147018150809347018091320173
:100F7000815080934801809147018F3F09F0DBC089
:100F800010924701D6C08E2DCEDF2091470122233B
:100F9000C9F030E0215030408091320190E0AC0146
:100FA000249FC001259F900D349F900D1124209106
:100FB0004801E0914501F0914601E80FF91FE20F69
:100FC000F11DE082809148018F5F809348019091EC
:100FD0003201891709F0B4C040914701242F30E055
:100FE0008091310190E001972817390709F09EC0E0
:100FF000C0E0D0E042C080E06C2F49DFFF246E01EA
:101000000894C11CD11C34C00F2D10E090E09C014D
:10101000C29FC001C39F900DD29F900D1124E091FB
:101020004501F0914601E00FF11FE80FF91F8081A3
:101030007ADFE0914501F09146018091320190E024
:10104000C89FD001C99FB00DD89FB00D1124E00FEB
:10105000F11FAE0FBF1FAC01C49EC001C59E900D15
:10106000D49E900D1124E80FF91F80818C93F39486
:1010700080913201F81640F2E60160913101862F2D
:1010800090E00297C817D9070CF4B5CF623008F486
:101090003EC0625080E0FBDEFF2440E2D42E33C02D
:1010A0000F2D10E08091310190E0029730E0AC010B
:1010B000429FC001439F900D529F900D1124E091DB
:1010C0004501F0914601E00FF11FE80FF91F808103
:1010D0002ADF2091310130E02250304080913201EE
:1010E00090E0AC01249FC001259F900D349F900D8E
:1010F0001124E0914501F0914601E00FF11FE80F46
:10110000F91FD082F39420913201F21648F26091D7
:101110003101615080E0BBDE00E003C080E203DF0C
:101120000F5F809132010817C8F303C04F5F4093EF
:101130004701109248018091480160914701A7DE64
:101140002E2D332727FD3095C901CDB7DEB7E8E056
:10115000A0C160E041E046CE2F928F939F932FB6BF
:1011600080914F0190915001019680934F0190938F
:10117000500190E080915101891F8093510190911D
:1011800057019C5F9093570180915601805197427F
:10119000C0F0909357018093560180915201909135
:1011A00053010196809352019093530190E08091F6
:1011B0005401891F8093540180915501891F8093A8
:1011C00055012FBE9F918F912F90189528EE33E0F7
:1011D00009C0F9016F9364E06A95F1F76F91319757
:1011E000C9F701970097A9F7089528EE33E009C0E1
:1011F000F9016F9364E06A95F1F76F913197C9F740
:1012000001970097A9F70895A0E7B0E08C918E7F31
:101210008C93E0EBF0E0808183608083E1EBF0E091
:101220008081807F8083808182608083B89A8C9166
:1012300081608C937894089580915801882321F4DB
:1012400081E080935801E0CF0895F6DFE0E7F0E019
:1012500080818E7F80832091520130915301409193
:10126000540150915501808181608083B901CA0188
:1012700008958FEF64E069C0CF93DF93E6DF20919C
:101280003701309138014091390150913A0162178C
:10129000730784079507A1F081E867E056D0C2E69E
:1012A000D1E0E7DF899381E0CF36D807D1F7CDDFF2
:1012B00060933701709338018093390190933A011C
:1012C000DF91CF910895D8DF8091690190916A01F3
:1012D0000895D2DF80916701909168010895CCDF75
:1012E00080916501909166010895C6DF8091630148
:1012F000909164010895C0DF80916B0190916C0121
:101300000895982F24990CC02C990AC02C9AEEE1CC
:10131000F0E06F9364E06A95F1F76F913197C9F748
:1013200084B1806A84B92698892F837080656C7A2D
:10133000862B8CBD892F90E09695879596958795FD
:1013400081708DBD81E090E050CF0F931F93082FE7
:10135000162F0CB406FC03C080E064E0D2DF0CB4AE
:1013600004FC03C08CB580618CBD0EBD05C00CB4FF
:1013700004FC02C080E00FC00DB407FEF8CF1123BB
:1013800049F0812F90E06F9364E06A95F1F76F91D7
:101390000197C9F78EB51F910F910895629FD001F3
:1013A000739FF001829FE00DF11D649FE00DF11D20
:1013B000929FF00D839FF00D749FF00D659FF00DCF
:1013C0009927729FB00DE11DF91F639FB00DE11DBC
:1013D000F91FBD01CF0111240895AA1BBB1B51E1C8
:1013E00007C0AA1FBB1FA617B70710F0A61BB70B95
:1013F000881F991F5A95A9F780959095BC01CD013A
:101400000895A1E21A2EAA1BBB1BFD010DC0AA1F45
:10141000BB1FEE1FFF1FA217B307E407F50720F05D
:10142000A21BB30BE40BF50B661F771F881F991FD8
:101430001A9469F760957095809590959B01AC0121
:10144000BD01CF0108952F923F924F925F926F920C
:101450007F928F929F92AF92BF92CF92DF92EF9244
:10146000FF920F931F93CF93DF93CDB7DEB7CA1BC5
:10147000DB0B0FB6F894DEBF0FBECDBF09942A88F0
:10148000398848885F846E847D848C849B84AA8498
:10149000B984C884DF80EE80FD800C811B81AA8125
:1014A000B981CE0FD11D0FB6F894DEBF0FBECDBFF0
:0814B000ED010895F894FFCF4F
:1014B80068656C6C6F000A776F726C6400486578B9
:1014C80020446563000A25303358202533640054CE
:1014D80072696D706F743A00253475206D560088F6
:1014E800130210FFFFFFFFFFFFFFFF20007A01003C
:0214F8000000F2
:00000001FF
