:1000000049C0000063C0000061C000005FC0000084
:100010005DC000005BC0000059C0000057C0000078
:1000200055C0000053C0000051C000000C94BD0C2E
:100030004DC000004BC0000049C000000C945C089B
:1000400045C0000043C0000041C000003FC00000A8
:100050003DC000003BC0000039C0000037C00000B8
:1000600035C0000033C0000031C000002FC00000C8
:100070002DC000002BC0000029C00000DE05E405F3
:10008000E705EA05ED05F005F305F605F905FC05BC
:10009000FF05020611241FBECFEFD8E0DEBFCDBFA3
:1000A00011E0A0E0B1E0E0EFFBE102C005900D92AD
:1000B000A832B107D9F711E0A8E2B1E001C01D9262
:1000C000AC35B107E1F703D00C94F60D99CFA0E061
:1000D000B0E0EDE6F0E00C94C30D0E9455090E94DB
:1000E000310A00D080E091E0EDB7FEB792838183C2
:1000F000D1D10F900F90C7E0D1E08CE20E94BB0CF1
:10010000883031F0803231F0843049F489E303C023
:100110008BE301C08CE362E370E04AE097D58CE2A8
:100120000E94020C883031F0803231F0843049F482
:1001300085E403C087E401C088E462E370E04AE03C
:1001400085D50E943B0D7B018C0180E061E00E941F
:10015000030A8DB79EB708970FB6F8949EBF0FBEDF
:100160008DBFCDB6DEB60894C11CD11CEDB7FEB76D
:10017000D283C183C801B70120E63AEE40E050E0E7
:100180000E947C0DCA01B9012CE330E040E050E050
:100190000E947C0DF60162831382C801B70128EE2C
:1001A00033E040E050E00E947C0DCA01B9012CE32D
:1001B00030E040E050E00E947C0DF601648315823F
:1001C000C801B7012AE030E040E050E00E947C0D19
:1001D000CA01B90124E630E040E050E00E947C0D05
:1001E000F6016683178256D18DB79EB708960FB673
:1001F000F8949EBF0FBE8DBF80CFCF93DF93BC011D
:100200008230910510F462E070E0A0915401B09149
:100210005501ED01E0E0F0E040E050E021C08881D0
:1002200099818617970769F48A819B81309719F025
:100230009383828304C09093550180935401FE01FF
:1002400034C06817790738F44115510519F084173F
:10025000950708F4AC01FE018A819B819C01E901AC
:100260002097E9F641155105A9F1CA01861B970BA4
:10027000049708F4BA01E0E0F0E02AC08D919C9167
:10028000119784179507F9F46417750781F412968E
:100290008D919C911397309719F09383828304C0BA
:1002A0009093550180935401FD0132964CC0CA01D0
:1002B000861B970BFD01E80FF91F6193719302975D
:1002C0008D939C9340C0FD01828193819C01D90153
:1002D0001097A1F68091520190915301892B41F41E
:1002E00080912301909124019093530180935201B6
:1002F00040912501509126014115510541F44DB71A
:100300005EB78091210190912201481B590B2091E9
:10031000520130915301CA01821B930B8617970734
:1003200080F0AB014E5F5F4F8417950750F0420F8E
:10033000531F5093530140935201F90161937193FC
:1003400002C0E0E0F0E0CF01DF91CF910895CF93BC
:10035000DF93009709F450C0EC0122971B821A82A8
:10036000A0915401B0915501109709F140E050E07F
:10037000AC17BD0708F1BB83AA83FE01219131911F
:10038000E20FF31FAE17BF0779F48D919C9111977F
:10039000280F391F2E5F3F4F3983288312968D9186
:1003A0009C9113979B838A834115510571F4D093D7
:1003B0005501C093540120C012968D919C911397C2
:1003C000AD01009711F0DC01D3CFFA01D383C283D2
:1003D00021913191E20FF31FCE17DF0769F4888175
:1003E0009981280F391F2E5F3F4FFA0131832083F7
:1003F0008A819B8193838283DF91CF9108950F93AC
:100400001F93CF93DF938C01EB01009731F46115BB
:10041000710519F420E030E037C081E090E06EE033
:1004200070E01CD2FC019C01009771F180E883838D
:10043000209771F0D387C28781E88383809156012A
:1004400090915701892B21F4F0935701E0935601C5
:1004500001151105C9F011870087838182608383AC
:100460008091580190915901892B71F4F0935901B1
:10047000E093580180915A0190915B01892B21F4FE
:10048000F0935B01E0935A01C901DF91CF911F9175
:100490000F910895A0E0B0E0E0E5F2E00C94C90D02
:1004A000FE013596619171918091580190915901A9
:1004B000AF0104D02096E2E00C94E50DABE0B0E093
:1004C000E4E6F2E00C94B90D3C012B015A01FC0169
:1004D00017821682838181FD03C06FEF7FEFB9C160
:1004E0009AE0892E1E010894211C311CF3012381FE
:1004F000F20123FD859123FF81912F01882309F4C7
:10050000A5C1853239F423FD859123FF81912F0107
:10051000853221F490E0B301D8D1E8CF982FFF24A1
:10052000EE249924FFE1FF15D0F09B3269F09C3254
:1005300028F4903259F0933291F40EC09D3249F074
:10054000903369F441E024C052E0F52A84E0F82AAF
:1005500028C098E0F92A25C0E0E1FE2A22C0F7FC75
:1005600029C0892F80538A3070F4F6FE05C0989C0C
:10057000902C1124980E15C0E89CE02C1124E80E54
:10058000F0E2FF2A0EC09E3229F4F6FC5FC140E47F
:10059000F42A07C09C3619F450E8F52A02C09836B0
:1005A00049F4F20123FD959123FF91912F019923A5
:1005B00009F0B8CF892F8554833018F080528330EA
:1005C00038F444E050E0A40EB51E5FE359830FC039
:1005D000933631F0933779F0933509F052C01FC04C
:1005E000F5018081898342E050E0A40EB51E6101CF
:1005F00001E010E011C0F501C080D180F6FC03C01D
:100600006FEF7FEF02C0692D70E042E050E0A40E72
:10061000B51EC6014FD18C015FE7F52213C0F5016D
:10062000C080D180F6FC03C06FEF7FEF02C0692D60
:1006300070E042E050E0A40EB51EC60129D18C0145
:1006400050E8F52AF3FE06C018C080E290E0B3013E
:100650003CD1EA948E2D90E008171907B0F30DC035
:10066000F601F7FC8591F7FE81916F0190E0B301EF
:100670002CD1E110EA94015010400115110581F7C9
:10068000E2C0943611F0993661F5F7FE08C0F50125
:10069000208131814281538184E090E00AC0F501DC
:1006A000808191819C01442737FD4095542F82E041
:1006B00090E0A80EB91E9FE6F92257FF09C0509599
:1006C0004095309521953F4F4F4F5F4FE0E8FE2A10
:1006D000CA01B901A1012AE030E023D1D82ED218F5
:1006E0003FC0953729F41F2D1F7E2AE030E01DC042
:1006F0001F2D197F9F3661F0903720F4983509F04F
:10070000A5C00FC0903739F0983709F09FC004C0DA
:1007100028E030E00AC0106114FD146020E130E0F0
:1007200004C014FD166020E132E017FF08C0F50197
:10073000608171818281938144E050E008C0F501BD
:1007400080819181BC0180E090E042E050E0A40E05
:10075000B51EA101E6D0D82ED2188FE7F82EF122CF
:10076000F6FE0BC05EEFF522D91438F4F4FE07C094
:10077000F2FC05C08FEEF82202C01D2D01C0192D1C
:10078000F4FE0DC0FE01ED0DF11D8081803319F4E2
:1007900099EEF92208C01F5FF2FE05C003C08F2D3D
:1007A000867809F01F5F0F2DF3FC13C0F0FE0EC01A
:1007B0001E1510F09D2C0AC09D2C9E0C911A1E2D0A
:1007C00005C080E290E0B30180D01F5F1E15C8F322
:1007D00004C01E1510F4E11A01C0EE2404FF0EC07F
:1007E00080E390E0B30171D002FF1BC001FD03C0A4
:1007F00088E790E00EC088E590E00BC0802F8678F7
:1008000081F001FF02C08BE201C080E2F7FC8DE2C3
:1008100090E0B3015AD005C080E390E0B30155D019
:100820009A94D914C8F3DA94F101ED0DF11D808189
:1008300090E0B3014AD0DD20B1F705C080E290E03E
:10084000B30143D0EA94EE20C9F750CEF30166819C
:100850007781CB012B96E2E10C94D50D0F931F937A
:10086000CF93DF93689F8001699F100D789F100DD3
:100870001124C801C2DCEC01009721F060E070E0B7
:10088000A80111D0CE01DF91CF911F910F91089552
:10089000FC010590615070400110D8F7809590954B
:1008A0008E0F9F1F0895DC0101C06D934150504091
:1008B000E0F70895FC016150704001900110D8F7F5
:1008C000809590958E0F9F1F08950F931F93CF9340
:1008D000DF938C01EB018B8181FF1BC082FF0DC078
:1008E0002E813F818C819D812817390764F4E8812E
:1008F000F9810193F983E88306C0E885F985802FA3
:100900000995892B31F48E819F8101969F838E8377
:1009100002C00FEF1FEFC801DF91CF911F910F9120
:100920000895FA01AA27283051F1203181F1E89485
:100930006F936E7F6E5F7F4F8F4F9F4FAF4FB1E0D2
:100940003ED0B4E03CD0670F781F891F9A1FA11DCD
:10095000680F791F8A1F911DA11D6A0F711D811DCE
:10096000911DA11D20D009F468943F912AE0269F93
:1009700011243019305D3193DEF6CF010895462FF2
:100980004770405D4193B3E00FD0C9F7F6CF462FD3
:100990004F70405D4A3318F0495D31FD405241933C
:1009A00002D0A9F7EACFB4E0A695979587957795F9
:1009B0006795BA95C9F700976105710508959B0180
:1009C000AC010A2E06945795479537952795BA9509
:1009D000C9F7620F731F841F951FA01D0895A0E023
:1009E000B0E0E5EFF4E00C94C10DFC015B01C42E16
:1009F000809144018823C9F481E0809344011092DE
:100A00006F0083E28093800081E1809381001092E7
:100A1000820080E197E29093890080938800109291
:100A20008B0010928A00549A789410922001F7FD5E
:100A300003C0DD24D39403C0FF772AE0D22E809137
:100A40008100082F10E0087F107088ECD89EC0014C
:100A500011248E179F07C0F4EF0187E2E131F807F8
:100A600010F0C0E1D7E2BE017695679580E090E096
:100A70006058794687469F4F9E0140E050E00E94B3
:100A80007C0D7901016024C088E2D89E802D11245C
:100A9000C82FD0E0CE17DF0708F4EF01BE0176952E
:100AA00067959E0140E050E08AE0D81639F480E076
:100AB00090E0605E734481449F4F06C080E090E008
:100AC00060537D4E8C4E9F4F0E947C0D79010260D9
:100AD0008AE0D81631F4CE0105966AE070E0F8D7C6
:100AE000EB0183E0C83ED80711F4B5010EC0BE018A
:100AF00080E090E0950140E050E0BFD728EE33E081
:100B000040E050E00E949E0DB90110926F000093EA
:100B10008100F0928900E0928800E0918800F091D5
:100B20008900AC2DA03108F0AFE080E190E08A1B95
:100B3000910902C0F695E7958A95E2F7F0938B004C
:100B4000E0938A0070932D0160932C0186B38FEFA0
:100B500086BB81E080936F00CDB7DEB7EAE00C94EE
:100B6000DD0DCF93DF93EB018F3F11F0442329F488
:100B700088EE93E0BE0140E065C0813110F420E0D2
:100B800005C0282F2051203608F02FE5822F6CE079
:100B900093D7382F682F70E084EF9FEF689FF001A4
:100BA000699FF00D789FF00D1124E20FF11DEC30DC
:100BB000F10538F4E25CFF4F0C94F00D8CE991E004
:100BC00023C080E090E020C085EB91E01DC08FEC59
:100BD00091E01AC08AEE91E017C087E092E014C05D
:100BE00086E292E011C087E492E00EC089E692E0CE
:100BF0000BC08EE892E008C085EB92E005C08EED58
:100C000092E002C08AE093E0373071F002C0880FB2
:100C1000991F6A95E2F7323020F005966AE070E09D
:100C20000BC0805090480AC036E0880F991F3A9553
:100C3000E1F7029665E070E04BD7CB01403108F058
:100C40004FE0BE01CCDEDF91CF9108958ACF0895A9
:100C500030912A01E0914501F0914601332311F0D2
:100C6000249101C02081822F81548A3108F4205EB2
:100C7000203259F48091450190914601019690935C
:100C8000460180934501019729F7822F0895CF935C
:100C9000DF93DEDF282FC0E0D0E01CC0CE0153E0A0
:100CA000880F991F5A95E1F7CC0FDD1FC80FD91F88
:100CB000822F992787FD9095C80FD91FE0978091C3
:100CC000450190914601019690934601809345011C
:100CD000BFDF282F822F80538A3000F3CE01DF91AF
:100CE000CF910895A0E0B0E0E7E7F6E048C7809034
:100CF0001501B0902801BB2021F0609129016623E5
:100D000099F4A090290100911A0110911B01E09023
:100D10001601F0901701C0911801D0911901C090EF
:100D20001C01D0901D0103C18FEF70E040E019DF7E
:100D300010922901BDC194E0892EBB2404EF11E07B
:100D400084E0E82EF12CC0EDD7E0B4E09B2EAFE0BC
:100D5000CA2ED12C7DDF282F80914501909146012C
:100D600001969093460180934501263609F498C078
:100D70002736CCF42236A1F1233674F42E3361F1F8
:100D80002F3334F42132B9F22C3309F004C126C0D8
:100D9000213609F000C11AC1243609F451C02536A4
:100DA0000CF066C035C02F3609F4BFC0203754F4AC
:100DB0002C3609F4A5C02D3609F4A5C0273609F054
:100DC000EAC086C0243709F4CEC0263709F4E0C053
:100DD000223709F0E0C0ADC08394BCCF8A94BACF6B
:100DE000A0922901B092280110931B0100931A01CF
:100DF000F0921701E0921601D0931901C0931801E7
:100E000090921501D0921D01C0921C012BE0F5C0FB
:100E1000A0922901B092280110931B0100931A019E
:100E2000F0921701E0921601D0931901C0931801B6
:100E300090921501D0921D01C0921C0120E0DDC0EE
:100E4000A0922901B092280110931B0100931A016E
:100E5000F0921701E0921601D0931901C093180186
:100E600090921501D0921D01C0921C0122E0C5C0D4
:100E7000A0922901B092280110931B0100931A013E
:100E8000F0921701E0921601D0931901C093180156
:100E900090921501D0921D01C0921C0124E0ADC0BA
:100EA000A0922901B092280110931B0100931A010E
:100EB000F0921701E0921601D0931901C093180126
:100EC00090921501D0921D01C0921C0125E095C0A1
:100ED000A0922901B092280110931B0100931A01DE
:100EE000F0921701E0921601D0931901C0931801F6
:100EF00090921501D0921D01C0921C0127E07DC087
:100F0000C6DE7C0140C0A4DE8C3611F4BB2403C0D5
:100F1000AA24BB24B3948091450190914601019687
:100F2000909346018093450115CFB1DE882E982C11
:100F300011CFA0922901B092280110931B010093B8
:100F40001A01F0921701E0921601D0931901C09393
:100F5000180190921501D0921D01C0921C0120E051
:100F6000FF24F3944BC093DEBC0180EC9DE5B0D52B
:100F7000CB01EB01F3E0CC0FDD1FFA95E1F7880F11
:100F8000991FC80FD91FCE01B701A2D58B01E2CEA0
:100F90007EDE6C01DFCEA0922901B0922801109371
:100FA0001B0100931A01F0921701E0921601D093F1
:100FB0001901C093180190921501D0921D01C092A1
:100FC0001C01109246011092450172C0A0922901A5
:100FD000B092280110931B0100931A01F09217019F
:100FE000E0921601D0931901C09318019092150157
:100FF000D0921D01C0921C0129E0FF248CE0889E44
:10100000C0011124E22EE80E0AC0809145019091A2
:10101000460101969093460180934501E39418DEC2
:101020008B3299F3833289F30BC080914501909103
:10103000460101969093460180934501EA9408DEAB
:101040008D3299F3C0911A01D0911B0181538830E0
:1010500048F4009118011091190119DEBC01C80172
:1010600037D5EB018E010BC080914501909146016F
:1010700001969093460180934501C00FD11F1695AC
:101080000795E6DD8E3281F380912801882339F0BF
:10109000CE019695879580932901C81BD109FF2021
:1010A00011F0EE24EA948E2DBE0140911C0159DD11
:1010B000CDB7DEB7ECE07FC51F920F920FB60F924F
:1010C00011242F933F934F935F936F937F938F934D
:1010D0009F93AF93BF93EF93FF9380912C019091D7
:1010E0002D01019790932D0180932C01019609F514
:1010F00010926F00789480918100887F8160809346
:10110000810080E197E2909389008093880010929B
:101110008B0010928A0081E080932001809145012C
:1011200090914601892B29F080912B01882309F4A5
:10113000D9DDFF91EF91BF91AF919F918F917F91F9
:101140006F915F914F913F912F910F900FBE0F9034
:101150001F90189580E090E00895EF92FF920F9312
:101160001F9367B13D982898299AE0903201F0903A
:101170003301009134011091350120E030E041E06D
:1011800050E0CA016F9364E06A95F1F76F9101979F
:10119000C9F72A9ACA016F9364E06A95F1F76F91D3
:1011A0000197C9F786B12A98FA016F9364E06A95AE
:1011B000F1F76F913197C9F72A9AFA016F9364E0BA
:1011C0006A95F1F76F913197C9F72A982C5F3F4FD5
:1011D00085FF09C0C901A0E0B0E08E159F05A007FA
:1011E000B10708F4CECFC901A0E0B0E08E159F058D
:1011F000A007B10728F082E390E0A0E0B0E004C0CF
:1012000080E395E7A0E0B0E0809332019093330152
:10121000A0933401B093350167B91F910F91FF90EE
:10122000EF90089580912E0190912F01009709F081
:101230008ED880911E0190E0019720911F0130E02F
:10124000AC01429FC001439F900D529F900D11240D
:101250000E94FD0090932F0180932E01009721F1B1
:1012600060E070E208C0E0912E01F0912F01E40FE0
:10127000F51F70836F5F462F50E080911E0190E054
:10128000019720911F0130E0FC01E29FC001E39F24
:10129000900DF29F900D11244817590724F386E30F
:1012A0009AE06AEA78E0ABC80895BCCF08953D980B
:1012B000459A80E395E7A0E0B0E0809332019093F7
:1012C0003301A0933401B0933501209A219A229AD8
:1012D0008EE190E08CD383E0DCD186E090E087D390
:1012E00083E0D7D182E090E082D383E0D2D182E064
:1012F00090E07DD382E0CDD182E090E078D388E2A7
:1013000063D088E061D081E05FD086E05DD08CE082
:101310005BC080913601882321F481E080933601FF
:10132000C6CF0895FF920F931F93082F162FF42E08
:10133000F0DF13DF37B128B12998112311F0289A73
:1013400001C0289887B18C6387B981E0F816E1F075
:1013500088B1902F92959F70990F990F837C982B4D
:1013600098B92A9A81E090E0FC016F9364E06A9555
:10137000F1F76F913197C9F72A986F9364E06A95F6
:10138000F1F76F910197C9F788B10F70000F000F47
:10139000837C802B88B92A9A81E090E0FC016F93CE
:1013A00064E06A95F1F76F913197C9F72A986F93C6
:1013B00064E06A95F1F76F910197C9F737B928B9D9
:1013C0001F910F91FF90089560E042E0ABCFA4E041
:1013D000B0E0ECEEF9E0DBC3182F062F80E889833C
:1013E00080EC8A8384E98B8384ED8C83FE01E60F95
:1013F000F11D8181810FE8DF1093310100933001ED
:101400002496E4E0E0C3E3CF089581E0DDDF80913E
:101410002E0190912F01892B19F160E070E208C034
:10142000E0912E01F0912F01E40FF51F70836F5FA3
:10143000462F50E080911E0190E0019720911F01FE
:1014400030E0FC01E29FC001E39F900DF29F900D00
:1014500011244817590724F31092310110923001DA
:101460000895D3CF089561E042E05CCFA0E0B0E002
:10147000EBE3FAE088C3E82E80912E0190912F01D2
:10148000892B09F4FDC02AE0E21609F445C038E0D2
:10149000E316C9F4809131018150809331018F3F6F
:1014A00051F48091300181508093300180911F016F
:1014B000815080933101809130018F3F09F0DBC072
:1014C00010923001D6C08E2DCEDF20913001222324
:1014D000C9F030E02150304080911F0190E0AC0114
:1014E000249FC001259F900D349F900D11242091C1
:1014F0003101E0912E01F0912F01E80FF91FE20F69
:10150000F11DE082809131018F5F809331019091D4
:101510001F01891709F0B4C040913001242F30E039
:1015200080911E0190E001972817390709F09EC0AD
:10153000C0E0D0E042C080E06C2F49DFFF246E01A4
:101540000894C11CD11C34C00F2D10E090E09C0108
:10155000C29FC001C39F900DD29F900D1124E091B6
:101560002E01F0912F01E00FF11FE80FF91F80818C
:101570007ADFE0912E01F0912F0180911F0190E020
:10158000C89FD001C99FB00DD89FB00D1124E00FA6
:10159000F11FAE0FBF1FAC01C49EC001C59E900DD0
:1015A000D49E900D1124E80FF91F80818C93F39441
:1015B00080911F01F81640F2E60160911E01862F0E
:1015C00090E00297C817D9070CF4B5CF623008F441
:1015D0003EC0625080E0FBDEFF2440E2D42E33C0E8
:1015E0000F2D10E080911E0190E0029730E0AC01D9
:1015F000429FC001439F900D529F900D1124E09196
:101600002E01F0912F01E00FF11FE80FF91F8081EB
:101610002ADF20911E0130E02250304080911F01CE
:1016200090E0AC01249FC001259F900D349F900D48
:101630001124E0912E01F0912F01E00FF11FE80F2E
:10164000F91FD082F39420911F01F21648F26091A5
:101650001E01615080E0BBDE00E003C080E203DFDA
:101660000F5F80911F010817C8F303C04F5F4093BD
:101670003001109231018091310160913001A7DE7B
:101680002E2D332727FD3095C901CDB7DEB7E8E011
:1016900096C260E041E046CE0F931F93082F16B12B
:1016A000D6D1AB01BC0180913701882391F481E050
:1016B0008093370187B1837D87B988B18C6288B9FF
:1016C00085E090E06F9364E06A95F1F76F91019780
:1016D000C9F780913D01813011F1813038F08230BD
:1016E00009F443C0833009F089C065C0202F30E081
:1016F000812F90E08095909528233923232B09F49E
:101700007DC01095102310933801409339015093F8
:101710003A0160933B0170933C0181E06DC0809180
:10172000390190913A01A0913B01B0913C01481BD5
:10173000590B6A0B7B0B4F3051056105710508F49D
:101740005DC040913801812F90E080959095242FC5
:1017500030E082239323892B59F182E080933D016D
:10176000109514231093380149C0E0913801AE2F31
:10177000B0E0212F30E0CD0182239323892B79F033
:1017800083E080933D01E123E093380140933901E8
:1017900050933A0160933B0170933C012FC0802F1E
:1017A00090E02095309582239323A817B90731F153
:1017B00010923D0123C08091390190913A01A0918E
:1017C0003B01B0913C01481B590B6A0B7B0B4F301E
:1017D00051056105710590F040913801842F90E02A
:1017E000212F30E082239323892B29F010923D0191
:1017F000842F812304C082E080933D0180E01F910B
:101800000F91089549CF08950F931F93082F16B194
:1018100010951DD1AB01BC0180913701882391F453
:1018200081E08093370187B1837D87B988B18C626D
:1018300088B985E090E06F9364E06A95F1F76F9165
:101840000197C9F780914301813011F1813038F05F
:10185000823009F443C0833009F089C065C0202F6D
:1018600030E0812F90E08095909528233923232B19
:1018700009F47DC01095102310933E0140933F0161
:1018800050934001609341017093420181E06DC02B
:1018900080913F0190914001A0914101B09142019E
:1018A000481B590B6A0B7B0B4F30510561057105C5
:1018B00008F45DC040913E01812F90E080959095A5
:1018C000242F30E082239323892B59F182E08093E7
:1018D00043011095142310933E0149C0A0913E018D
:1018E000212F30E0EA2FF0E0C9018E239F23892BBE
:1018F00079F083E0809343011A2310933E014093D3
:101900003F015093400160934101709342012FC009
:10191000802F90E02095309582239323E817F907D4
:1019200031F11092430123C080913F019091400119
:10193000A0914101B0914201481B590B6A0B7B0BEE
:101940004F3051056105710590F040913E01812FA6
:1019500090E0242F30E082239323892B29F01092EA
:101960004301812F842304C082E08093430180E0FF
:101970001F910F91089548CF08952F928F939F93B1
:101980002FB68091480190914901019680934801BA
:101990009093490190E080914A01891F80934A0108
:1019A000909150019C5F9093500180914F01805124
:1019B0009742C0F09093500180934F0180914B016A
:1019C00090914C01019680934B0190934C0190E0D3
:1019D00080914D01891F80934D0180914E01891F97
:1019E00080934E012FBE9F918F912F90189528EED6
:1019F00033E009C0F9016F9364E06A95F1F76F91E4
:101A00003197C9F701970097A9F70895A0E7B0E0CB
:101A10008C918E7F8C93E0EBF0E0808183608083FB
:101A2000E1EBF0E08081807F808380818260808331
:101A3000B89A8C9181608C9378940895809151012B
:101A4000882321F481E080935101E0CF0895F6DFEF
:101A5000E0E7F0E080818E7F808320914B01309120
:101A60004C0140914D0150914E01808181608083F5
:101A7000B901CA010895EBCF0895629FD001739F09
:101A8000F001829FE00DF11D649FE00DF11D929F1A
:101A9000F00D839FF00D749FF00D659FF00D992759
:101AA000729FB00DE11DF91F639FB00DE11DF91F7D
:101AB000BD01CF0111240895991B79E004C0991F3D
:101AC000961708F0961B881F7A95C9F78095089598
:101AD000AA1BBB1B51E107C0AA1FBB1FA617B70754
:101AE00010F0A61BB70B881F991F5A95A9F7809570
:101AF0009095BC01CD010895A1E21A2EAA1BBB1B33
:101B0000FD010DC0AA1FBB1FEE1FFF1FA217B307C9
:101B1000E407F50720F0A21BB30BE40BF50B661FDF
:101B2000771F881F991F1A9469F7609570958095A3
:101B300090959B01AC01BD01CF01089597FB092E43
:101B400005260ED057FD04D0D7DF0AD0001C38F48C
:101B500050954095309521953F4F4F4F5F4F0895D9
:101B6000F6F790958095709561957F4F8F4F9F4FB9
:101B700008952F923F924F925F926F927F928F9231
:101B80009F92AF92BF92CF92DF92EF92FF920F930C
:101B90001F93CF93DF93CDB7DEB7CA1BDB0B0FB616
:101BA000F894DEBF0FBECDBF09942A8839884888D3
:101BB0005F846E847D848C849B84AA84B984C88469
:101BC000DF80EE80FD800C811B81AA81B981CE0F60
:101BD000D11D0FB6F894DEBF0FBECDBFED01089545
:101BE000EE0FFF1F0590F491E02D0994F894FFCFBC
:101BF00054696D653A20002532753A253032752ECC
:101C00002530327500040400D007F4010F000210E3
:081C10000120005C010000004E
:00000001FF
