:1000000035C100004FC100004DC100004BC10000D0
:1000100049C1000047C1000045C1000043C10000C4
:1000200041C100003FC100003DC100000C946E11B1
:100030000C946A0D37C100000C94720E0C94F609F2
:1000400031C100002FC100002DC100002BC10000F4
:1000500029C1000027C1000025C1000023C1000004
:1000600021C100001FC100001DC100001BC1000014
:1000700019C1000017C1000015C1000059075F0732
:100080006207650768076B076E07710774077707D4
:100090007A077D0721204F35204C3136206167617A
:1000A00066616561206461632B61646165612066DE
:1000B000613C61613C62616323612064616323612F
:1000C0006461656120664F36206463643C622D6420
:1000D0003C61643C6720643C662B643C67643C6123
:1000E000643C622D20643C64643C65643C662B6423
:1000F0003C6720643C662B643C67643C61644C381C
:10010000204D53203C622D643C622D64204D4C6593
:100110002D3C67652D3C67204D53633C61633C611A
:10012000204D4C20643C66643C66204F35204D5386
:1001300020622D67622D674D4C203E6323653E6330
:100140002365204D532061666166204D4C20676316
:1001500023676323204D532066646664204D4C2042
:10016000653C622D653C622D4F36204C3136726104
:1001700067616661656120646163236164616561D3
:100180002066613C61613C6261632361206461635C
:100190002361646165612066616561646163613CDE
:1001A000622D61636164673C622D672065676467E7
:1001B00063673C622D67203C61673C622D67636624
:1001C0003C616620646663663C622D663C61663C09
:1001D00067663C61663C622D653C6765206323650C
:1001E0003C622D653C61653C6765203C66653C670B
:1001F000653C61643C66644F3520653E65653E65DF
:10020000663E64663E6420622D3E6323622D3E633B
:1002100023613E64663E6420653E65653E65663EDC
:1002200064663E64653E643E63233E64623E643EB3
:10023000632362203E6323616761656766652066AC
:10024000204F362064632364666463233C6220632A
:100250002334009C01B501CF01EA010702260247C1
:100260000269028E02B502DE020A030011241FBEDB
:10027000CFEFD8E0DEBFCDBF11E0A0E0B1E0E0E716
:10028000F5E202C005900D92A233B107D9F711E053
:10029000A2E3B1E001C01D92AA37B107E1F777D020
:1002A0000C94B612ADCE813110F420E005C0282F99
:1002B0002051203608F02FE5822F6CE00E941C129E
:1002C000382F822F0E941C12E92FF0E0EE0FFF1F43
:1002D000ED5AFD4F85919491373049F002C0880F57
:1002E000991F3A95E2F705966AE070E008C026E0AB
:1002F000880F991F2A95E1F7029665E070E00E9449
:100300002812CB010895A0E0B0E0E9E8F1E00C94F8
:100310008112182F7B010E94FB115B016C01812F60
:10032000C2DF9C01BC017695679580E090E0605E3D
:100330007E45884F9F4F40E050E00E943C12E9010B
:1003400000E010E014C05C9A549ACE016F9364E010
:100350006A95F1F76F910197C9F75C98549ACE01AD
:100360006F9364E06A95F1F76F910197C9F70E9466
:10037000FB116A197B098C099D09E616F706080727
:10038000190708F7CDB7DEB7EAE00C949D12A2E09A
:10039000B0E0EDECF1E00C94841284E990E00E946E
:1003A000E7090E94C90B0E94EF0A00D080E091E0AB
:1003B000EDB7FEB792838183E0D10F900F9088EC68
:1003C00090E00E94A8118EE290E0EBD188EC90E0E2
:1003D0000E94A8118EE290E0E4D188EC90E00E94A7
:1003E000A8118EE290E0DDD184EF91E00E94A81187
:1003F00066E0E62E61E0F62EDD24D3948E010F5FD9
:100400001F4F0E94C90B00D0EDB7FEB7F282E18208
:10041000B4D10F900F908CE20E94680D1982DA829D
:1004200080E090E060E0A80122E00E946C1180E092
:1004300060EB74E00E949E0E81E060EB74E00E942D
:100440009E0E82E390E00E94A81180E068EC70E0CC
:100450000E94CD0E81E064E670E00E94CD0E80E047
:1004600060EB74E00E949E0E8CE362E370E04BDF71
:1004700084E362E370E047DF81E060EB74E00E94B8
:100480009E0E80E991E00E94A8118CE20E94E40C8B
:100490008823B9F480E068E077E00E949E0E88EC43
:1004A00090E00E94A81181E068E077E00E949E0E33
:1004B00080E991E00E94A8118CE20E94E40C88235C
:1004C00071F28CE20E94E40C0E94300D0E94720FC7
:1004D00085E191E089D788EE93E00E94A81191CF41
:1004E000CF93DF93BC018230910510F462E070E09D
:1004F000A0917201B0917301ED01E0E0F0E040E005
:1005000050E021C0888199818617970769F48A8114
:100510009B81309719F09383828304C09093730179
:1005200080937201FE0134C06817790738F44115D1
:10053000510519F08417950708F4AC01FE018A8172
:100540009B819C01E9012097E9F641155105A9F12C
:10055000CA01861B970B049708F4BA01E0E0F0E0AB
:100560002AC08D919C91119784179507F9F464170F
:10057000750781F412968D919C911397309719F01D
:100580009383828304C09093730180937201FD0171
:1005900032964CC0CA01861B970BFD01E80FF91F6C
:1005A0006193719302978D939C9340C0FD0182816A
:1005B00093819C01D9011097A1F6809170019091CF
:1005C0007101892B41F480912D0190912E0190931E
:1005D00071018093700140912F01509130014115BC
:1005E000510541F44DB75EB780912B0190912C01DC
:1005F000481B590B2091700130917101CA01821B77
:10060000930B8617970780F0AB014E5F5F4F8417FF
:10061000950750F0420F531F5093710140937001A2
:10062000F9016193719302C0E0E0F0E0CF01DF9146
:10063000CF910895CF93DF93009709F450C0EC0158
:1006400022971B821A82A0917201B09173011097B8
:1006500009F140E050E0AC17BD0708F1BB83AA8365
:10066000FE0121913191E20FF31FAE17BF0779F41C
:100670008D919C911197280F391F2E5F3F4F398321
:10068000288312968D919C9113979B838A834115A1
:10069000510571F4D0937301C093720120C012967A
:1006A0008D919C911397AD01009711F0DC01D3CF90
:1006B000FA01D383C28321913191E20FF31FCE1748
:1006C000DF0769F488819981280F391F2E5F3F4F1A
:1006D000FA01318320838A819B8193838283DF9116
:1006E000CF9108950F931F93CF93DF938C01EB016C
:1006F000009731F46115710519F420E030E037C03E
:1007000081E090E06EE070E021D2FC019C01009756
:1007100071F180E88383209771F0D387C28781E8E5
:1007200083838091740190917501892B21F4F0935A
:100730007501E093740101151105C9F01187008757
:100740008381826083838091760190917701892BE8
:1007500071F4F0937701E0937601809178019091A4
:100760007901892B21F4F0937901E0937801C90193
:10077000DF91CF911F910F910895A0E0B0E0E3ECDD
:10078000F3E00C948912FE0135966191719180918C
:10079000760190917701AF0109D02096E2E00C94A8
:1007A000A512609176017091770107C2ABE0B0E0CD
:1007B000ECEDF3E00C9479123C012B015A01FC01A1
:1007C00017821682838181FD03C06FEF7FEFB9C16D
:1007D0009AE0892E1E010894211C311CF30123810B
:1007E000F20123FD859123FF81912F01882309F4D4
:1007F000A5C1853239F423FD859123FF81912F0115
:10080000853221F490E0B301D8D1E8CF982FFF24AE
:10081000EE249924FFE1FF15D0F09B3269F09C3261
:1008200028F4903259F0933291F40EC09D3249F081
:10083000903369F441E024C052E0F52A84E0F82ABC
:1008400028C098E0F92A25C0E0E1FE2A22C0F7FC82
:1008500029C0892F80538A3070F4F6FE05C0989C19
:10086000902C1124980E15C0E89CE02C1124E80E61
:10087000F0E2FF2A0EC09E3229F4F6FC5FC140E48C
:10088000F42A07C09C3619F450E8F52A02C09836BD
:1008900049F4F20123FD959123FF91912F019923B2
:1008A00009F0B8CF892F8554833018F080528330F7
:1008B00038F444E050E0A40EB51E5FE359830FC046
:1008C000933631F0933779F0933509F052C01FC059
:1008D000F5018081898342E050E0A40EB51E6101DC
:1008E00001E010E011C0F501C080D180F6FC03C02A
:1008F0006FEF7FEF02C0692D70E042E050E0A40E80
:10090000B51EC6014FD18C015FE7F52213C0F5017A
:10091000C080D180F6FC03C06FEF7FEF02C0692D6D
:1009200070E042E050E0A40EB51EC60129D18C0152
:1009300050E8F52AF3FE06C018C080E290E0B3014B
:100940003CD1EA948E2D90E008171907B0F30DC042
:10095000F601F7FC8591F7FE81916F0190E0B301FC
:100960002CD1E110EA94015010400115110581F7D6
:10097000E2C0943611F0993661F5F7FE08C0F50132
:10098000208131814281538184E090E00AC0F501E9
:10099000808191819C01442737FD4095542F82E04E
:1009A00090E0A80EB91E9FE6F92257FF09C05095A6
:1009B0004095309521953F4F4F4F5F4FE0E8FE2A1D
:1009C000CA01B901A1012AE030E023D1D82ED21802
:1009D0003FC0953729F41F2D1F7E2AE030E01DC04F
:1009E0001F2D197F9F3661F0903720F4983509F05C
:1009F000A5C00FC0903739F0983709F09FC004C0E8
:100A000028E030E00AC0106114FD146020E130E0FD
:100A100004C014FD166020E132E017FF08C0F501A4
:100A2000608171818281938144E050E008C0F501CA
:100A300080819181BC0180E090E042E050E0A40E12
:100A4000B51EA101E6D0D82ED2188FE7F82EF122DC
:100A5000F6FE0BC05EEFF522D91438F4F4FE07C0A1
:100A6000F2FC05C08FEEF82202C01D2D01C0192D29
:100A7000F4FE0DC0FE01ED0DF11D8081803319F4EF
:100A800099EEF92208C01F5FF2FE05C003C08F2D4A
:100A9000867809F01F5F0F2DF3FC13C0F0FE0EC027
:100AA0001E1510F09D2C0AC09D2C9E0C911A1E2D17
:100AB00005C080E290E0B30180D01F5F1E15C8F32F
:100AC00004C01E1510F4E11A01C0EE2404FF0EC08C
:100AD00080E390E0B30171D002FF1BC001FD03C0B1
:100AE00088E790E00EC088E590E00BC0802F867804
:100AF00081F001FF02C08BE201C080E2F7FC8DE2D1
:100B000090E0B3015AD005C080E390E0B30155D026
:100B10009A94D914C8F3DA94F101ED0DF11D808196
:100B200090E0B3014AD0DD20B1F705C080E290E04B
:100B3000B30143D0EA94EE20C9F750CEF3016681A9
:100B40007781CB012B96E2E10C9495120F931F93C2
:100B5000CF93DF93689F8001699F100D789F100DE0
:100B60001124C801BDDCEC01009721F060E070E0C9
:100B7000A80111D0CE01DF91CF911F910F9108955F
:100B8000FC010590615070400110D8F78095909558
:100B90008E0F9F1F0895DC0101C06D93415050409E
:100BA000E0F70895FC016150704001900110D8F702
:100BB000809590958E0F9F1F08950F931F93CF934D
:100BC000DF938C01EB018B8181FF1BC082FF0DC085
:100BD0002E813F818C819D812817390764F4E8813B
:100BE000F9810193F983E88306C0E885F985802FB0
:100BF0000995892B31F48E819F8101969F838E8385
:100C000002C00FEF1FEFC801DF91CF911F910F912D
:100C10000895FA01AA27283051F1203181F1E89492
:100C20006F936E7F6E5F7F4F8F4F9F4FAF4FB1E0DF
:100C30003ED0B4E03CD0670F781F891F9A1FA11DDA
:100C4000680F791F8A1F911DA11D6A0F711D811DDB
:100C5000911DA11D20D009F468943F912AE0269FA0
:100C600011243019305D3193DEF6CF010895462FFF
:100C70004770405D4193B3E00FD0C9F7F6CF462FE0
:100C80004F70405D4A3318F0495D31FD4052419349
:100C900002D0A9F7EACFB4E0A69597958795779506
:100CA0006795BA95C9F700976105710508959B018D
:100CB000AC010A2E06945795479537952795BA9516
:100CC000C9F7620F731F841F951FA01D0895A0E030
:100CD000B0E0EDE6F6E00C948112FC015B01C42E5D
:100CE00080914E018823C9F481E080934E011092D7
:100CF0006F0083E28093800081E1809381001092F5
:100D0000820080E197E2909389008093880010929E
:100D10008B0010928A00549A789410922A01F7FD61
:100D200003C0DD24D39403C0FF772AE0D22E809144
:100D30008100082F10E0087F107088ECD89EC00159
:100D400011248E179F07C0F4EF0187E2E131F80705
:100D500010F0C0E1D7E2BE017695679580E090E0A3
:100D60006058794687469F4F9E0140E050E00E94C0
:100D70003C127901016024C088E2D89E802D1124A4
:100D8000C82FD0E0CE17DF0708F4EF01BE0176953B
:100D900067959E0140E050E08AE0D81639F480E083
:100DA00090E0605E734481449F4F06C080E090E015
:100DB00060537D4E8C4E9F4F0E943C127901026021
:100DC0008AE0D81639F4CE0105966AE070E00E94F8
:100DD0002812EB0183E0C83ED80711F4B5010FC01B
:100DE000BE0180E090E0950140E050E00E94FD11DE
:100DF00028EE33E040E050E00E945E12B90110920C
:100E00006F0000938100F0928900E0928800E091E9
:100E10008800F0918900AC2DA03108F0AFE080E1AE
:100E200090E08A1B910902C0F695E7958A95E2F752
:100E3000F0938B00E0938A00709337016093360142
:100E400086B38FEF86BB81E080936F00CDB7DEB7AE
:100E5000EAE00C949D12CF93DF93EB018F3F11F0EA
:100E6000442329F488EE93E0BE0140E067C081315D
:100E700010F420E005C0282F2051203608F02FE57F
:100E8000822F6CE00E941C12382F682F70E084EFD4
:100E90009FEF689FF001699FF00D789FF00D11247E
:100EA000E20FF11DEC30F10538F4E25CFF4F0C94D9
:100EB000B0128CE991E023C080E090E020C085EB87
:100EC00091E01DC08FEC91E01AC08AEE91E017C04E
:100ED00087E092E014C086E292E011C087E492E0DD
:100EE0000EC089E692E00BC08EE892E008C085EB68
:100EF00092E005C08EED92E002C08AE093E03730C8
:100F000071F002C0880F991F6A95E2F7323020F025
:100F100005966AE070E00BC0805090480BC036E048
:100F2000880F991F3A95E1F7029665E070E00E94FC
:100F30002812CB01403108F04FE0BE01C8DEDF913E
:100F4000CF91089530913401E0914F01F09150011B
:100F5000332311F0249101C02081822F81548A31E2
:100F600008F4205E203259F480914F019091500195
:100F700001969093500180934F01019729F7822F9A
:100F80000895CF93DF93DEDF282FC0E0D0E01CC0B0
:100F9000CE0153E0880F991F5A95E1F7CC0FDD1F62
:100FA000C80FD91F822F992787FD9095C80FD91F89
:100FB000E09780914F0190915001019690935001DC
:100FC00080934F01BFDF282F822F80538A3000F398
:100FD000CE01DF91CF910895A0E0B0E0E2EFF7E01D
:100FE0000C947F1280901F01B0903201BB2021F041
:100FF00060913301662399F4A0903301009124019C
:1010000010912501E0902001F0902101C091220172
:10101000D0912301C0902601D090270103C18FEF0A
:1010200070E040E018DF10923301C0C194E0892ED7
:10103000BB2404EF11E084E0E82EF12CC0EDD7E0F2
:10104000B4E09B2EAFE0CA2ED12C7CDF282F8091FC
:101050004F019091500101969093500180934F0160
:10106000263609F498C02736CCF42236A1F123366F
:1010700074F42E3361F12F3334F42132B9F22C336E
:1010800009F006C126C0213609F002C11CC1243670
:1010900009F451C025360CF066C035C02F3609F46E
:1010A000BFC0203754F42C3609F4A5C02D3609F4FE
:1010B000A5C0273609F0ECC086C0243709F4CEC09D
:1010C000263709F4E2C0223709F0E2C0ADC08394AC
:1010D000BCCF8A94BACFA0923301B0923201109360
:1010E000250100932401F0922101E0922001D09388
:1010F0002301C093220190921F01D0922701C09238
:1011000026012BE0F7C0A0923301B0923201109378
:10111000250100932401F0922101E0922001D09357
:101120002301C093220190921F01D0922701C09207
:10113000260120E0DFC0A0923301B092320110936B
:10114000250100932401F0922101E0922001D09327
:101150002301C093220190921F01D0922701C092D7
:10116000260122E0C7C0A0923301B0923201109351
:10117000250100932401F0922101E0922001D093F7
:101180002301C093220190921F01D0922701C092A7
:10119000260124E0AFC0A0923301B0923201109337
:1011A000250100932401F0922101E0922001D093C7
:1011B0002301C093220190921F01D0922701C09277
:1011C000260125E097C0A0923301B092320110931E
:1011D000250100932401F0922101E0922001D09397
:1011E0002301C093220190921F01D0922701C09247
:1011F000260127E07FC0C5DE7C0141C0A3DE8C361E
:1012000011F4BB2403C0AA24BB24B39480914F01E2
:101210009091500101969093500180934F0115CF0A
:10122000B0DE882E982C11CFA0923301B0923201FB
:101230001093250100932401F0922101E0922001F6
:10124000D0932301C093220190921F01D0922701D5
:10125000C092260120E0FF24F3944DC092DEBC0131
:1012600080EC9DE50E942812CB01EB01F3E0CC0F4E
:10127000DD1FFA95E1F7880F991FC80FD91FCE011E
:10128000B7010E9428128B01E0CE7BDE6C01DDCE1F
:10129000A0923301B09232011093250100932401F2
:1012A000F0922101E0922001D0932301C09322010A
:1012B00090921F01D0922701C092260110925001F6
:1012C00010924F0173C0A0923301B092320110937B
:1012D000250100932401F0922101E0922001D09396
:1012E0002301C093220190921F01D0922701C09246
:1012F000260129E0FF248CE0889EC0011124E22E03
:10130000E80E0AC080914F01909150010196909390
:10131000500180934F01E39415DE8B3299F38332B1
:1013200089F30BC080914F019091500101969093E9
:10133000500180934F01EA9405DE8D3299F3C091FC
:101340002401D09125018153883050F4009122016D
:101350001091230116DEBC01C8010E942812EB0186
:101360008E010BC080914F01909150010196909396
:10137000500180934F01C00FD11F16950795E2DDF4
:101380008E3281F380913201882339F0CE01969517
:10139000879580933301C81BD109FF2011F0EE24FB
:1013A000EA948E2DBE014091260155DDCDB7DEB702
:1013B000ECE00C949B1210926F009093500180937C
:1013C0004F0181E0809334011092330105CEF3CFB9
:1013D000089510926F009093500180934F011092E6
:1013E000340110923301F8CDF4CF08951F920F927B
:1013F0000FB60F9211242F933F934F935F936F93E8
:101400007F938F939F93AF93BF93EF93FF938091BD
:1014100036019091370101979093370180933601FF
:10142000019609F510926F00789480918100887F71
:1014300081608093810080E197E29093890080939E
:10144000880010928B0010928A0081E080932A011C
:1014500080914F0190915001892B29F080913501A5
:10146000882309F4B9DDFF91EF91BF91AF919F916E
:101470008F917F916F915F914F913F912F910F903D
:101480000FBE0F901F90189580E090E00895EF92A6
:10149000FF920F931F9367B13D982898299AE09087
:1014A0003C01F0903D0100913E0110913F0120E090
:1014B00030E041E050E0CA016F9364E06A95F1F7D3
:1014C0006F910197C9F72A9ACA016F9364E06A95F0
:1014D000F1F76F910197C9F786B12A98FA016F93D6
:1014E00064E06A95F1F76F913197C9F72A9AFA018A
:1014F0006F9364E06A95F1F76F913197C9F72A9875
:101500002C5F3F4F85FF09C0C901A0E0B0E08E15F8
:101510009F05A007B10708F4CECFC901A0E0B0E055
:101520008E159F05A007B10728F082E390E0A0E0A8
:10153000B0E004C080E395E7A0E0B0E080933C0118
:1015400090933D01A0933E01B0933F0167B91F9175
:101550000F91FF90EF90089580913801909139019B
:10156000009709F067D88091280190E001972091B9
:10157000290130E0AC01429FC001439F900D529F72
:10158000900D11240E9470029093390180933801CC
:10159000009721F160E070E208C0E0913801F0911D
:1015A0003901E40FF51F70836F5F462F50E0809183
:1015B000280190E001972091290130E0FC01E29F91
:1015C000C001E39F900DF29F900D11244817590719
:1015D00024F38EEC9BE064E47AE084C80895BCCFE9
:1015E00008953D98459A80E395E7A0E0B0E08093A8
:1015F0003C0190933D01A0933E01B0933F01209A9E
:10160000219A229A8EE190E0B2D683E0DAD186E088
:1016100090E0ADD683E0D5D182E090E0A8D683E01B
:10162000D0D182E090E0A3D682E0CBD182E090E0FE
:101630009ED688E263D088E061D081E05FD086E00A
:101640005DD08CE05BC080914001882321F481E073
:1016500080934001C6CF0895FF920F931F93082FE8
:10166000162FF42EF0DF13DF37B128B1299811239C
:1016700011F0289A01C0289887B18C6387B981E05E
:10168000F816E1F088B1902F92959F70990F990FFD
:10169000837C982B98B92A9A81E090E0FC016F93A3
:1016A00064E06A95F1F76F913197C9F72A986F93C3
:1016B00064E06A95F1F76F910197C9F788B10F70EF
:1016C000000F000F837C802B88B92A9A81E090E07C
:1016D000FC016F9364E06A95F1F76F913197C9F758
:1016E0002A986F9364E06A95F1F76F910197C9F7B3
:1016F00037B928B91F910F91FF90089560E042E03B
:10170000ABCFA4E0B0E0E6E8FBE001C7182F062F5E
:1017100080E8898380EC8A8384E98B8384ED8C83E1
:10172000FE01E60FF11D8181810FE8DF10933B017F
:1017300000933A012496E4E006C781E0DFDF809160
:10174000380190913901892B19F160E070E208C0ED
:10175000E0913801F0913901E40FF51F70836F5F5C
:10176000462F50E08091280190E0019720912901B7
:1017700030E0FC01E29FC001E39F900DF29F900DCD
:1017800011244817590724F310923B0110923A0193
:101790000895D3CF089561E042E05ECFA0E0B0E0CD
:1017A000E3EDFBE0B0C6E82E80913801909139015D
:1017B000892B09F4FDC02AE0E21609F445C038E09F
:1017C000E316C9F480913B01815080933B018F3F28
:1017D00051F480913A01815080933A01809129011E
:1017E000815080933B0180913A018F3F09F0DBC02B
:1017F00010923A01D6C08E2DCEDF20913A012223DD
:10180000C9F030E0215030408091290190E0AC01D6
:10181000249FC001259F900D349F900D112420918D
:101820003B01E0913801F0913901E80FF91FE20F17
:10183000F11DE08280913B018F5F80933B0190918D
:101840002901891709F0B4C040913A01242F30E0F2
:101850008091280190E001972817390709F09EC070
:10186000C0E0D0E042C080E06C2F4BDFFF246E016F
:101870000894C11CD11C34C00F2D10E090E09C01D5
:10188000C29FC001C39F900DD29F900D1124E09183
:101890003801F0913901E00FF11FE80FF91F808145
:1018A0007ADFE0913801F09139018091290190E0CF
:1018B000C89FD001C99FB00DD89FB00D1124E00F73
:1018C000F11FAE0FBF1FAC01C49EC001C59E900D9D
:1018D000D49E900D1124E80FF91F80818C93F3940E
:1018E00080912901F81640F2E60160912801862FC7
:1018F00090E00297C817D9070CF4B5CF623008F40E
:101900003EC0625080E0FDDEFF2440E2D42E33C0B2
:101910000F2D10E08091280190E0029730E0AC019B
:10192000429FC001439F900D529F900D1124E09162
:101930003801F0913901E00FF11FE80FF91F8081A4
:101940002ADF2091280130E0225030408091290187
:1019500090E0AC01249FC001259F900D349F900D15
:101960001124E0913801F0913901E00FF11FE80FE7
:10197000F91FD082F39420912901F21648F2609168
:101980002801615080E0BDDE00E003C080E203DF9B
:101990000F5F809129010817C8F303C04F5F409380
:1019A0003A0110923B0180913B0160913A01A9DE1E
:1019B0002E2D332727FD3095C901CDB7DEB7E8E0DE
:1019C000BEC560E041E048CE282F809141018823C8
:1019D00091F481E08093410187B1837D87B988B11B
:1019E0008C6288B985E090E06F9364E06A95F1F7C6
:1019F0006F910197C9F786B18095822308951F934F
:101A0000CF93DF93182F80914101882391F481E0D7
:101A10008093410187B1837D87B988B18C6288B991
:101A200085E090E06F9364E06A95F1F76F9101971C
:101A3000C9F7C12FD0E086B190E08C239D23892B7C
:101A4000D1F38AE090E093D486B190E08C239D237B
:101A5000892B89F386B18123DF91CF911F9108955E
:101A6000CECF08951F93CF93DF93182F809141011C
:101A7000882391F481E08093410187B1837D87B908
:101A800088B18C6288B985E090E06F9364E06A95D4
:101A9000F1F76F910197C9F7C12FD0E086B190E0BF
:101AA000809590958C239D23892BC1F38AE090E04B
:101AB0005ED486B190E0809590958C239D23892BF0
:101AC00069F386B180958123DF91CF911F910895AD
:101AD000C9CF08951F920F920FB60F9211242F9322
:101AE0003F934F935F936F938F939F93AF93BF9366
:101AF000CF93DF93EF93FF93909160019F5F977077
:101B00009093600140E053E023C0292F30E08091A2
:101B100061019091620120FF0BC0459FF0011124EB
:101B2000E80FF91FA081B1818C919281892B0BC0A4
:101B3000459FF0011124E80FF91FA081B1819C910C
:101B40008281809589238C9335952795922F4F5FBD
:101B500080915D014817C8F2609160016F5F677006
:101B600080915E01681728F0109289001092880019
:101B70004AC0862F90E0880F991FA0915101B09123
:101B80005201A80FB91F2D913C911197E091590175
:101B9000F0915A01E80FF91F40815181411551051B
:101BA00019F12115310501F1E0915501F09156012E
:101BB000E80FF91F0190F081E02D3097A9F02E1762
:101BC0003F0740F4CA01820F931F8E179F07A8F4A6
:101BD000FC0113C0CF01840F951F2817390768F047
:101BE000F901E41BF50B09C0E0915501F091560194
:101BF000E80FF91F0190F081E02DF0938900E09348
:101C00008800ED93FC9380915F01681728F0109293
:101C10008B0010928A003DC0862F90E0880F991F9C
:101C2000C0915301D0915401C80FD91F48815981E7
:101C3000E0915B01F0915C01E80FF91F0190F081E8
:101C4000E02DA0915701B09158013097C1F0A80F35
:101C5000B91F2D913C914217530738F4E40FF51F3B
:101C6000E217F30780F49F010EC0C9018E0F9F1F7A
:101C70004817590740F09A012E1B3F0B04C0A80FCC
:101C8000B91F2D913C9130938B0020938A003983AA
:101C900028839091600180915F01981788F483E018
:101CA000989FC0011124E0916301F0916401E80F55
:101CB000F91FA081B1819C918281809589238C93A9
:101CC000FF91EF91DF91CF91BF91AF919F918F9154
:101CD0006F915F914F913F912F910F900FBE0F9099
:101CE0001F9018951F920F920FB60F9211248F9389
:101CF0009F93AF93BF93EF93FF9390916001809177
:101D00005F01981780F483E0989FC0011124E0914F
:101D10006301F0916401E80FF91FA081B1818C91FA
:101D2000928189278C93FF91EF91BF91AF919F9101
:101D30008F910F900FBE0F901F901895982F809144
:101D40005F01981748F580916F008F7D80936F0039
:101D5000892F90E087709070880F991FE09157014C
:101D6000F0915801E80FF91F9B0189E0633978076A
:101D700010F022E939E0C90153E0880F991F5A9504
:101D8000E1F7220F331F820F931F9183808380918D
:101D90006F00806280936F000895982F80915F019B
:101DA0009817F8F480916F008F7D80936F00892FD2
:101DB00090E087709070880F991FE0915B01F0911F
:101DC0005C01E80FF91FCB0121E6693A720710F0B8
:101DD00088EA91E69183808380916F00806280938E
:101DE0006F0008958091610190916201009731F038
:101DF0000E941A03109262011092610180915101B8
:101E000090915201009731F00E941A0310925201F2
:101E1000109251018091550190915601009731F037
:101E20000E941A0310925601109255018091590197
:101E300090915A01009731F00E941A0310925A01B2
:101E4000109259018091630190916401009731F0E3
:101E50000E941A0310926401109263018091530151
:101E600090915401009731F00E941A03109254018E
:101E7000109253018091570190915801009731F0D1
:101E80000E941A03109258011092570180915B0131
:101E900090915C01009731F00E941A0310925C014E
:101EA00010925B01089510926F00109280001092C2
:101EB000810020E033E011C0239FC0011124E09194
:101EC0006301F0916401E80FF91FA081B1819C9139
:101ED0008281809589238C932F5F80915F012817E1
:101EE00058F380CFE0CF0895A0E0B0E0E9E7FFE04D
:101EF00007C3082FE92EC42E952E10926F00109262
:101F00004E0181E080932A011092500110924F01FE
:101F100010928100F62E83E0861710F483E0F82EED
:101F2000F0925D0181E090E00F2C02C0880F991FB4
:101F30000A94E2F780935E015D98559A82E8809357
:101F40008000D22EE8E0E21710F418E0D12ED092F3
:101F50005F0148DF13E0F19EC00111240E9470026E
:101F6000809361019093620180915E0190E0880FFF
:101F7000991F0E94700280935101909352018091A9
:101F80005E0190E0880F991F0E94700280935501B6
:101F90009093560180915E0190E0880F991F0E94F6
:101FA00070029C0190935A018093590180916101C4
:101FB00090916201892B09F460C080915101909148
:101FC0005201892B09F459C0809155019091560115
:101FD000892B09F452C0232B09F44FC0DD2069F48A
:101FE000802F9E2D9C01B90130E040E050E0EFE1F0
:101FF000AE2EB12C01E010E0A0C0D19EC001112492
:102000000E947002809363019093640180915F014C
:1020100090E0880F991F0E94700280935301909363
:10202000540180915F0190E0880F991F0E94700217
:10203000809357019093580180915F0190E0880F41
:10204000991F0E9470029C0190935C0180935B0138
:102050008091630190916401892B79F08091530103
:1020600090915401892B49F080915701909158012A
:10207000892B19F0232B09F0B3CFB4DE81E028C1FE
:10208000C0916101D0916201C40FD51FFB01808115
:10209000883060F4F80102C0EE0FFF1F8A95E2F766
:1020A0002E2FEBE2F0E0AAE2B0E037C0803170F40E
:1020B00090E00897F80102C0EE0FFF1F8A95E2F743
:1020C0002E2FE5E2F0E0A4E2B0E027C0883170F402
:1020D00090E04097F80102C0EE0FFF1F8A95E2F7EB
:1020E0002E2FE8E2F0E0A7E2B0E017C0803230F037
:1020F000E0E0F0E0A0E0B0E020E00FC0F501E81B78
:10210000F109CF01F80102C0EE0FFF1F8A95E2F737
:102110002E2FE2E2F0E0A1E2B0E08081922F9095D4
:10212000982390838C91822B8C93F983E8832A8364
:102130003F5F4D5F5F4F6F5F7F4F3F1508F4A0CF4C
:1021400020E01DC0822F90E0880F991FE09151017F
:10215000F0915201E80FF91F11821082E0915501B0
:10216000F0915601E80FF91F11821082E091590198
:10217000F0915A01E80FF91F118210822F5F8091B0
:102180005E012817F8F28C2D992D9C01890130E011
:1021900040E050E060E070E09FE1A92EB12C81E0CA
:1021A000E82EF12C77C0C0916301D0916401C60F75
:1021B000D71FF8018081883060F4F70102C0EE0F6C
:1021C000FF1F8A95E2F72E2FEBE2F0E0AAE2B0E0E3
:1021D00037C0803170F490E00897F70102C0EE0F2D
:1021E000FF1F8A95E2F72E2FE5E2F0E0A4E2B0E0CF
:1021F00027C0883170F490E04097F70102C0EE0FDD
:10220000FF1F8A95E2F72E2FE8E2F0E0A7E2B0E0A8
:1022100017C0803230F0E0E0F0E0A0E0B0E020E075
:102220000FC0F501E81BF109CF01F70102C0EE0F65
:10223000FF1F8A95E2F72E2FE2E2F0E0A1E2B0E084
:102240009081822F8095892380838C91822B8C931F
:10225000F983E8832A83E0915301F0915401E40F5C
:10226000F51F11821082E0915701F0915801E40F9F
:10227000F51F11821082E0915B01F0915C01E40F87
:10228000F51F118210823F5F4E5F5F4F6D5F7F4F82
:102290000F5F1F4F3D1508F486CF1092600181E15A
:1022A0008093810088EA91E690938700809386006E
:1022B0008FEF86BB80916F00806280936F00DD207E
:1022C00029F080916F00846080936F00789480E0A3
:1022D000CDB7DEB7EBE030C107CE08952F928F93D4
:1022E0009F932FB68091660190916701019680932C
:1022F00066019093670190E080916801891F809347
:10230000680190916E019C5F90936E0180916D01C8
:1023100080519742C0F090936E0180936D0180913F
:10232000690190916A0101968093690190936A0115
:1023300090E080916B01891F80936B0180916C010B
:10234000891F80936C012FBE9F918F912F901895BC
:1023500028EE33E009C0F9016F9364E06A95F1F764
:102360006F913197C9F701970097A9F7089528EE63
:1023700033E009C0F9016F9364E06A95F1F76F915A
:102380003197C9F701970097A9F70895A0E7B0E042
:102390008C918E7F8C93E0EBF0E080818360808372
:1023A000E1EBF0E08081807F8083808182608083A8
:1023B000B89A8C9181608C937894089580916F0184
:1023C000882321F481E080936F01E0CF0895F6DF48
:1023D000E0E7F0E080818E7F808320916901309179
:1023E0006A0140916B0150916C0180818160808312
:1023F000B901CA010895EBCF0895629FD001739F80
:10240000F001829FE00DF11D649FE00DF11D929F90
:10241000F00D839FF00D749FF00D659FF00D9927CF
:10242000729FB00DE11DF91F639FB00DE11DF91FF3
:10243000BD01CF0111240895991B79E004C0991FB3
:10244000961708F0961B881F7A95C9F7809508950E
:10245000AA1BBB1B51E107C0AA1FBB1FA617B707CA
:1024600010F0A61BB70B881F991F5A95A9F78095E6
:102470009095BC01CD010895A1E21A2EAA1BBB1BA9
:10248000FD010DC0AA1FBB1FEE1FFF1FA217B30740
:10249000E407F50720F0A21BB30BE40BF50B661F56
:1024A000771F881F991F1A9469F76095709580951A
:1024B00090959B01AC01BD01CF01089597FB092EBA
:1024C00005260ED057FD04D0D7DF0AD0001C38F403
:1024D00050954095309521953F4F4F4F5F4F089550
:1024E000F6F790958095709561957F4F8F4F9F4F30
:1024F00008952F923F924F925F926F927F928F92A8
:102500009F92AF92BF92CF92DF92EF92FF920F9382
:102510001F93CF93DF93CDB7DEB7CA1BDB0B0FB68C
:10252000F894DEBF0FBECDBF09942A883988488849
:102530005F846E847D848C849B84AA84B984C884DF
:10254000DF80EE80FD800C811B81AA81B981CE0FD6
:10255000D11D0FB6F894DEBF0FBECDBFED010895BB
:10256000EE0FFF1F0590F491E02D0994F894FFCF32
:10257000467567756500507265737320610A6275F0
:1025800074746F6E00636465666761623E63000425
:102590000400D007F4010F0002100120007A0100AE
:0225A000000039
:00000001FF
