:100000003DC0000056C0000054C0000052C00000B7
:1000100050C000004EC000004CC000004AC00000AC
:1000200048C0000046C0000044C00000CDC200002F
:1000300040C000003EC000003CC000003AC00000CC
:1000400038C0000036C0000034C0000032C00000DC
:1000500030C000002EC000002CC000002AC00000EC
:1000600028C0000026C0000024C0000022C00000FC
:1000700020C000001EC000001CC0000011241FBED4
:10008000CFEFD8E0DEBFCDBF11E0A0E0B1E0E8E205
:10009000F9E002C005900D92AC32B107D9F711E03A
:1000A000ACE2B1E001C01D92AA35B107E1F702D080
:1000B00039C4A6CF2C98249A82E01FD3F6D14DD311
:1000C00081FF03C080E091E005C047D380FF03C0FB
:1000D00084E091E074D241D382FF06C084E060E006
:1000E000B6D188E091E06BD238D383FF06C088E0B8
:1000F00060E0ADD18CE091E062D22FD384FF06C0E6
:100100008CE060E0A4D180E191E059D280E061E030
:100110009ED184E191E053D284E886D0A0E0B0E0A3
:10012000BC01CD013ED284E690E088D2C7CFA0E0EA
:10013000B0E0209120013091210140E050E0BC016D
:10014000CD0178D39B01AC0180917C0085FF0BC071
:10015000B901CA0161587F4F8F4F9F4F2FEF30E099
:1001600040E050E00AC0B901CA0161507E4F8F4F94
:100170009F4F2FEF33E040E050E07BD3C90108955B
:1001800080912C01882329F080912D0190912E01DE
:10019000089580917C0085FF04C08091790090E0F3
:1001A000C6CF8091780090917900C1CF982F80328E
:1001B000D8F081E080932C01903811F4E8D20FC080
:1001C000913811F4DED20BC0923811F4D4D207C0AA
:1001D000933811F4CAD203C09438F1F4C0D290938A
:1001E0002E0180932D01089510922C0187E88093B1
:1001F0007A0080917C00282F2064662311F0806CA7
:1002000002C0822F8F77807E892B80937C00809123
:100210007A00806480937A00089560E0C7DF80915F
:100220007A0086FDFCCFACCFF8CF0895EF92FF9215
:100230000F931F9367B13D982898299AE090330156
:10024000F0903401009135011091360120E030E04A
:1002500041E050E0CA016F9364E06A95F1F76F9155
:100260000197C9F72A9ACA016F9364E06A95F1F77A
:100270006F910197C9F786B12A98FA016F9364E0EC
:100280006A95F1F76F913197C9F72A9AFA016F933E
:1002900064E06A95F1F76F913197C9F72A982C5F5E
:1002A0003F4F85FF09C0C901A0E0B0E08E159F0552
:1002B000A007B10708F4CECFC901A0E0B0E08E15C9
:1002C0009F05A007B10728F082E390E0A0E0B0E02E
:1002D00004C080E395E7A0E0B0E080933301909301
:1002E0003401A0933501B093360167B91F910F9186
:1002F000FF90EF9008953D98459A80E395E7A0E040
:10030000B0E08093330190933401A0933501B09312
:100310003601209A219A229A8EE190E09ED183E0C4
:1003200050D186E090E099D183E04BD182E090E01B
:1003300094D183E046D182E090E08FD182E041D138
:1003400082E090E08AD188E263D088E061D081E0E9
:100350005FD086E05DD08CE05BC080913701882360
:1003600021F481E080933701C6CF0895FF920F9367
:100370001F93082F162FF42EF0DF58DF37B128B166
:100380002998112311F0289A01C0289887B18C630D
:1003900087B981E0F816E1F088B1902F92959F70AF
:1003A000990F990F837C982B98B92A9A81E090E055
:1003B000FC016F9364E06A95F1F76F913197C9F78B
:1003C0002A986F9364E06A95F1F76F910197C9F7E6
:1003D00088B10F70000F000F837C802B88B92A9A98
:1003E00081E090E0FC016F9364E06A95F1F76F9112
:1003F0003197C9F72A986F9364E06A95F1F76F9186
:100400000197C9F737B928B91F910F91FF90089547
:1004100060E042E0ABCFA4E0B0E0E0E1F2E059C23E
:10042000182F062F80E8898380EC8A8384E98B83E8
:1004300084ED8C83FE01E60FF11D8181810FE8DFE1
:1004400010933201009331012496E4E05EC2E3CFC1
:10045000089581E0DDDF80912F0190913001892B9B
:1004600019F160E070E208C0E0912F01F0913001D5
:10047000E40FF51F70836F5F462F50E080912201DB
:1004800090E001972091230130E0FC01E29FC00140
:10049000E39F900DF29F900D11244817590724F304
:1004A00010923201109231010895D3CF089561E086
:1004B00042E05CCF6F927F928F929F92AF92BF92F9
:1004C000CF92DF92FF920F93DF93CF93CDB7DEB73A
:1004D0002A970FB6F894DEBF0FBECDBF5B016C014B
:1004E0000AE03E010894611C711CFA2CC601B5019A
:1004F0002AE030E040E050E0BCD1C901DA015C0103
:100500006D0101504301800E911C80E3F80EC6017D
:10051000B5012AE030E040E050E08CD1F61AF40159
:10052000F082A114B104C104D104F9F607C0F601A8
:10053000E00FF11D8081BBDF0F5F04C06E010894E6
:10054000C11CD11C0A3098F32A960FB6F894DEBF6E
:100550000FBECDBFCF91DF910F91FF90DF90CF9075
:10056000BF90AF909F908F907F906F900895EF9283
:10057000FF920F931F937B018C0197FF0AC0109588
:100580000095F094E094E11CF11C011D111D8DE219
:100590008EDFC801B7018EDF1F910F91FF90EF90A2
:1005A0000895E5CF0895CF93DF93EC0102C0219623
:1005B0007EDF88818823D9F7DF91CF910895F3CF2B
:1005C000089560E041E0D2CE2F928F939F932FB693
:1005D0008091390190913A0101968093390190936D
:1005E0003A0190E080913B01891F80933B019091FB
:1005F00041019C5F9093410180914001805197425D
:10060000C0F0909341018093400180913C01909112
:100610003D01019680933C0190933D0190E08091D3
:100620003E01891F80933E0180913F01891F809385
:100630003F012FBE9F918F912F90189528EE33E0A8
:1006400009C0F9016F9364E06A95F1F76F913197F2
:10065000C9F701970097A9F7089528EE33E009C07C
:10066000F9016F9364E06A95F1F76F913197C9F7DB
:1006700001970097A9F70895A0E7B0E08C918E7FCD
:100680008C93E0EBF0E0808183608083E1EBF0E02D
:100690008081807F8083808182608083B89A8C9102
:1006A00081608C937894089580914201882321F48D
:1006B00081E080934201E0CF0895F6DFE0E7F0E0CB
:1006C00080818E7F808320913C0130913D0140915B
:1006D0003E0150913F01808181608083B901CA0150
:1006E0000895982F80915901891731F090935901FD
:1006F000892F806C65E075C00895F3CF08958FEF62
:1007000064E06FC0CF93DF93D8DF20912801309150
:10071000290140912A0150912B0162177307840728
:100720009507A1F081E867E05CD0CCE4D1E0E7DF99
:10073000899381E0C935D807D1F7BFDF60932801DD
:100740007093290180932A0190932B01DF91CF911F
:100750000895D8DF80914C010895FBCF0895D2DF32
:1007600080915301909154010895CCDF8091510103
:10077000909152010895C6DF80914F0190915001F0
:100780000895C0DF80914D0190914E010895BADF28
:1007900080915501909156010895982F24990CC08D
:1007A0002C990AC02C9AEEE1F0E06F9364E06A9510
:1007B000F1F76F913197C9F784B1806A84B92698AF
:1007C000892F837080656C7A862B8CBD892F90E091
:1007D000969587959695879581708DBD81E090E07F
:1007E0003CCF0F931F93082F162F0CB406FC03C0A9
:1007F00080E064E0D2DF0CB404FC03C08CB58061FF
:100800008CBD0EBD05C00CB404FC02C080E00FC05E
:100810000DB407FEF8CF112349F0812F90E06F93BC
:1008200064E06A95F1F76F910197C9F78EB51F9152
:100830000F910895629FD001739FF001829FE00D98
:10084000F11D649FE00DF11D929FF00D839FF00D4F
:10085000749FF00D659FF00D9927729FB00DE11DFB
:10086000F91F639FB00DE11DF91FBD01CF011124D8
:100870000895A1E21A2EAA1BBB1BFD010DC0AA1FE1
:10088000BB1FEE1FFF1FA217B307E407F50720F0F9
:10089000A21BB30BE40BF50B661F771F881F991F74
:1008A0001A9469F760957095809590959B01AC01BD
:1008B000BD01CF0108952F923F924F925F926F92A8
:1008C0007F928F929F92AF92BF92CF92DF92EF92E0
:1008D000FF920F931F93CF93DF93CDB7DEB7CA1B61
:1008E000DB0B0FB6F894DEBF0FBECDBF09942A888C
:1008F000398848885F846E847D848C849B84AA8434
:10090000B984C884DF80EE80FD800C811B81AA81C0
:10091000B981CE0FD11D0FB6F894DEBF0FBECDBF8B
:08092000ED010895F894FFCFEA
:1009280055534200757362005355530044545200A6
:10093800525453004368616E6E656C20443A20003F
:0C09480088130210FFFFFFFFFFFFFFFFFE
:00000001FF
