:100000003DC0000056C0000054C0000052C00000B7
:1000100050C000004EC000004CC000004AC00000AC
:1000200048C0000046C0000044C00000BFC200003D
:1000300040C000003EC000003CC000003AC00000CC
:1000400038C0000036C0000034C0000032C00000DC
:1000500030C000002EC000002CC000002AC00000EC
:1000600028C0000026C0000024C0000022C00000FC
:1000700020C000001EC000001CC0000011241FBED4
:10008000CFEFD8E0DEBFCDBF11E0A0E0B1E0ECE003
:10009000F8E002C005900D92A834B107D9F711E03D
:1000A000A8E4B1E001C01D92A936B107E1F702D082
:1000B000ABC3A6CFEF92FF920F931F93CF93DF9323
:1000C00004B714BE88E10FB6F894809360001092D4
:1000D00060000FBEC1D180E091E048D210E086E917
:1000E00090E09ED285E091E041D21F5F1430B9F7D5
:1000F0008CE291E095D22FE088E190E00FB6F89481
:10010000A895809360000FBE20936000A5D103FFE7
:1001100003C087E091E011C002FF03C080E191E0DD
:100120000CC001FF03C089E191E007C000FF03C0DC
:1001300082E291E002C08CE291E018D280E061E0BE
:100140005DD181E391E012D2A895BDD27B018C01F3
:100150003EC0B9D2E701C61BD70BC053D84F80E0D1
:1001600061E04CD18AE391E001D2D7FF03C08EE376
:1001700091E02CC0CE0168EE73E0C6D2882777FDEF
:100180008095982FE5D185E091E0F0D1CE0164E62D
:1001900070E0BAD2CB016AE070E0B6D2AA2797FD30
:1001A000A095BA2FBC01CD01D3D1CE016AE070E099
:1001B000ABD2CB016AE070E0A7D2AA2797FDA09549
:1001C000BA2FBC01CD01C4D184E491E0CFD18CE23F
:1001D000D2D1882309F4B2CFBCCFEF92FF920F9314
:1001E0001F9367B13D982898299AE0904C01F090B0
:1001F0004D0100914E0110914F0120E030E041E0AF
:1002000050E0CA016F9364E06A95F1F76F9101972E
:10021000C9F72A9ACA016F9364E06A95F1F76F9162
:100220000197C9F786B12A98FA016F9364E06A953D
:10023000F1F76F913197C9F72A9AFA016F9364E049
:100240006A95F1F76F913197C9F72A982C5F3F4F64
:1002500085FF09C0C901A0E0B0E08E159F05A00789
:10026000B10708F4CECFC901A0E0B0E08E159F051C
:10027000A007B10728F082E390E0A0E0B0E004C05E
:1002800080E395E7A0E0B0E080934C0190934D01AE
:10029000A0934E01B0934F0167B91F910F91FF904A
:1002A000EF9008953D98459A80E395E7A0E0B0E08F
:1002B00080934C0190934D01A0934E01B0934F0158
:1002C000209A219A229A8EE190E0B9D183E050D110
:1002D00086E090E0B4D183E04BD182E090E0AFD1F2
:1002E00083E046D182E090E0AAD182E041D182E071
:1002F00090E0A5D188E263D088E061D081E05FD052
:1003000086E05DD08CE05BC080915001882321F4B1
:1003100081E080935001C6CF0895FF920F931F9301
:10032000082F162FF42EF0DF58DF37B128B12998A7
:10033000112311F0289A01C0289887B18C6387B9DE
:1003400081E0F816E1F088B1902F92959F70990F97
:10035000990F837C982B98B92A9A81E090E0FC0150
:100360006F9364E06A95F1F76F913197C9F72A9816
:100370006F9364E06A95F1F76F910197C9F788B1BF
:100380000F70000F000F837C802B88B92A9A81E0C0
:1003900090E0FC016F9364E06A95F1F76F913197FB
:1003A000C9F72A986F9364E06A95F1F76F91019706
:1003B000C9F737B928B91F910F91FF90089560E0F0
:1003C00042E0ABCFA4E0B0E0E7EEF1E0E0C1182FEF
:1003D000062F80E8898380EC8A8384E98B8384ED0F
:1003E0008C83FE01E60FF11D8181810FE8DF109300
:1003F0004B0100934A012496E4E0E5C1E3CF089560
:1004000081E0DDDF8091480190914901892B19F14C
:1004100060E070E208C0E0914801F0914901E40F0A
:10042000F51F70836F5F462F50E08091460190E08A
:1004300001972091470130E0FC01E29FC001E39F5A
:10044000900DF29F900D11244817590724F3109234
:100450004B0110924A010895D3CF089561E042E024
:100460005CCF6F927F928F929F92AF92BF92CF920A
:10047000DF92FF920F93DF93CF93CDB7DEB72A972A
:100480000FB6F894DEBF0FBECDBF5B016C010AE072
:100490003E010894611C711CFA2CC601B5012AE0CA
:1004A00030E040E050E043D1C901DA015C016D0168
:1004B00001504301800E911C80E3F80EC601B50186
:1004C0002AE030E040E050E000D1F61AF401F0827A
:1004D000A114B104C104D104F9F607C0F601E00F7C
:1004E000F11D8081BBDF0F5F04C06E010894C11C49
:1004F000D11C0A3098F32A960FB6F894DEBF0FBECF
:10050000CDBFCF91DF910F91FF90DF90CF90BF9043
:10051000AF909F908F907F906F900895EF92FF9291
:100520000F931F937B018C0197FF0AC010950095D4
:10053000F094E094E11CF11C011D111D8DE28EDF91
:10054000C801B7018EDF1F910F91FF90EF900895C2
:10055000E5CF0895CF93DF93EC0102C021967EDFB3
:1005600088818823D9F7DF91CF910895F3CF08953B
:1005700060E041E0D2CE282F80915101882391F490
:1005800081E08093510187B1837D87B988B18C6206
:1005900088B985E090E06F9364E06A95F1F76F9118
:1005A0000197C9F786B18095822308952F928F9382
:1005B0009F932FB680915F01909160010196809387
:1005C0005F019093600190E080916101891F8093A9
:1005D0006101909167019C5F909367018091660132
:1005E00080519742C0F0909367018093660180919B
:1005F000620190916301019680936201909363017F
:1006000090E080916401891F80936401809165016D
:10061000891F809365012FBE9F918F912F90189510
:1006200028EE33E009C0F9016F9364E06A95F1F7B1
:100630006F913197C9F701970097A9F7089528EEB0
:1006400033E009C0F9016F9364E06A95F1F76F91A7
:100650003197C9F701970097A9F70895A0E7B0E08F
:100660008C918E7F8C93E0EBF0E0808183608083BF
:10067000E1EBF0E08081807F8083808182608083F5
:10068000B89A8C9181608C937894089580916801D8
:10069000882321F481E080936801E0CF0895F6DF9C
:1006A000E0E7F0E080818E7F8083209162013091CD
:1006B0006301409164015091650180818160808374
:1006C000B901CA010895EBCF0895629FD001739FCD
:1006D000F001829FE00DF11D649FE00DF11D929FDE
:1006E000F00D839FF00D749FF00D659FF00D99271D
:1006F000729FB00DE11DF91F639FB00DE11DF91F41
:10070000BD01CF011124089597FB092E07260AD0B9
:1007100077FD04D065D006D000201AF4709561955D
:100720007F4F0895F6F7909581959F4F0895A1E228
:100730001A2EAA1BBB1BFD010DC0AA1FBB1FEE1F5B
:10074000FF1FA217B307E407F50720F0A21BB30BA6
:10075000E40BF50B661F771F881F991F1A9469F722
:1007600060957095809590959B01AC01BD01CF017E
:1007700008952F923F924F925F926F927F928F9245
:100780009F92AF92BF92CF92DF92EF92FF920F9320
:100790001F93CF93DF93CDB7DEB7CA1BDB0B0FB62A
:1007A000F894DEBF0FBECDBF09942A8839884888E7
:1007B0005F846E847D848C849B84AA84B984C8847D
:1007C000DF80EE80FD800C811B81AA81B981CE0F74
:1007D000D11D0FB6F894DEBF0FBECDBFED01089559
:1007E000AA1BBB1B51E107C0AA1FBB1FA617B70757
:1007F00010F0A61BB70B881F991F5A95A9F7809573
:0C0800009095BC01CD010895F894FFCF45
:10080C00626F6F74002E005741544348444F4700A9
:10081C0042524F574E4F55540045585445524E4135
:10082C004C00504F5745522D4F4E20006E6F6E6549
:10083C000020425554544F4E200057442000302E77
:08084C0030307300730002104C
:00000001FF
