:1000000045C0000060C000005EC000005CC0000091
:100010005AC0000058C0000056C0000054C0000084
:1000200052C0000050C000004EC00000D8C1000007
:100030004AC0000048C0000046C0000044C00000A4
:1000400042C0000040C000003EC000003CC00000B4
:100050003AC0000038C0000036C0000034C00000C4
:1000600032C0000030C000002EC000002CC00000D4
:100070002AC0000028C0000026C0000024C00000E4
:1000800022C0000020C000001EC0000011241FBEBE
:10009000CFEFD0E4DEBFCDBF11E0A0E0B1E0E0E003
:1000A000F5E000E00BBF02C007900D92A830B10749
:1000B000D9F711E0A8E0B1E001C01D92AC31B10761
:1000C000E1F702D01BC29CCF80E091E069D188ECBF
:1000D00090E0BFD181E063E048EC50E07ED14FD1A9
:1000E00083E061E01ED180E091E05AD188EC90E09D
:1000F000B0D180E063E048EC50E06FD140D1E4CF74
:10010000EF92FF920F931F9367B13D982898299A19
:10011000E0900C01F0900D0100910E0110910F0183
:1001200020E030E041E050E0CA016F9364E06A955E
:10013000F1F76F910197C9F72A9ACA016F9364E0AA
:100140006A95F1F76F910197C9F786B12A98FA017C
:100150006F9364E06A95F1F76F913197C9F72A9A26
:10016000FA016F9364E06A95F1F76F913197C9F7DF
:100170002A982C5F3F4F85FF09C0C901A0E0B0E07D
:100180008E159F05A007B10708F4CECFC901A0E0E6
:10019000B0E08E159F05A007B10728F082E390E03C
:1001A000A0E0B0E004C080E395E7A0E0B0E0809379
:1001B0000C0190930D01A0930E01B0930F0167B94C
:1001C0001F910F91FF90EF9008953D98459A80E31D
:1001D00095E7A0E0B0E080930C0190930D01A0930F
:1001E0000E01B0930F01209A219A229A8EE190E09D
:1001F0003FD183E0D7D086E090E03AD183E0D2D0FF
:1002000082E090E035D183E0CDD082E090E030D143
:1002100082E0C8D082E090E02BD188E263D088E011
:1002200061D081E05FD086E05DD08CE05BC08091E2
:100230001001882321F481E080931001C6CF089536
:10024000FF920F931F93082F162FF42EF0DF58DF25
:1002500037B128B12998112311F0289A01C02898A4
:1002600087B18C6387B981E0F816E1F088B1902FEF
:1002700092959F70990F990F837C982B98B92A9A21
:1002800081E090E0FC016F9364E06A95F1F76F9173
:100290003197C9F72A986F9364E06A95F1F76F91E7
:1002A0000197C9F788B10F70000F000F837C802B76
:1002B00088B92A9A81E090E0FC016F9364E06A9526
:1002C000F1F76F913197C9F72A986F9364E06A95B7
:1002D000F1F76F910197C9F737B928B91F910F91BD
:1002E000FF90089560E042E0ABCFA4E0B0E0EAE721
:1002F000F1E0DBC0182F062F80E8898380EC8A8329
:1003000084E98B8384ED8C83FE01E60FF11D8181EE
:10031000810FE8DF10930B0100930A012496E4E0BB
:10032000E0C0E3CF089581E0DDDF80910801909186
:100330000901892B19F160E070E208C0E091080121
:10034000F0910901E40FF51F70836F5F462F50E0B5
:100350008091060190E001972091070130E0FC01B7
:10036000E29FC001E39F900DF29F900D112448176A
:10037000590724F310920B0110920A010895D3CF6C
:10038000089561E042E05CCFCF93DF93EC0102C0BF
:100390002196F7DF88818823D9F7DF91CF910895DF
:1003A000F3CF089560E041E04BCF0F931F93CF93BD
:1003B000DF93082F162FEA0109C0002311F488E10A
:1003C00001C08CE18FDFCE0153D011501123A9F76A
:1003D000DF91CF911F910F910895E7CF08952F924C
:1003E0008F939F932FB680911201909113010196E4
:1003F000809312019093130190E080911401891F62
:100400008093140190911A019C5F90931A0180913E
:10041000190180519742C0F090931A0180931901FD
:10042000809115019091160101968093150190938A
:10043000160190E080911701891F80931701809128
:100440001801891F809318012FBE9F918F912F90C3
:10045000189528EE33E009C0F9016F9364E06A95BE
:10046000F1F76F913197C9F701970097A9F70895B0
:1004700028EE33E009C0F9016F9364E06A95F1F763
:100480006F913197C9F701970097A9F708952F92B7
:100490003F924F925F926F927F928F929F92AF9214
:1004A000BF92CF92DF92EF92FF920F931F93CF9361
:1004B000DF93CDB7DEB7CA1BDB0B0FB6F894DEBFF8
:1004C0000FBECDBF09942A88398848885F846E841E
:1004D0007D848C849B84AA84B984C884DF80EE8068
:1004E000FD800C811B81AA81B981CE0FD11D0FB671
:1004F000F894DEBF0FBECDBFED010895F894FFCF95
:0805000048656C6C6F000210ED
:00000001FF
