:1000000045C0000060C000005EC000005CC0000091
:100010005AC0000058C0000056C0000054C0000084
:1000200052C0000050C000004EC00000D2C000000E
:100030004AC0000048C0000046C0000044C00000A4
:1000400042C0000040C000003EC000003CC00000B4
:100050003AC0000038C0000036C0000034C00000C4
:1000600032C0000030C000002EC000002CC00000D4
:100070002AC0000028C0000026C0000024C00000E4
:1000800022C0000020C000001EC0000011241FBEBE
:10009000CFEFD0E4DEBFCDBF11E0A0E0B1E0E8E6F5
:1000A000F2E000E00BBF02C007900D92A030B10754
:1000B000D9F711E0A0E0B1E001C01D92AB30B1076B
:1000C000E1F770D0CFC09CCF482F883068F481E032
:1000D00090E002C0880F991F4A95E2F7282FAAE204
:1000E000B0E0EBE2F0E03EC0803188F4282F30E051
:1000F0002850304081E090E002C0880F991F2A9577
:10010000E2F7282FA4E2B0E0E5E2F0E02BC088316E
:1001100088F4282F30E02051304081E090E002C088
:10012000880F991F2A95E2F7282FA7E2B0E0E8E2AE
:10013000F0E018C0803230F020E0A0E0B0E0E0E075
:10014000F0E010C02FE130E0281B310981E090E0A1
:1001500002C0880F991F2A95E2F7282FA1E2B0E08C
:10016000E2E2F0E06F3F19F48081822709C0662344
:1001700019F08081822B04C09081822F8095892381
:1001800080838C91822B8C9308958F3F19F481E0AA
:100190006FEF07C0882319F481E061E002C081E0BD
:1001A00060E092CF81E0F1DF88EE93E04CD080E018
:1001B000ECDF88EE93E047D084E161E085DF84EFF7
:1001C00091E041D084E160E07FDF84EF91E03BD0BB
:1001D000E9CF2F928F939F932FB680910101909139
:1001E00002010196809301019093020190E08091B9
:1001F0000301891F80930301909109019C5F9093F3
:1002000009018091080180519742C0F09093090143
:1002100080930801809104019091050101968093DB
:1002200004019093050190E080910601891F80935D
:10023000060180910701891F809307012FBE9F91BE
:100240008F912F90189528EE33E009C0F9016F9334
:1002500064E06A95F1F76F913197C9F701970097BC
:08026000A9F70895F894FFCFFF
:00000001FF
