:1000000051C000006DC000006BC0000069C000005E
:1000100076C7000074C7000072C7000070C70000F8
:100020005FC000005DC000005BC000000C94D109FF
:1000300057C0000055C0000053C000005AC5000062
:100040004FC000004DC000004BC0000049C0000080
:1000500047C0000045C0000043C0000041C0000090
:100060003FC000003DC000003BC0000039C00000A0
:1000700037C0000035C0000033C0000031C00000B0
:100080002FC000002DC000002BC00000F002F602BF
:10009000F902FC02FF020203050308030B030E032F
:1000A0001103140311241FBECFEFD0E4DEBFCDBF78
:1000B00011E0A0E0B1E0E4E7F6E100E00BBF02C030
:1000C00007900D92A63AB107D9F711E0A6EAB1E080
:1000D00001C01D92AA3CB107E1F703D00C94380B84
:1000E0008FCFA5E0B0E0E7E7F0E00C94FB0A92D6F2
:1000F00082E991E061E00E94CD0980E091E0F7D4CF
:1001000092E0292E312C2C0E3D1E2E010894411C0C
:10011000511C80E0B101A2010E94AC086A817B8180
:100120008C819D810E94CF09605E7349844090401C
:10013000D8F08981813061F480E060E03DD68EE5C1
:1001400091E0D8D680E061E037D689E691E054C0EE
:1001500080E060E031D689E691E0CCD680E061E0D5
:100160002BD684E791E048C080E0B8D7882389F295
:1001700080E0B2D7882369F280E054D73B014C017C
:1001800080E06AD75B016C01A60CB71CC81CD91CA7
:1001900080E060E011D660EA75E286E290E0A601B8
:1001A00095010E94BE0ACA01B90196D68FE791E077
:1001B000A1D680E061E000D689E891E09BD6860177
:1001C000750116950795F794E794C401B30124E6E9
:1001D00030E040E050E00E947F0AE60EF71E081F64
:1001E000191FC801B701A60195010E94BE0ACA01E4
:1001F000B90172D68EE891E07DD68BCFCF93DF9395
:10020000BC018230910510F462E070E0A091C80159
:10021000B091C901ED01E0E0F0E040E050E021C024
:10022000888199818617970769F48A819B81309725
:1002300019F09383828304C09093C9018093C8010D
:10024000FE0134C06817790738F44115510519F0DB
:100250008417950708F4AC01FE018A819B819C01FB
:10026000E9012097E9F641155105A9F1CA01861B5C
:10027000970B049708F4BA01E0E0F0E02AC08D91F2
:100280009C91119784179507F9F46417750781F409
:1002900012968D919C911397309719F093838283D6
:1002A00004C09093C9018093C801FD0132964CC0EF
:1002B000CA01861B970BFD01E80FF91F619371932B
:1002C00002978D939C9340C0FD01828193819C0194
:1002D000D9011097A1F68091C6019091C701892B91
:1002E00041F48091A1019091A2019093C701809364
:1002F000C6014091A3015091A4014115510541F45B
:100300004DB75EB780919F019091A001481B590B9A
:100310002091C6013091C701CA01821B930B861739
:10032000970780F0AB014E5F5F4F8417950750F041
:10033000420F531F5093C7014093C601F9016193C7
:10034000719302C0E0E0F0E0CF01DF91CF9108951A
:10035000CF93DF93009709F450C0EC0122971B82E2
:100360001A82A091C801B091C901109709F140E02B
:1003700050E0AC17BD0708F1BB83AA83FE012191B1
:100380003191E20FF31FAE17BF0779F48D919C9165
:100390001197280F391F2E5F3F4F398328831296FC
:1003A0008D919C9113979B838A834115510571F41C
:1003B000D093C901C093C80120C012968D919C9121
:1003C0001397AD01009711F0DC01D3CFFA01D3836D
:1003D000C28321913191E20FF31FCE17DF0769F439
:1003E00088819981280F391F2E5F3F4FFA01318391
:1003F00020838A819B8193838283DF91CF910895AB
:10040000A0E0B0E0E6E0F2E00C94030BFC015B013D
:10041000C42E8091B8018823C9F481E08093B8018B
:1004200010926F0083E28093800081E180938100CD
:100430001092820080E197E2909389008093880077
:1004400010928B0010928A00549A789410929E0118
:10045000F7FD03C0DD24D39403C0FF772AE0D22E3A
:1004600080918100082F10E0087F107088ECD89EE2
:10047000C00111248E179F07C0F4EF0187E2E1311C
:10048000F80710F0C0E1D7E2BE017695679580E0ED
:1004900090E06058794687469F4F9E0140E050E0CB
:1004A0000E94BE0A7901016024C088E2D89E802D96
:1004B0001124C82FD0E0CE17DF0708F4EF01BE01EA
:1004C000769567959E0140E050E08AE0D81639F4B1
:1004D00080E090E0605E734481449F4F06C080E0FE
:1004E00090E060537D4E8C4E9F4F0E94BE0A790172
:1004F00002608AE0D81639F4CE0105966AE070E011
:100500000E94AA0AEB0183E0C83ED80711F4B501A6
:100510000EC0BE0180E090E0950140E050E0EFD7D2
:1005200028EE33E040E050E00E94E00AB90110926A
:100530006F0000938100F0928900E0928800E091C2
:100540008800F0918900AC2DA03108F0AFE080E187
:1005500090E08A1B910902C0F695E7958A95E2F72B
:10056000F0938B00E0938A007093AB016093AA0133
:1005700086B38FEF86BB81E080936F00CDB7DEB787
:10058000EAE00C941F0BCF93DF93EB018F3F11F048
:10059000442329F488EE93E0BE0140E065C0813138
:1005A00010F420E005C0282F2051203608F02FE558
:1005B000822F6CE0C3D7382F682F70E084EF9FEF55
:1005C000689FF001699FF00D789FF00D1124E20FF4
:1005D000F11DEC30F10538F4EA5BFF4F0C94320B5F
:1005E0008CE991E023C080E090E020C085EB91E0B1
:1005F0001DC08FEC91E01AC08AEE91E017C087E031
:1006000092E014C086E292E011C087E492E00EC04E
:1006100089E692E00BC08EE892E008C085EB92E09C
:1006200005C08EED92E002C08AE093E0373071F0B1
:1006300002C0880F991F6A95E2F7323020F00596C4
:100640006AE070E00BC0805090480AC036E0880F26
:10065000991F3A95E1F7029665E070E07BD7CB01F0
:10066000403108F04FE0BE01CBDEDF91CF9108951D
:100670003091A801E091B901F091BA01332311F052
:10068000249101C02081822F81548A3108F4205E98
:10069000203259F48091B9019091BA01019690935A
:1006A000BA018093B901019729F7822F0895CF935A
:1006B000DF93DEDF282FC0E0D0E01CC0CE0153E086
:1006C000880F991F5A95E1F7CC0FDD1FC80FD91F6E
:1006D000822F992787FD9095C80FD91FE0978091A9
:1006E000B9019091BA0101969093BA018093B90132
:1006F000BFDF282F822F80538A3000F3CE01DF9195
:10070000CF910895A0E0B0E0E7E8F3E07AC78090E9
:100710009301B090A601BB2021F06091A701662350
:1007200099F4A090A7010091980110919901E0908F
:100730009401F0909501C0919601D0919701C090DD
:100740009A01D0909B0103C18FEF70E040E01BDF66
:100750001092A701BDC194E0892EBB2404EF11E0E3
:1007600084E0E82EF12CC0EDD7E0B4E09B2EAFE0A2
:10077000CA2ED12C7DDF282F8091B9019091BA012A
:1007800001969093BA018093B901263609F498C076
:100790002736CCF42236A1F1233674F42E3361F1DE
:1007A0002F3334F42132B9F22C3309F004C126C0BE
:1007B000213609F000C11AC1243609F451C025368A
:1007C0000CF066C035C02F3609F4BFC0203754F492
:1007D0002C3609F4A5C02D3609F4A5C0273609F03A
:1007E000EAC086C0243709F4CEC0263709F4E0C039
:1007F000223709F0E0C0ADC08394BCCF8A94BACF51
:10080000A092A701B092A6011093990100939801BC
:10081000F0929501E0929401D0939701C0939601D4
:1008200090929301D0929B01C0929A012BE0F5C067
:10083000A092A701B092A60110939901009398018C
:10084000F0929501E0929401D0939701C0939601A4
:1008500090929301D0929B01C0929A0120E0DDC05A
:10086000A092A701B092A60110939901009398015C
:10087000F0929501E0929401D0939701C093960174
:1008800090929301D0929B01C0929A0122E0C5C040
:10089000A092A701B092A60110939901009398012C
:1008A000F0929501E0929401D0939701C093960144
:1008B00090929301D0929B01C0929A0124E0ADC026
:1008C000A092A701B092A6011093990100939801FC
:1008D000F0929501E0929401D0939701C093960114
:1008E00090929301D0929B01C0929A0125E095C00D
:1008F000A092A701B092A6011093990100939801CC
:10090000F0929501E0929401D0939701C0939601E3
:1009100090929301D0929B01C0929A0127E07DC0F2
:10092000C6DE7C0140C0A4DE8C3611F4BB2403C0BB
:10093000AA24BB24B3948091B9019091BA01019685
:100940009093BA018093B90115CFB1DE882E982C0F
:1009500011CFA092A701B092A60110939901009324
:100960009801F0929501E0929401D0939701C09381
:10097000960190929301D0929B01C0929A0120E03F
:10098000FF24F3944BC093DEBC0180EC9DE5E2D5DF
:10099000CB01EB01F3E0CC0FDD1FFA95E1F7880FF7
:1009A000991FC80FD91FCE01B701D4D58B01E2CE54
:1009B0007EDE6C01DFCEA092A701B092A60110935B
:1009C000990100939801F0929501E0929401D093DF
:1009D0009701C093960190929301D0929B01C0928F
:1009E0009A011092BA011092B90172C0A092A701A7
:1009F000B092A6011093990100939801F09295018D
:100A0000E0929401D0939701C09396019092930144
:100A1000D0929B01C0929A0129E0FF248CE0889E2D
:100A2000C0011124E22EE80E0AC08091B901909114
:100A3000BA0101969093BA018093B901E39418DE4C
:100A40008B3299F3833289F30BC08091B901909175
:100A5000BA0101969093BA018093B901EA9408DE35
:100A60008D3299F3C0919801D091990181538830CA
:100A700048F4009196011091970119DEBC01C8015C
:100A800069D5EB018E010BC08091B9019091BA013B
:100A900001969093BA018093B901C00FD11F1695AA
:100AA0000795E6DD8E3281F38091A601882339F027
:100AB000CE01969587958093A701C81BD109FF2089
:100AC00011F0EE24EA948E2DBE0140919A015BDD77
:100AD000CDB7DEB7ECE0B1C510926F009093BA01CC
:100AE0008093B9011092A8011092A7010BCEF4CF08
:100AF00008951F920F920FB60F920BB60F9211240A
:100B00002F933F934F935F936F937F938F939F9315
:100B1000AF93BF93EF93FF938091AA019091AB01A4
:100B200001979093AB018093AA01019609F5109269
:100B30006F00789480918100887F8160809381002C
:100B400080E197E2909389008093880010928B0057
:100B500010928A0081E080939E018091B90190916A
:100B6000BA01892B29F08091A901882309F4CADDF3
:100B7000FF91EF91BF91AF919F918F917F916F9175
:100B80005F914F913F912F910F900BBE0F900FBE31
:100B90000F901F901895EF92FF920F931F9367B1DC
:100BA0003D982898299AE090B001F090B101009109
:100BB000B2011091B30120E030E041E050E0CA0101
:100BC0006F9364E06A95F1F76F910197C9F72A9ADC
:100BD000CA016F9364E06A95F1F76F910197C9F7C5
:100BE00086B12A98FA016F9364E06A95F1F76F91E4
:100BF0003197C9F72A9AFA016F9364E06A95F1F781
:100C00006F913197C9F72A982C5F3F4F85FF09C034
:100C1000C901A0E0B0E08E159F05A007B10708F458
:100C2000CECFC901A0E0B0E08E159F05A007B107A7
:100C300028F082E390E0A0E0B0E004C080E395E714
:100C4000A0E0B0E08093B0019093B101A093B20115
:100C5000B093B30167B91F910F91FF90EF90089582
:100C60003D98459A80E395E7A0E0B0E08093B0011D
:100C70009093B101A093B201B093B301209A219A4D
:100C8000229A8EE190E0D7D383E036D186E090E0DF
:100C9000D2D383E031D182E090E0CDD383E02CD178
:100CA00082E090E0C8D382E027D182E090E0C3D315
:100CB00088E263D088E061D081E05FD086E05DD0DB
:100CC0008CE05BC08091B401882321F481E08093A3
:100CD000B401C6CF0895FF920F931F93082F162FCC
:100CE000F42EF0DF58DF37B128B12998112311F025
:100CF000289A01C0289887B18C6387B981E0F816DB
:100D0000E1F088B1902F92959F70990F990F837C95
:100D1000982B98B92A9A81E090E0FC016F9364E0E7
:100D20006A95F1F76F913197C9F72A986F9364E04C
:100D30006A95F1F76F910197C9F788B10F70000FAD
:100D4000000F837C802B88B92A9A81E090E0FC0117
:100D50006F9364E06A95F1F76F913197C9F72A981C
:100D60006F9364E06A95F1F76F910197C9F737B90E
:100D700028B91F910F91FF90089560E042E0ABCF3A
:100D8000A4E0B0E0E5ECF6E044C4182F062F80E8BC
:100D9000898380EC8A8384E98B8384ED8C83FE01D4
:100DA000E60FF11D8181810FE8DF1093AF01009301
:100DB000AE012496E4E049C4E3CF089581E0DDDF8D
:100DC0008091AC019091AD01892B19F160E070E246
:100DD00008C0E091AC01F091AD01E40FF51F708304
:100DE0006F5F462F50E080919C0190E00197209129
:100DF0009D0130E0FC01E29FC001E39F900DF29F56
:100E0000900D11244817590724F31092AF01109246
:100E1000AE010895D3CF089561E042E05CCF6F92B8
:100E20007F928F929F92AF92BF92CF92DF92FF926A
:100E30000F93DF93CF93CDB7DEB72A970FB6F89411
:100E4000DEBF0FBECDBF5B016C010AE03E0108941E
:100E5000611C711CFA2CC601B5012AE030E040E0AB
:100E600050E08CD3C901DA015C016D0101504301EE
:100E7000800E911C80E3F80EC601B5012AE030E037
:100E800040E050E03CD3F61AF401F082A114B10422
:100E9000C104D104F9F607C0F601E00FF11D80810D
:100EA000BBDF0F5F04C06E010894C11CD11C0A3067
:100EB00098F32A960FB6F894DEBF0FBECDBFCF9140
:100EC000DF910F91FF90DF90CF90BF90AF909F90F8
:100ED0008F907F906F900895A2CF0895CF93DF9366
:100EE000EC0102C0219698DF88818823D9F7DF9131
:100EF000CF910895F3CF089560E041E0ECCE1F92CA
:100F00000F920FB60F920BB60F921124EF92FF9231
:100F10000F931F932F933F934F935F936F937F9301
:100F20008F939F93AF93BF93CF93DF93EF93FF93F1
:100F30002091B2008091BB019091BC01A091BD01B4
:100F4000B091BE01B89905C0422F50E060E070E05A
:100F500011C08091B2004091BB015091BC016091E1
:100F6000BD017091BE0140505F4F6F4F7F4F90E0C9
:100F7000A0E0B0E0482B592B6A2B7B2BE090B70107
:100F8000C091B501D091B601FF2431C0E881F9814B
:100F90002081E0E030E08A8190E028233923232B70
:100FA00009F0E1E08F81E81701F18B819C81AD812F
:100FB000BE818A019B01081B190B2A0B3B0B8F81F9
:100FC000882339F0088719872A873B8788898260B8
:100FD00006C00C871D872E873F8788898160888B94
:100FE000EF834B835C836D837E83F3946196FE1461
:100FF00068F2FF91EF91DF91CF91BF91AF919F91F7
:101000008F917F916F915F914F913F912F911F91A0
:101010000F91FF90EF900F900BBE0F900FBE0F90AF
:101020001F90189591E1899FC0011124E091B501AD
:10103000F091B601E80FF91F20853185428553856F
:1010400080859185A285B385281739074A075B07F4
:1010500099F7B901CA01089591E1899FC00111244E
:10106000E091B501F091B601E80FF91F24853585AF
:101070004685578584859585A685B78528173907C0
:101080004A075B0799F7B901CA010895982F809123
:10109000B7019817F0F481E1989FC0011124E09105
:1010A000B501F091B601E80FF91F8089262F30E0D5
:1010B00090E028233923232B61F020899091680048
:1010C00010926800808960958623808B90936800D9
:1010D00001C020E0822F089561E0D8CF62E0D6CF32
:1010E0000F931F93CF93DF93EB018A0191E1899FC7
:1010F000B0011124E091B501F091B601E60FF71FA0
:101100008781F8018083E091B501F091B601E60F87
:10111000F71F2381348145815681288339834A838F
:101120005B8383819481A581B681281739074A079B
:101130005B0701F7B0D1288139814A815B81621B4D
:10114000730B840B950B688379838A839B83DF9170
:10115000CF911F910F910895C3CF08958091B5014C
:101160009091B601009729F0F3D81092B601109231
:10117000B50108954F925F926F927F928F929F92E6
:10118000AF92BF92CF92DF92EF92FF920F93DF93D5
:10119000CF9300D0CDB7DEB7082FF92E862E109250
:1011A000680010926B0010926C0010926D0010920B
:1011B00073006093B701D2DF81E1889EC0011124E2
:1011C0001DD89093B6018093B501009711F481E08A
:1011D000D2C0802F9F2D9C0169019924EE24FF2409
:1011E0005FE1652E712C41E0A42EB12C99C0D6018F
:1011F0008C91883058F4F50102C0EE0FFF1F8A95DC
:10120000E2F70E2F39E2432E512C31C0803168F4C1
:1012100090E00897950102C0220F331F8A95E2F7EC
:10122000022F23E2422E512C22C0883168F490E034
:101230004097D50102C0AA0FBB1F8A95E2F70A2F7B
:1012400096E2492E512C13C0803220F000E0442455
:1012500055240DC0F301E81BF109950102C0220FCE
:10126000331FEA95E2F7022F80E2482E512C80913D
:10127000B5019091B6018E0D9F1D9A838983DC0183
:1012800011965C924E9212960C93E981FA81108627
:101290001186128613861486158616861786FBD04D
:1012A000E981FA816383748385839683E091B50134
:1012B000F091B601EE0DFF1DD2018C918023878342
:1012C000108AB0E24B16510431F480916B00082B68
:1012D00000936B001DC0E3E24E16510431F480917F
:1012E0006C00082B00936C0013C0F6E24F165104FB
:1012F00031F480916D00082B00936D0009C029E244
:101300004216510429F480917300082B0093730056
:10131000939481E190E0E80EF91E0894C11CD11C61
:10132000981408F464CF8FEF8BBB80916B008823F7
:1013300029F08091680081608093680080916C0042
:10134000882329F0809168008260809368008091F2
:101350006D00882329F08091680084608093680084
:1013600080917300882329F08091680088608093C1
:101370006800789480E00F900F90CF91DF910F91EB
:10138000FF90EF90DF90CF90BF90AF909F908F90A5
:101390007F906F905F904F900895ECCE08953BC082
:1013A00008952F928F939F932FB68091BC019091B7
:1013B000BD0101968093BC019093BD0190E08091A6
:1013C000BE01891F8093BE019091C4019C5F9093E0
:1013D000C4018091C30180519742C0F09093C40131
:1013E0008093C3018091BF019091C00101968093C9
:1013F000BF019093C00190E08091C101891F80934B
:10140000C1018091C201891F8093C2012FBE9F91AB
:101410008F912F9018956F5F7F4F8F4F9F4F660F63
:10142000771F881F991F25E030E040E050E0A6D0EC
:10143000CA01B901089528EE33E009C0F9016F939C
:1014400064E06A95F1F76F913197C9F701970097BA
:10145000A9F70895A0E7B0E08C918E7F8C93E0EB24
:10146000F0E0808183608083E1EBF0E08081807F29
:101470008083808182608083B89A8C9181608C9314
:10148000789408958091C501882321F481E08093A8
:10149000C501E0CF0895F6DF809170008E7F8093C4
:1014A00070006091B2008091BB019091BC01A0914D
:1014B000BD01B091BE01B89905C0262F30E040E0D3
:1014C00050E011C08091B2002091BB013091BC016D
:1014D0004091BD015091BE0120503F4F4F4F5F4F93
:1014E00090E0A0E0B0E0282B392B4A2B5B2B8091B9
:1014F0007000816080937000B901CA010895629FF5
:10150000D001739FF001829FE00DF11D649FE00DFB
:10151000F11D929FF00D839FF00D749FF00D659F5C
:10152000F00D9927729FB00DE11DF91F639FB00D5B
:10153000E11DF91FBD01CF0111240895991B79E028
:1015400004C0991F961708F0961B881F7A95C9F753
:1015500080950895AA1BBB1B51E107C0AA1FBB1FA2
:10156000A617B70710F0A61BB70B881F991F5A952F
:10157000A9F780959095BC01CD010895A1E21A2E9E
:10158000AA1BBB1BFD010DC0AA1FBB1FEE1FFF1F27
:10159000A217B307E407F50720F0A21BB30BE40B77
:1015A000F50B661F771F881F991F1A9469F76095BE
:1015B0007095809590959B01AC01BD01CF01089578
:1015C00097FB092E05260ED057FD04D0D7DF0AD091
:1015D000001C38F450954095309521953F4F4F4F62
:1015E0005F4F0895F6F790958095709561957F4FC0
:1015F0008F4F9F4F08952F923F924F925F926F921D
:101600007F928F929F92AF92BF92CF92DF92EF9292
:10161000FF920F931F93CF93DF93CDB7DEB7CA1B13
:10162000DB0B0FB6F894DEBF0FBECDBF09942A883E
:10163000398848885F846E847D848C849B84AA84E6
:10164000B984C884DF80EE80FD800C811B81AA8173
:10165000B981CE0FD11D0FB6F894DEBF0FBECDBF3E
:10166000ED010895EE0FFF1F0590F491E02D099410
:04167000F894FFCF1C
:10167400214C34204D5320454443444545453220B4
:101684004444443220454747322056392045444398
:101694004445454545204444454443312052205463
:1016A400323430204F3620563134204544434445AB
:1016B400454532204444443220454747322045447E
:1016C400434445454545204444454443310050691D
:1016D4006E20484947482020002020202020202038
:1016E4002020200050696E20204C4F5720200020DD
:1016F400487A2020202020200044433A200025203E
:10170400200004040400D007F4010F00021001209B
:0617140000CA0100000004
:00000001FF
