:100000005BC0000077C0000075C0000073C0000036
:1000100071C000006FC000006DC000006BC0000028
:1000200069C0000067C0000065C000000C94350B7B
:1000300061C000005FC000005DC00000EAC40000B5
:1000400059C0000057C0000055C0000053C0000058
:10005000CCC700000C94BE094DC000004BC000008E
:1000600049C0000047C0000045C0000043C0000078
:10007000F8C700000C94E6093DC000003BC000003A
:1000800039C0000037C0000035C000007D02830287
:10009000860289028C028F029202950298029B02CC
:1000A0009E02A1024869207468657265210D0A00EC
:1000B000643136006331360011241FBECFEFD0E427
:1000C000DEBFCDBF11E0A0E0B1E0E6E3F9E100E082
:1000D0000BBF02C007900D92A637B107D9F711E008
:1000E000A6E7B1E001C01D92AA3EB107E1F7D1D069
:1000F0000C94990C85CF482F883068F481E090E00B
:1001000002C0880F991F4A95E2F7282FAAE2B0E0B3
:10011000EBE2F0E03EC0803188F4282F30E0285038
:10012000304081E090E002C0880F991F2A95E2F7E5
:10013000282FA4E2B0E0E5E2F0E02BC0883188F49B
:10014000282F30E02051304081E090E002C0880F3D
:10015000991F2A95E2F7282FA7E2B0E0E8E2F0E045
:1001600018C0803230F020E0A0E0B0E0E0E0F0E045
:1001700010C02FE130E0281B310981E090E002C07F
:10018000880F991F2A95E2F7282FA1E2B0E0E2E25A
:10019000F0E06F3F19F48081822709C0662319F0CF
:1001A0008081822B04C09081822F80958923808357
:1001B0008C91822B8C93089502C00E94330B82E0B5
:1001C0002DD68823D1F308951F93182FB3D580E03F
:1001D00091E0C1D5812FC1D580E061E07DD5123598
:1001E000D9F013353CF4143419F1173479F0133481
:1001F00031F518C01436E1F015361CF41336F9F455
:1002000011C0173619F01237D1F406C084E16FEF30
:1002100072DF85E091E011C081E06FEF6CDF8FE06D
:1002200091E00BC084EB90E0F2D387E191E005C050
:1002300080EB90E0ECD383E291E08DD511C0BCDF80
:1002400080E281278093CA0182E06AEC71E041E09C
:100250000E94BC098FE291E07ED58091CA017DD5D4
:100260001F9108950FC0F0E0E655FE4F8081ACDF8E
:10027000809176018F3119F41092760103C08F5F5F
:100280008093760182E0BCD5E09176018E1759F714
:10029000089550D584E391E05ED580E061E01CD5FF
:1002A00080E491E058D582E040E855E260E070E0FB
:1002B00055D682E06AEA71E040E295D60E94330B9F
:1002C000D1DF88E04FD58823C9F376DF8AEC91E04F
:1002D00064EA70E04BE050E015D082E06AEC71E037
:1002E0004BE00E94BC091092D50124D580E061E06A
:1002F000F3D48FE291E02FD58AEC91E02CD588E001
:100300007DD5DCCFFB01DC0102C005900D92415090
:100310005040D8F70895A0E0B0E0E1E9F1E00C9496
:10032000640CFC015B01C42E809193018823C9F405
:1003300081E08093930110926F0083E280938000AC
:1003400081E1809381001092820080E197E2909396
:1003500089008093880010928B0010928A00549A32
:10036000789410925601F7FD03C0DD24D39403C0A6
:10037000FF772AE0D22E80918100082F10E0087FBD
:10038000107088ECD89EC00111248E179F07C0F40E
:10039000EF0187E2E131F80710F0C0E1D7E2BE01DA
:1003A0007695679580E090E06058794687469F4F44
:1003B0009E0140E050E00E941F0C7901016024C0C2
:1003C00088E2D89E802D1124C82FD0E0CE17DF07F9
:1003D00008F4EF01BE01769567959E0140E050E07C
:1003E0008AE0D81639F480E090E0605E734481447E
:1003F0009F4F06C080E090E060537D4E8C4E9F4F33
:100400000E941F0C790102608AE0D81639F4CE01EF
:1004100005966AE070E00E940B0CEB0183E0C83E99
:10042000D80711F4B5010FC0BE0180E090E095013E
:1004300040E050E00E94E00B28EE33E040E050E066
:100440000E94410CB90110926F0000938100F0925C
:100450008900E0928800E0918800F0918900AC2D3D
:10046000A03108F0AFE080E190E08A1B910902C062
:10047000F695E7958A95E2F7F0938B00E0938A0072
:1004800070937C0160937B0186B38FEF86BB81E024
:1004900080936F00CDB7DEB7EAE00C94800CCF9369
:1004A000DF93EB018F3F11F0442329F488EE93E0B2
:1004B000BE0140E067C0813110F420E005C0282F64
:1004C0002051203608F02FE5822F6CE00E94FF0BB0
:1004D000382F682F70E084EF9FEF689FF001699FCD
:1004E000F00D789FF00D1124E20FF11DEC30F105B5
:1004F00038F4EA5BFF4F0C94930C8CE991E023C035
:1005000080E090E020C085EB91E01DC08FEC91E091
:100510001AC08AEE91E017C087E092E014C086E22C
:1005200092E011C087E492E00EC089E692E00BC031
:100530008EE892E008C085EB92E005C08EED92E077
:1005400002C08AE093E0373071F002C0880F991F33
:100550006A95E2F7323020F005966AE070E00BC051
:10056000805090480BC036E0880F991F3A95E1F70C
:10057000029665E070E00E940B0CCB01403108F060
:100580004FE0BE01C8DEDF91CF910895309179012F
:10059000E0919401F0919501332311F0249101C071
:1005A0002081822F81548A3108F4205E203259F450
:1005B000809194019091950101969093950180937B
:1005C0009401019729F7822F0895CF93DF93DEDFFF
:1005D000282FC0E0D0E01CC0CE0153E0880F991F47
:1005E0005A95E1F7CC0FDD1FC80FD91F822F99272D
:1005F00087FD9095C80FD91FE09780919401909145
:10060000950101969093950180939401BFDF282F67
:10061000822F80538A3000F3CE01DF91CF9108956D
:10062000A0E0B0E0E6E1F3E00C94620C80904B01B6
:10063000B0907701BB2021F060917801662399F496
:10064000A09078010091500110915101E0904C016F
:10065000F0904D01C0914E01D0914F01C0905201D8
:10066000D090530103C18FEF70E040E018DF10928B
:100670007801BDC194E0892EBB2404EF11E084E031
:10068000E82EF12CC0EDD7E0B4E09B2EAFE0CA2EEF
:10069000D12C7CDF282F80919401909195010196B7
:1006A0009093950180939401263609F498C02736DB
:1006B000CCF42236A1F1233674F42E3361F12F33BA
:1006C00034F42132B9F22C3309F004C126C02136AA
:1006D00009F000C11AC1243609F451C025360CF0C6
:1006E00066C035C02F3609F4BFC0203754F42C360D
:1006F00009F4A5C02D3609F4A5C0273609F0EAC0D3
:1007000086C0243709F4CEC0263709F4E0C022376A
:1007100009F0E0C0ADC08394BCCF8A94BACFA09258
:100720007801B09277011093510100935001F0923B
:100730004D01E0924C01D0934F01C0934E01909235
:100740004B01D0925301C09252012BE0F5C0A09210
:100750007801B09277011093510100935001F0920B
:100760004D01E0924C01D0934F01C0934E01909205
:100770004B01D0925301C092520120E0DDC0A09203
:100780007801B09277011093510100935001F092DB
:100790004D01E0924C01D0934F01C0934E019092D5
:1007A0004B01D0925301C092520122E0C5C0A092E9
:1007B0007801B09277011093510100935001F092AB
:1007C0004D01E0924C01D0934F01C0934E019092A5
:1007D0004B01D0925301C092520124E0ADC0A092CF
:1007E0007801B09277011093510100935001F0927B
:1007F0004D01E0924C01D0934F01C0934E01909275
:100800004B01D0925301C092520125E095C0A092B5
:100810007801B09277011093510100935001F0924A
:100820004D01E0924C01D0934F01C0934E01909244
:100830004B01D0925301C092520127E07DC0C5DE2A
:100840007C0140C0A3DE8C3611F4BB2403C0AA2473
:10085000BB24B3948091940190919501019690935B
:1008600095018093940115CFB0DE882E982C11CF7E
:10087000A0927801B092770110935101009350013A
:10088000F0924D01E0924C01D0934F01C0934E0184
:1008900090924B01D0925301C092520120E0FF246C
:1008A000F3944BC092DEBC0180EC9DE5B4D7CB0144
:1008B000EB01F3E0CC0FDD1FFA95E1F7880F991FEC
:1008C000C80FD91FCE01B701A6D78B01E2CE7DDEBE
:1008D0006C01DFCEA0927801B092770110935101A4
:1008E00000935001F0924D01E0924C01D0934F01E2
:1008F000C0934E0190924B01D0925301C09252018D
:10090000109295011092940172C0A0927801B09259
:1009100077011093510100935001F0924D01E09244
:100920004C01D0934F01C0934E0190924B01D09255
:100930005301C092520129E0FF248CE0889EC0013F
:100940001124E22EE80E0AC0809194019091950145
:1009500001969093950180939401E39417DE8B3276
:1009600099F3833289F30BC08091940190919501A2
:1009700001969093950180939401EA9407DE8D325D
:1009800099F3C0915001D09151018153883048F4BE
:1009900000914E0110914F0118DEBC01C8013BD7F8
:1009A000EB018E010BC0809194019091950101960D
:1009B0009093950180939401C00FD11F16950795D0
:1009C000E5DD8E3281F380917701882339F0CE0105
:1009D0009695879580937801C81BD109FF2011F067
:1009E000EE24EA948E2DBE014091520158DDCDB720
:1009F000DEB7ECE083C710926F009093950180936F
:100A0000940181E0809379011092780109CEF3CFAF
:100A100008951F920F920FB60F920BB60F921124EA
:100A20002F933F934F935F936F937F938F939F93F6
:100A3000AF93BF93EF93FF9380917B0190917C01E3
:100A4000019790937C0180937B01019609F51092A8
:100A50006F00789480918100887F8160809381000D
:100A600080E197E2909389008093880010928B0038
:100A700010928A0081E080935601809194019091B8
:100A80009501892B29F080917A01882309F4C8DD2A
:100A9000FF91EF91BF91AF919F918F917F916F9156
:100AA0005F914F913F912F910F900BBE0F900FBE12
:100AB0000F901F901895EF92FF920F931F9367B1BD
:100AC0003D982898299AE0908101F0908201009148
:100AD00083011091840120E030E041E050E0CA0140
:100AE0006F9364E06A95F1F76F910197C9F72A9ABD
:100AF000CA016F9364E06A95F1F76F910197C9F7A6
:100B000086B12A98FA016F9364E06A95F1F76F91C4
:100B10003197C9F72A9AFA016F9364E06A95F1F761
:100B20006F913197C9F72A982C5F3F4F85FF09C015
:100B3000C901A0E0B0E08E159F05A007B10708F439
:100B4000CECFC901A0E0B0E08E159F05A007B10788
:100B500028F082E390E0A0E0B0E004C080E395E7F5
:100B6000A0E0B0E08093810190938201A093830183
:100B7000B093840167B91F910F91FF90EF90089592
:100B80003D98459A80E395E7A0E0B0E0809381012D
:100B900090938201A0938301B0938401209A219ABB
:100BA000229A8EE190E09BD583E0D9D086E090E058
:100BB00096D583E0D4D082E090E091D583E0CFD089
:100BC00082E090E08CD582E0CAD082E090E087D5C8
:100BD00088E263D088E061D081E05FD086E05DD0BC
:100BE0008CE05BC080918501882321F481E08093B3
:100BF0008501C6CF0895FF920F931F93082F162FDC
:100C0000F42EF0DF58DF37B128B12998112311F005
:100C1000289A01C0289887B18C6387B981E0F816BB
:100C2000E1F088B1902F92959F70990F990F837C76
:100C3000982B98B92A9A81E090E0FC016F9364E0C8
:100C40006A95F1F76F913197C9F72A986F9364E02D
:100C50006A95F1F76F910197C9F788B10F70000F8E
:100C6000000F837C802B88B92A9A81E090E0FC01F8
:100C70006F9364E06A95F1F76F913197C9F72A98FD
:100C80006F9364E06A95F1F76F910197C9F737B9EF
:100C900028B91F910F91FF90089560E042E0ABCF1B
:100CA000A4E0B0E0E5E5F6E015C6182F062F80E8D1
:100CB000898380EC8A8384E98B8384ED8C83FE01B5
:100CC000E60FF11D8181810FE8DF10938001009311
:100CD0007F012496E4E01AC6E3CF089581E0DDDFCA
:100CE00080917D0190917E01892B19F160E070E285
:100CF00008C0E0917D01F0917E01E40FF51F708343
:100D00006F5F462F50E08091540190E00197209151
:100D1000550130E0FC01E29FC001E39F900DF29F7E
:100D2000900D11244817590724F310928001109256
:100D30007F010895D3CF089561E042E05CCFCF9367
:100D4000DF93EC0102C02196F7DF88818823D9F771
:100D5000DF91CF910895F3CF0895EECF089560E02D
:100D600041E049CF282F80918601882391F481E0CA
:100D70008093860187B1837D87B988B18C6288B9F9
:100D800085E090E06F9364E06A95F1F76F910197C9
:100D9000C9F786B18095822308951F93CF93DF937F
:100DA000182F80918601882391F481E08093860139
:100DB00087B1837D87B988B18C6288B985E090E07E
:100DC0006F9364E06A95F1F76F910197C9F7C12FAE
:100DD000D0E086B190E08C239D23892BD1F38AE06B
:100DE00090E07DD486B190E08C239D23892B89F3FC
:100DF00086B18123DF91CF911F910895CECF0895C1
:100E000090E0FC01EE0FFF1FEE0FFF1FE80FF91F30
:100E1000EE0FFF1FE75AFE4F80810895282F30E024
:100E2000F90173E0EE0FFF1F7A95E1F7220F331FF0
:100E3000E20FF31FE95AFE4F918140E0282F30E086
:100E4000F90153E0EE0FFF1F5A95E1F7220F331F10
:100E5000E20FF31FE95AFE4F8381981709F441E02E
:100E6000842F0895882321F0813009F044C01DC0EB
:100E700020915701222311F488E901C088E1809371
:100E8000C10080915D0190915E01892B61F190918B
:100E9000580180915A01981730F5222321F580914D
:100EA000C10080628093C1001CC020916101222397
:100EB00011F488E901C088E18093C900809167013D
:100EC00090916801892B99F0909162018091640161
:100ED000981768F4222359F48091C90080628093A6
:100EE000C900789408958091C1008F7DDBCF8091F7
:100EF000C9008F7DF4CF0895A0E0B0E0E1E8F7E00D
:100F0000E6C4D82E7A018B01ADDF82E0D81611F14C
:100F1000DD2019F0CCECD0E002C0C4ECD0E060EAF7
:100F200075E286E290E06E197F09800B910B33E049
:100F3000660F771F881F991F3A95D1F724E0EE0CB2
:100F4000FF1C001F111F2A95D1F7A801970177D424
:100F500039832883CDB7DEB7E7E0D5C4CDCF089578
:100F6000582F823051F0882319F0E9ECF0E002C0EC
:100F7000E1ECF0E080818F778083252F30E0D9018C
:100F8000AA0FBB1FC901E3E0880F991FEA95E1F79B
:100F9000A80FB91FA95ABE4F19967C936E93189744
:100FA000F901EE0FFF1FEE0FFF1FE20FF31FEE0F11
:100FB000FF1FE75AFE4F108214964C93149781E05E
:100FC00015968C931597523069F08C91882351F4C3
:100FD000552319F0E9ECF0E002C0E1ECF0E080818B
:100FE000806880830895BCCF08951F920F920FB63A
:100FF0000F920BB60F9211242F938F939F93EF9321
:10100000FF932091C600E0915F01F091600130975D
:1010100081F09091590180915B01981750F4809173
:101020005901E80FF11D2083809159018F5F809352
:1010300059019091590180915B01981731F4809189
:101040005C01882311F010925901FF91EF919F915B
:101050008F912F910F900BBE0F900FBE0F901F908E
:1010600018951F920F920FB60F920BB60F92112484
:101070002F938F939F93EF93FF932091CE00E09156
:101080006901F0916A01309781F09091630180913C
:101090006501981750F480916301E80FF11D2083DA
:1010A000809163018F5F80936301909163018091D0
:1010B0006501981731F480916601882311F0109230
:1010C0006301FF91EF919F918F912F910F900BBE34
:1010D0000F900FBE0F901F901895CF93DF93382F6E
:1010E00090E0FC0153E0EE0FFF1F5A95E1F7880FE7
:1010F000991FE80FF91FE95AFE4FA681B781109793
:1011000009F464C0832F90E0FC0123E0EE0FFF1F81
:101110002A95E1F7880F991FE80FF91FE95AFE4F4A
:101120002181832F90E0FC0163E0EE0FFF1F6A95A1
:10113000E1F7880F991FE80FF91FE95AFE4F8381E5
:10114000281708F043C0332319F0E8ECF0E002C0A0
:10115000E0ECF0E0808185FF39C0332319F0CEEC5C
:10116000D0E002C0C6ECD0E0832F90E0FC0143E069
:10117000EE0FFF1F4A95E1F7880F991FE80FF91F3F
:10118000E95AFE4F8181A80FB11D8C918883832F6E
:1011900090E0FC0173E0EE0FFF1F7A95E1F7880FF6
:1011A000991FE80FF91FE95AFE4F21812F5F832F06
:1011B00090E0FC0153E0EE0FFF1F5A95E1F7880F16
:1011C000991FE80FF91FE95AFE4F2183832F90E002
:1011D000FC01B3E0EE0FFF1FBA95E1F7880F991FEE
:1011E000E80FF91FE95AFE4F86819781892B09F490
:1011F00043C0832F90E0FC0173E0EE0FFF1F7A9550
:10120000E1F7880F991FE80FF91FE95AFE4F218176
:10121000832F90E0FC0153E0EE0FFF1F5A95E1F79A
:10122000880F991FE80FF91FE95AFE4F838128178D
:1012300018F5832F90E0FC01B3E0EE0FFF1FBA9585
:10124000E1F7880F991FE80FF91FE95AFE4F8081D7
:10125000882391F4332319F0E9ECF0E002C0E1ECCB
:10126000F0E08081806204C0E9ECF0E080818F7D55
:101270008083DF91CF9108953323B1F7E1ECF0E063
:10128000F5CF282F90E0FC0153E0EE0FFF1F5A9599
:10129000E1F7880F991FE80FF91FE95AFE4F77838E
:1012A0006683822F90E0FC01B3E0EE0FFF1FBA953A
:1012B000E1F7880F991FE80FF91FE95AFE4F1182D5
:1012C000822F90E0FC0173E0EE0FFF1F7A95E1F7AB
:1012D000880F991FE80FF91FE95AFE4F4383223008
:1012E00009F449C0822F90E0FC0153E0EE0FFF1F8C
:1012F0005A95E1F7880F991FE80FF91FE95AFE4F39
:1013000086819781892B91F1822F90E0FC01B3E0D7
:10131000EE0FFF1FBA95E1F7880F991FE80FF91F2D
:10132000E95AFE4F8181841708F5822F90E0FC0175
:1013300073E0EE0FFF1F7A95E1F7880F991FE80F12
:10134000F91FE95AFE4F8081882381F4222319F086
:10135000E9ECF0E002C0E1ECF0E08081806204C0E2
:10136000E9ECF0E080818F7D808308952223C1F72E
:10137000E1ECF0E0F7CF089584CF08951F920F922B
:101380000FB60F920BB60F9211242F933F934F93EA
:101390005F936F937F938F939F93AF93BF93EF93DD
:1013A000FF9380E09ADEFF91EF91BF91AF919F9103
:1013B0008F917F916F915F914F913F912F910F90FE
:1013C0000BBE0F900FBE0F901F9018951F920F929B
:1013D0000FB60F920BB60F9211242F933F934F939A
:1013E0005F936F937F938F939F93AF93BF93EF938D
:1013F000FF9381E072DEFF91EF91BF91AF919F91DA
:101400008F917F916F915F914F913F912F910F90AD
:101410000BBE0F900FBE0F901F901895982F823023
:1014200061F0882319F0E9ECF0E002C0E1ECF0E0B3
:1014300080818F7D8083892F50CEE0917101F09162
:1014400072013097A9F090916C0180916E0198170C
:1014500078F406C080916C018F5F80936C01EDCFB2
:1014600080916C01E80FF11D808148D1882391F7AC
:1014700008950F931F93CF93DF93682F823009F461
:101480009CC0882319F0E9ECF0E002C0E1ECF0E048
:1014900080818F778083462F50E0DA01AA0FBB1F2F
:1014A000CA0123E0880F991F2A95E1F7A80FB91FF9
:1014B000A95ABE4F1896CD91DC911997209709F43F
:1014C0005AC0FA01EE0FFF1FEE0FFF1FE40FF51FCA
:1014D000EE0FFF1FE75AFE4F808114962C91821762
:1014E00008F049C0662319F0E8ECF0E002C0E0EC37
:1014F000F0E0808187FF3FC0662319F4E6ECF0E05E
:1015000002C0EEECF0E09081FA01EE0FFF1FEE0F4B
:10151000FF1FE40FF51FEE0FFF1FE75AFE4F8081FC
:10152000821738F48081C80FD11D988380818F5F26
:101530008083FA01EE0FFF1FEE0FFF1FE40FF51F70
:10154000EE0FFF1FE75AFE4F8081DA01AA0FBB1F83
:101550009A0113E0220F331F1A95E1F7A20FB31F70
:10156000A95ABE4F14969C911497891721F4159689
:101570008C9181111082FA01A3E0EE0FFF1FAA9552
:10158000E1F7440F551FE40FF51FE95AFE4F808124
:10159000882309F057C0662319F0E9ECF0E002C097
:1015A000E1ECF0E08081806880834CC08091700124
:1015B000882319F010926D0145C0809173019091BC
:1015C0007401892B09F43EC090916D0180916F01E7
:1015D0009817C0F580919601882399F4A0D0809344
:1015E000960110E00AC098D0E02FF0E03197E11B9F
:1015F000F109E956FE4F80831F5F00919601101795
:1016000090F3E0919601EE23E9F080916D01A091B5
:101610007301B0917401A80FB11DE150E0939601E0
:10162000F0E0E956FE4F80818C9380916D018F5FD1
:1016300080936D0190916D0180916F01981709F071
:10164000BCCFB4CFDF91CF911F910F91089580E06F
:10165000E5DE81E0E3DE82E0E1DE80E00ADF81E0DA
:1016600008DF82E006CFF3CF08952F928F939F93E8
:101670002FB68091A0019091A10101968093A001C5
:101680009093A10190E08091A201891F8093A20113
:101690009091A8019C5F9093A8018091A70180512F
:1016A0009742C0F09093A8018093A7018091A30175
:1016B0009091A40101968093A3019093A40190E0DE
:1016C0008091A501891F8093A5018091A601891FA2
:1016D0008093A6012FBE9F918F912F90189528EE91
:1016E00033E009C0F9016F9364E06A95F1F76F91F7
:1016F0003197C9F701970097A9F708951F93182FFD
:10170000881F8827881F8C5765E031D0812F8F77FD
:1017100065E02DD01F9108958FEF64E028C083E825
:1017200067E025D0F9CF982F24990CC02C990AC0D6
:101730002C9AEEE1F0E06F9364E06A95F1F76F9117
:101740003197C9F784B1806A84B92698892F83704C
:1017500080656C7A862B8CBD892F90E09695879555
:101760009695879581708DBD81E090E0B8CF0F93FD
:101770001F93082F162F0CB406FC03C080E064E012
:10178000D2DF0CB404FC03C08CB580618CBD0EBDEF
:1017900005C00CB404FC02C080E00FC00DB407FE0D
:1017A000F8CF112349F0812F90E06F9364E06A95A0
:1017B000F1F76F910197C9F78EB51F910F910895B9
:1017C000629FD001739FF001829FE00DF11D649F25
:1017D000E00DF11D929FF00D839FF00D749FF00DB1
:1017E000659FF00D9927729FB00DE11DF91F639F52
:1017F000B00DE11DF91FBD01CF0111240895991B02
:1018000079E004C0991F961708F0961B881F7A95F7
:10181000C9F780950895AA1BBB1B51E107C0AA1FF9
:10182000BB1FA617B70710F0A61BB70B881F991F81
:101830005A95A9F780959095BC01CD010895A1E234
:101840001A2EAA1BBB1BFD010DC0AA1FBB1FEE1F3A
:10185000FF1FA217B307E407F50720F0A21BB30B85
:10186000E40BF50B661F771F881F991F1A9469F701
:1018700060957095809590959B01AC01BD01CF015D
:10188000089597FB092E05260ED057FD04D0D7DF0B
:101890000AD0001C38F450954095309521953F4F63
:1018A0004F4F5F4F0895F6F790958095709561952D
:1018B0007F4F8F4F9F4F08952F923F924F925F928D
:1018C0006F927F928F929F92AF92BF92CF92DF9250
:1018D000EF92FF920F931F93CF93DF93CDB7DEB7B5
:1018E000CA1BDB0B0FB6F894DEBF0FBECDBF099449
:1018F0002A88398848885F846E847D848C849B84A0
:10190000AA84B984C884DF80EE80FD800C811B81AD
:10191000AA81B981CE0FD11D0FB6F894DEBF0FBEDC
:10192000CDBFED010895EE0FFF1F0590F491E02D5E
:061930000994F894FFCFBA
:1019360052583A2000677265656E204C4544007225
:101946006564204C454400706C6179206E6F746547
:10195600204300706C6179206E6F746520440054DA
:10196600583A200053656E642073657269616C0095
:101976006F72207072657373204200040400D007F2
:10198600F4010F000210010000000000000000003A
:101996000000000000000000000000010000000040
:0619A6000000000000003B
:00000001FF
