:1000000051C000006CC000006AC0000068C0000061
:1000100066C0000064C0000062C0000060C0000054
:100020005EC000005CC000005AC00000ABC500000C
:1000300056C0000054C0000052C0000048C4000078
:100040004EC000004CC000004AC0000048C0000084
:1000500046C0000044C0000042C0000040C0000094
:100060003EC000003CC000003AC0000038C00000A4
:1000700036C0000034C0000032C0000030C00000B4
:100080002EC000002CC000002AC00000DE01E401E8
:10009000E701EA01ED01F001F301F601F901FC01CC
:1000A000FF01020211241FBECFEFD0E4DEBFCDBF9F
:1000B00011E0A0E0B1E0EAEAFDE000E00BBF02C021
:1000C00007900D92AC31B107D9F711E0ACE1B1E086
:1000D00001C01D92A933B107E1F770D064C690CF7B
:1000E000482F883068F481E090E002C0880F991FA3
:1000F0004A95E2F7282FAAE2B0E0EBE2F0E03EC03A
:10010000803188F4282F30E02850304081E090E0A2
:1001100002C0880F991F2A95E2F7282FA4E2B0E0C9
:10012000E5E2F0E02BC0883188F4282F30E0205140
:10013000304081E090E002C0880F991F2A95E2F7D5
:10014000282FA7E2B0E0E8E2F0E018C0803230F0FB
:1001500020E0A0E0B0E0E0E0F0E010C02FE130E00F
:10016000281B310981E090E002C0880F991F2A9571
:10017000E2F7282FA1E2B0E0E2E2F0E06F3F19F4ED
:100180008081822709C0662319F08081822B04C0F8
:100190009081822F8095892380838C91822B8C93F0
:1001A00008958F3F19F481E06FEF07C0882319F499
:1001B00081E061E002C081E060E092CF80E091E008
:1001C000DCD487E091E081D380E0EBDF84E161E083
:1001D00087DF84E690E010D581E0E3DF84E160E032
:1001E0007FDF84E690E008D5EFCFA0E0B0E0EAEF53
:1001F000F0E0A4C5FC015B01C42E80912B01882393
:10020000C9F481E080932B0110926F0083E2809308
:10021000800081E1809381001092820080E197E26A
:10022000909389008093880010928B0010928A002E
:10023000549A789410921A01F7FD03C0DD24D394E8
:1002400003C0FF772AE0D22E80918100082F10E0B2
:10025000087F107088ECD89EC00111248E179F076C
:10026000B8F4EF0187E2E131F80710F0C0E1D7E21E
:10027000BE017695679580E090E0605879468746A4
:100280009F4F9E0140E050E014D57901016023C0EA
:1002900088E2D89E802D1124C82FD0E0CE17DF072A
:1002A00008F4EF01BE01769567959E0140E050E0AD
:1002B0008AE0D81639F480E090E0605E73448144AF
:1002C0009F4F06C080E090E060537D4E8C4E9F4F64
:1002D000F0D4790102608AE0D81631F4CE01059697
:1002E0006AE070E0D2D4EB0183E0C83ED80711F495
:1002F000B5010DC0BE0180E090E0950140E050E006
:1003000099D428EE33E040E050E0F5D4B9011092E2
:100310006F0000938100F0928900E0928800E091E4
:100320008800F0918900AC2DA03108F0AFE080E1A9
:1003300090E08A1B910902C0F695E7958A95E2F74D
:10034000F0938B00E0938A00709321016093200169
:1003500086B38FEF86BB81E080936F00CDB7DEB7A9
:10036000EAE008C5CF93DF93EB018F3F11F0442300
:1003700029F488EE93E0BE0140E064C0813110F4BE
:1003800020E005C0282F2051203608F02FE5822FCD
:100390006CE06FD4382F682F70E084EF9FEF689F78
:1003A000F001699FF00D789FF00D1124E20FF11D0F
:1003B000EC30F10530F4EA5BFF4FEFC48CE991E0DB
:1003C00023C080E090E020C085EB91E01DC08FEC61
:1003D00091E01AC08AEE91E017C087E092E014C065
:1003E00086E292E011C087E492E00EC089E692E0D6
:1003F0000BC08EE892E008C085EB92E005C08EED60
:1004000092E002C08AE093E0373071F002C0880FBA
:10041000991F6A95E2F7323020F005966AE070E0A5
:100420000BC0805090480AC036E0880F991F3A955B
:10043000E1F7029665E070E028D4CB01403108F086
:100440004FE0BE01D2DEDF91CF91089530911E01C1
:10045000E0912C01F0912D01332311F0249101C082
:100460002081822F81548A3108F4205E203259F491
:1004700080912C0190912D01019690932D018093F4
:100480002C01019729F7822F0895CF93DF93DEDFA8
:10049000282FC0E0D0E01CC0CE0153E0880F991F88
:1004A0005A95E1F7CC0FDD1FC80FD91F822F99276E
:1004B00087FD9095C80FD91FE09780912C019091EE
:1004C0002D01019690932D0180932C01BFDF282FE1
:1004D000822F80538A3000F3CE01DF91CF910895AF
:1004E000A0E0B0E0E5E7F2E027C480901101B09011
:1004F0001C01BB2021F060911D01662399F4A0909E
:100500001D010091160110911701E0901201F09069
:100510001301C0911401D0911501C0901801D09021
:10052000190103C18FEF70E040E01CDF10921D0144
:10053000BDC194E0892EBB2404EF11E084E0E82ED5
:10054000F12CC0EDD7E0B4E09B2EAFE0CA2ED12C49
:100550007DDF282F80912C0190912D0101969093A1
:100560002D0180932C01263609F498C02736CCF44F
:100570002236A1F1233674F42E3361F12F3334F493
:100580002132B9F22C3309F004C126C0213609F01A
:1005900000C11AC1243609F451C025360CF066C0DA
:1005A00035C02F3609F4BFC0203754F42C3609F477
:1005B000A5C02D3609F4A5C0273609F0EAC086C0CB
:1005C000243709F4CEC0263709F4E0C0223709F0F9
:1005D000E0C0ADC08394BCCF8A94BACFA0921D0175
:1005E000B0921C011093170100931601F0921301B1
:1005F000E0921201D0931501C09314019092110161
:10060000D0921901C09218012BE0F5C0A0921D01F3
:10061000B0921C011093170100931601F092130180
:10062000E0921201D0931501C09314019092110130
:10063000D0921901C092180120E0DDC0A0921D01E6
:10064000B0921C011093170100931601F092130150
:10065000E0921201D0931501C09314019092110100
:10066000D0921901C092180122E0C5C0A0921D01CC
:10067000B0921C011093170100931601F092130120
:10068000E0921201D0931501C093140190921101D0
:10069000D0921901C092180124E0ADC0A0921D01B2
:1006A000B0921C011093170100931601F0921301F0
:1006B000E0921201D0931501C093140190921101A0
:1006C000D0921901C092180125E095C0A0921D0199
:1006D000B0921C011093170100931601F0921301C0
:1006E000E0921201D0931501C09314019092110170
:1006F000D0921901C092180127E07DC0C6DE7C01AE
:1007000040C0A4DE8C3611F4BB2403C0AA24BB2451
:10071000B39480912C0190912D01019690932D011D
:1007200080932C0115CFB1DE882E982C11CFA0928A
:100730001D01B0921C011093170100931601F09255
:100740001301E0921201D0931501C093140190920D
:100750001101D0921901C092180120E0FF24F394F6
:100760004BC093DEBC0180EC9DE58FD2CB01EB0149
:10077000F3E0CC0FDD1FFA95E1F7880F991FC80F42
:10078000D91FCE01B70181D28B01E2CE7EDE6C0192
:10079000DFCEA0921D01B0921C01109317010093AF
:1007A0001601F0921301E0921201D0931501C0934B
:1007B000140190921101D0921901C0921801109267
:1007C0002D0110922C0172C0A0921D01B0921C014B
:1007D0001093170100931601F0921301E092120199
:1007E000D0931501C093140190921101D092190178
:1007F000C092180129E0FF248CE0889EC0011124DA
:10080000E22EE80E0AC080912C0190912D010196F4
:1008100090932D0180932C01E39418DE8B3299F391
:10082000833289F30BC080912C0190912D010196A8
:1008300090932D0180932C01EA9408DE8D3299F378
:10084000C0911601D09117018153883048F400916E
:1008500014011091150119DEBC01C80116D2EB017B
:100860008E010BC080912C0190912D0101969093E7
:100870002D0180932C01C00FD11F16950795E6DD41
:100880008E3281F380911C01882339F0CE01969538
:10089000879580931D01C81BD109FF2011F0EE241C
:1008A000EA948E2DBE01409118015CDDCDB7DEB714
:1008B000ECE05EC210926F0090932D0180932C01AA
:1008C00010921E0110921D010BCEF4CF08951F92BD
:1008D0000F920FB60F920BB60F9211242F933F93E6
:1008E0004F935F936F937F938F939F93AF93BF9338
:1008F000EF93FF93809120019091210101979093B4
:10090000210180932001019609F510926F007894DF
:1009100080918100887F81608093810080E197E2EF
:10092000909389008093880010928B0010928A0027
:1009300081E080931A0180912C0190912D01892BE7
:1009400029F080911F01882309F4CADDFF91EF91FE
:10095000BF91AF919F918F917F916F915F914F91D7
:100960003F912F910F900BBE0F900FBE0F901F90D5
:100970001895EF92FF920F931F9367B13D982898B7
:10098000299AE0902601F09027010091280110910A
:10099000290120E030E041E050E0CA016F9364E0BB
:1009A0006A95F1F76F910197C9F72A9ACA016F9377
:1009B00064E06A95F1F76F910197C9F786B12A98BB
:1009C000FA016F9364E06A95F1F76F913197C9F777
:1009D0002A9AFA016F9364E06A95F1F76F91319763
:1009E000C9F72A982C5F3F4F85FF09C0C901A0E0D5
:1009F000B0E08E159F05A007B10708F4CECFC9015E
:100A0000A0E0B0E08E159F05A007B10728F082E3B3
:100A100090E0A0E0B0E004C080E395E7A0E0B0E0A3
:100A20008093260190932701A0932801B093290178
:100A300067B91F910F91FF90EF9008953D98459AE7
:100A400080E395E7A0E0B0E0809326019093270132
:100A5000A0932801B0932901209A219A229A8EE12D
:100A600090E0D9D083E08BD086E090E0D4D083E0D2
:100A700086D082E090E0CFD083E081D082E090E029
:100A8000CAD082E07CD082E090E0C5D088E263D01A
:100A900088E061D081E05FD086E05DD08CE05BC013
:100AA00080912A01882321F481E080932A01C6CF16
:100AB0000895FF920F931F93082F162FF42EF0DF47
:100AC00058DF37B128B12998112311F0289A01C0B5
:100AD000289887B18C6387B981E0F816E1F088B176
:100AE000902F92959F70990F990F837C982B98B9AE
:100AF0002A9A81E090E0FC016F9364E06A95F1F737
:100B00006F913197C9F72A986F9364E06A95F1F76E
:100B10006F910197C9F788B10F70000F000F837CA8
:100B2000802B88B92A9A81E090E0FC016F9364E001
:100B30006A95F1F76F913197C9F72A986F9364E03E
:100B40006A95F1F76F910197C9F737B928B91F91E5
:100B50000F91FF90089560E042E0ABCF61E042E08A
:100B6000A8CFCF93DF93EC0102C02196F7DF8881F5
:100B70008823D9F7DF91CF910895F3CF089560E0EE
:100B800041E097CF2F928F939F932FB680912F01A3
:100B900090913001019680932F019093300190E065
:100BA00080913101891F80933101909137019C5FC1
:100BB000909337018091360180519742C0F0909315
:100BC0003701809336018091320190913301019673
:100BD000809332019093330190E080913401891F1A
:100BE0008093340180913501891F809335012FBE98
:100BF0009F918F912F90189528EE33E009C0F9014D
:100C00006F9364E06A95F1F76F913197C9F7019797
:100C10000097A9F7089528EE33E009C0F9016F9312
:100C200064E06A95F1F76F913197C9F701970097E2
:100C3000A9F70895629FD001739FF001829FE00D94
:100C4000F11D649FE00DF11D929FF00D839FF00D4B
:100C5000749FF00D659FF00D9927729FB00DE11DF7
:100C6000F91F639FB00DE11DF91FBD01CF011124D4
:100C70000895991B79E004C0991F961708F0961BF8
:100C8000881F7A95C9F780950895AA1BBB1B51E16F
:100C900007C0AA1FBB1FA617B70710F0A61BB70BEC
:100CA000881F991F5A95A9F780959095BC01CD0191
:100CB0000895A1E21A2EAA1BBB1BFD010DC0AA1F9D
:100CC000BB1FEE1FFF1FA217B307E407F50720F0B5
:100CD000A21BB30BE40BF50B661F771F881F991F30
:100CE0001A9469F760957095809590959B01AC0179
:100CF000BD01CF01089597FB092E05260ED057FDA3
:100D000004D0D7DF0AD0001C38F4509540953095B8
:100D100021953F4F4F4F5F4F0895F6F7909580957F
:100D2000709561957F4F8F4F9F4F08952F923F92FF
:100D30004F925F926F927F928F929F92AF92BF92EB
:100D4000CF92DF92EF92FF920F931F93CF93DF9397
:100D5000CDB7DEB7CA1BDB0B0FB6F894DEBF0FBEF4
:100D6000CDBF09942A88398848885F846E847D8441
:100D70008C849B84AA84B984C884DF80EE80FD8043
:100D80000C811B81AA81B981CE0FD11D0FB6F894B9
:100D9000DEBF0FBECDBFED010895EE0FFF1F059022
:0A0DA000F491E02D0994F894FFCFC0
:100DAA0048656C6C6F21004C3136206365673E6381
:0C0DBA0000040400D007F4010F00010049
:00000001FF
