:1000000055C0000070C000006EC000006CC0000051
:100010006AC0000068C0000066C0000064C0000044
:1000200062C0000060C000005EC00000F3C10000BC
:100030005AC0000058C0000056C0000054C0000064
:1000400052C0000050C000004EC000004CC0000074
:100050004AC0000048C0000046C0000044C0000084
:1000600042C0000040C000003EC000003CC0000094
:100070003AC0000038C0000036C0000034C00000A4
:1000800032C0000030C000002EC000009500980073
:100090009B00A000A500AA00AF00B200B500B80008
:1000A000BB00C000C500CA00CF00D40011241FBE91
:1000B000CFEFD0E4DEBFCDBF11E0A0E0B1E0E6EBD2
:1000C000F4E000E00BBF02C007900D92A230B10730
:1000D000D9F711E0A2E0B1E001C01D92AF30B10745
:1000E000E1F78DD0E6C18CCF80E090E060E070E079
:1000F0008FC19091020120910001813011F4920F83
:1001000001C0921B909302018091020190E0A0E057
:10011000B0E08F709070A070B070FC0180319105DC
:1001200008F047C0EA5BFF4FBEC184EB90E00FC010
:1001300082E690E007C080E090E06FEF70E033C0AF
:100140008EE99FEF6CEE70E02EC08CE49FEF64EBC5
:1001500070E029C084E19FEF62E670E024C081E096
:100160009FEF1FC084E19FEF17C08CE49FEF0FC08B
:100170008EE99FEF07C080E090E061E07FEF13C061
:1001800082E690E064E17FEF0EC084EB90E06CE4E7
:100190007FEF09C08CEE90E06EE97FEF04C08FEF37
:1001A00090E060E070E034C18CEE90E062E670E0D8
:1001B0002FC10895EF92FF921F93CF93DF93EC012D
:1001C0007B0197FD02C011E00FC0D095C195DF4FB4
:1001D00010E00AC0812F8DDFC7016F9364E06A953C
:1001E000F1F76F910197C9F721978FEFCF3FD807AC
:1001F00089F7DF91CF911F91FF90EF900895FF92C3
:100200000F931F9384E0F82E02E080910001843068
:1002100019F40093000102C0F092000180E991E01E
:1002200068E873E1C7DF84EF91E02ED110E08CE93C
:100230009FEF60ED77E0BEDF84E690E025D11F5FA1
:100240001430A9F7E2CF482F883068F481E090E0BD
:1002500002C0880F991F4A95E2F7282FAAE2B0E062
:10026000EBE2F0E03EC0803188F4282F30E02850E7
:10027000304081E090E002C0880F991F2A95E2F794
:10028000282FA4E2B0E0E5E2F0E02BC0883188F44A
:10029000282F30E02051304081E090E002C0880FEC
:1002A000991F2A95E2F7282FA7E2B0E0E8E2F0E0F4
:1002B00018C0803230F020E0A0E0B0E0E0E0F0E0F4
:1002C00010C02FE130E0281B310981E090E002C02E
:1002D000880F991F2A95E2F7282FA1E2B0E0E2E209
:1002E000F0E06F3F19F48081822709C0662319F07E
:1002F0008081822B04C09081822F80958923808306
:100300008C91822B8C93089583E08093B00082E0DF
:100310008093B100E4EBF0E0108280818093B30021
:1003200087E160E090DF86E160E08DDF87E060E0FC
:100330008ADF86E060E087CF80910301882321F483
:1003400081E080930301E0CF0895CF93DF93EC0128
:10035000F3DFD7FD02C020E004C0D095C195DF4F88
:1003600021E0CE01CF3FD10519F014F08FEF90E0DE
:100370008093B300892B31F48091B0008F77809304
:10038000B0000DC08091B00080688093B00022233F
:1003900019F087E161E002C087E160E054DFDF919E
:1003A000CF910895CF93DF93EC01C6DFD7FD02C054
:1003B00020E004C0D095C195DF4F21E0CE01CF3FB2
:1003C000D10519F014F08FEF90E08093B400892BE1
:1003D00031F48091B0008F7D8093B0000DC080918A
:1003E000B00080628093B000222319F086E161E0C2
:1003F00002C086E160E027DFDF91CF9108950F937F
:100400001F938B01A2DFC801CDDF1F910F910895CB
:10041000F6CF08952F928F939F932FB68091050169
:10042000909106010196809305019093060190E05A
:1004300080910701891F8093070190910D019C5FB6
:1004400090930D0180910C0180519742C0F09093E0
:100450000D0180930C018091080190910901019692
:10046000809308019093090190E080910A01891F0F
:1004700080930A0180910B01891F80930B012FBE8D
:100480009F918F912F90189528EE33E009C0F901C4
:100490006F9364E06A95F1F76F913197C9F701970F
:1004A0000097A9F70895EE0FFF1F0590F491E02D36
:0604B0000994F894FFCF4F
:0204B600040040
:00000001FF
