:1000000062C0000087C0000085C0000083C00000FF
:1000100081C000007FC000007DC000007BC00000E8
:1000200079C000000C940E0C75C0000073C0000075
:1000300071C000000C94B5086DC000006BC00000DA
:1000400069C0000067C0000065C0000063C0000018
:1000500061C000005FC000005DC000005BC0000028
:1000600059C0000057C0000018061E0621062406CD
:1000700027062A062D0630063306360639063C06C4
:1000800020506F6C6F6C750033F720526F626F7485
:10009000004D617A6500736F6C766572003E673360
:1000A000323E3E633332004C313620636465677202
:1000B00065673400000000000000001F1F1F1F1FA5
:1000C0001F1FB30CB40C11241FBECFEFD4E0DEBF52
:1000D000CDBF11E0A0E0B1E0E0E0F6E202C00590A3
:1000E0000D92AC3AB107D9F712E0ACEAB1E001C029
:1000F0001D92A432B107E1F710E0C4ECD0E004C0D7
:100100002297FE010E94F012C23CD107C9F7B1D07C
:100110000C94F41275CFAAE0B0E0E1E9F0E00C94A1
:10012000C11280ED97E00E94F10CC5D080E890E00C
:100130000E94C50A80E061E00E940B0A88E890E016
:100140000E94C50A8DE990E00E94A60888EE93E01F
:100150000E94480C0E94390A81E990E00E94C50A79
:1001600080E061E00E940B0A86E990E00E94C50AE7
:1001700088EE93E01AC05AD47C010E94390A002705
:10018000F7FC0095102FC801B7010E94B60A80E065
:1001900091E00E94D30A80E061E00E940B0A83E0B4
:1001A00091E00E94D30A84E690E00E94480C80E12E
:1001B0000E94C00B8823F9F280E10E940C0C88EEAB
:1001C00093E00E94480C0CEE1FEF0832110528F056
:1001D00088E290E068ED7FEF04C088ED9FEF68E271
:1001E00070E00E94BE0B81E00E94BE0C84E190E0B2
:1001F0000E94480C0F5F1F4F0C33110531F780E050
:1002000090E060E070E00E94BE0B6E010894C11C9B
:10021000D11C17C0C60161E00E94B70C7C010E948E
:10022000390A00E010E0C801B7010E94B60A80E078
:1002300061E00E940B0AC6011FD084E690E00E9494
:10024000480C80E10E94C00B882321F380E10E94CA
:100250000C0C0E94390A8BE091E00E94D30A87EAD5
:1002600090E074D7E5D38823E9F72A96E8E00C9468
:10027000DD1251DFC8D0FFCF0F931F93CF93DF93D1
:100280008C01C0E0D0E0F801EC0FFD1F808191816E
:1002900065E670E00E945312FB01E15FFE4F808132
:1002A0000E94D50A2296CA30D10569F7DF91CF9115
:1002B0001F910F9108950F931F9304EB10E0C80155
:1002C00060E00E94FA0AC801019661E00E94FA0A01
:1002D000C801029662E00E94FA0AC801039663E030
:1002E0000E94FA0AC801049664E00E94FA0AC80152
:1002F000059665E00E94FA0AC801069666E00E942B
:10030000FA0A0E94390A1F910F910895882311F06B
:100310008CE40895662311F083E50895442311F4D5
:1003200082E4089582E50895CF93DF933091AC0184
:10033000333008F44CC0C32FD0E0FE01E35DFE4F24
:100340008081823409F043C0FE01E25DFE4F80E00F
:1003500090E0AE01455D5E4F20812C3441F02235A6
:1003600019F0223449F406C0865A9F4F05C0825FB7
:100370009E4F02C08C549F4F3197E417F50761F7E9
:1003800068E671E00E9467128A35910589F08B3525
:1003900091051CF4892B41F017C0843B910561F055
:1003A0008E50914089F40CC0C45DDE4F83E50BC0D4
:1003B000C45DDE4F82E507C0C45DDE4F82E403C04A
:1003C000C45DDE4F8CE4888332503093AC01DF9102
:1003D000CF910895E091AC01F0E0E15DFE4F108215
:1003E0000E94390A8FE291E00E94D30A8091AC0109
:1003F000893040F080E061E00E940B0A87E391E0E1
:100400000C94D30A0895AAE0B0E0E9E0F2E00C947D
:10041000C1126E010894C11CD11CBBD082E390E0D4
:1004200062E370E00E94BE0B82E390E00E94480C01
:10043000C60161E00E94B70C09811A81E984FA843F
:1004400088E290E068E270E00E94BE0B88EC90E0E9
:100450000E94480CC60161E00E94B70C4B815C8190
:10046000493C510558F48D819E81893C910530F4B9
:1004700020E08F819885893C910508F021E049555D
:10048000524050F08D819E818955924028F08F8195
:10049000988589559240F8F40536110510F01CE452
:1004A0000BC0222311F013E507C085E6E816F1041E
:1004B00010F412E401C012E5812FE9D08091AC0163
:1004C000E82FF0E0E15DFE4F10838F5F8093AC0179
:1004D0002BDF80DFA2CF80E090E060E070E00E9440
:1004E000BE0B89E191E03FD61FC00E949B0C20ED1E
:1004F00037E040E050E00E947A12685E734080402E
:10050000904068F4B6D78FE191E00E94D30A80E072
:1005100061E081D787E291E00E94D30A01C05ADFEF
:100520008EE190E00E94480C80E10E94C00B88237D
:10053000E1F280E10E94C00B8823D9F788EE93E0B6
:100540000E94480C00E010E01CC023D082E390E041
:1005500062E370E00E94BE0B82E390E00E94480CD0
:1005600088E290E068E270E00E94BE0B88EC90E0C8
:100570000E94480CF801E15DFE4F808188D00F5F3A
:100580001F4F8091AC0190E008171907F4F201D0D9
:10059000A2CFAAE0B0E0EFECF2E00C94B712662430
:1005A0007724AA24BB2465011E010894211C311C58
:1005B0006CE3462E512CC10161E00E94B70C50E360
:1005C000852E58EF952E880E991EC401AA2797FDF7
:1005D000A095BA2FA80EB91ECA1EDB1EC601B50112
:1005E00020E137E240E050E00E949C1279018A014C
:1005F000940126193709C901880F991F820F931F8B
:1006000062E070E00E9467129B012E0D3F1DC40145
:1006100064E170E00E946712260F371F2D33310509
:1006200074F48FEF243C38071CF424EC3FEF02C035
:1006300037FF07C0C901CC966CE370E007C02CE31C
:1006400030E0B201621B730B8CE390E00E94BE0BA2
:100650008B819C818436910550F48D819E818436F6
:10066000910528F48F8198858436910560F0898101
:100670009A81893C910538F4340189859A85893CB1
:10068000910508F498CF2A96E2E10C94D3128C34A9
:1006900029F0823541F08234D1F40FC080EB9FEF16
:1006A00060E570E004C080E590E060EB7FEF0E94C1
:1006B000BE0B88EC90E00C94480C80E590E060EB79
:1006C0007FEF0E94BE0B80E991E00C94480C0895E6
:1006D000CF93DF93BC018230910510F462E070E0AB
:1006E000A0912202B0912302ED01E0E0F0E040E0B1
:1006F00050E021C0888199818617970769F48A8123
:100700009B81309719F09383828304C090932302D6
:1007100080932202FE0134C06817790738F441152E
:10072000510519F08417950708F4AC01FE018A8180
:100730009B819C01E9012097E9F641155105A9F13A
:10074000CA01861B970B049708F4BA01E0E0F0E0B9
:100750002AC08D919C91119784179507F9F464171D
:10076000750781F412968D919C911397309719F02B
:100770009383828304C09093230280932202FD011D
:1007800032964CC0CA01861B970BFD01E80FF91F7A
:100790006193719302978D939C9340C0FD01828178
:1007A00093819C01D9011097A1F68091200290912C
:1007B0002102892B41F48091A8019091A901909385
:1007C0002102809320024091AA015091AB01411572
:1007D000510541F44DB75EB78091A6019091A701F4
:1007E000481B590B2091200230912102CA01821B23
:1007F000930B8617970780F0AB014E5F5F4F84170E
:10080000950750F0420F531F50932102409320024E
:10081000F9016193719302C0E0E0F0E0CF01DF9154
:10082000CF910895CF93DF93009709F450C0EC0166
:1008300022971B821A82A0912202B0912302109764
:1008400009F140E050E0AC17BD0708F1BB83AA8373
:10085000FE0121913191E20FF31FAE17BF0779F42A
:100860008D919C911197280F391F2E5F3F4F39832F
:10087000288312968D919C9113979B838A834115AF
:10088000510571F4D0932302C093220220C0129626
:100890008D919C911397AD01009711F0DC01D3CF9E
:1008A000FA01D383C28321913191E20FF31FCE1756
:1008B000DF0769F488819981280F391F2E5F3F4F28
:1008C000FA01318320838A819B8193838283DF9124
:1008D000CF910895EF92FF920F931F93982F80323C
:1008E00078F487E880937A0080917C008064807639
:1008F000892B80937C0080917A00806480937A00B9
:1009000080917A0086FDFCCFFB01EE24FF24870155
:1009100080917A00806480937A0080917A0086FDCD
:10092000FCCF80917C0085FF04C08091790090E02D
:1009300004C08091780090917900A0E0B0E0E80ECA
:10094000F91E0A1F1B1F319719F7CB019695879542
:100950006034710538F48E0D9F1D70E00E945312B3
:100960009B010DC0A0E0B0E0E80EF91E0A1F1B1F9E
:100970009B0140E050E0C801B7010E947A12C90112
:100980001F910F91FF90EF900895A0E0B0E02091AB
:1009900093013091940140E050E0BC01CD010E94F0
:1009A00028129B01AC0180917C0085FF0BC0B9012E
:1009B000CA0161587F4F8F4F9F4F2FEF30E040E0CB
:1009C00050E00AC0B901CA0161507E4F8F4F9F4F5E
:1009D0002FEF33E040E050E00E947A12C901089501
:1009E00079DFD3CF1F9310917C0080917C008F7DA5
:1009F00080937C0086E06AE070E0F2DFAC0115FDD8
:100A000004C080917C008F7D03C080917C00806257
:100A100080937C009A01220F331F240F351F2F5F14
:100A20003F4F36952795C9011F910895DBCF089553
:100A30008091A001882339F020E08091CB01909132
:100A4000CC01892B09F021E0822F0895A0E0B0E0CD
:100A5000ECE2F5E00C94BF12FC015B01C42E809126
:100A6000CA018823C9F481E08093CA0110926F0003
:100A700083E28093800081E1809381001092820064
:100A800080E197E2909389008093880010928B0018
:100A900010928A00229A78941092A001F7FD03C068
:100AA000DD24D39403C0FF772AE0D22E8091810009
:100AB000082F10E0087F107088ECD89EC001112428
:100AC0008E179F07C0F4EF0187E2E131F80710F0BD
:100AD000C0E1D7E2BE017695679580E090E060586E
:100AE000794687469F4F9E0140E050E00E947A126F
:100AF0007901016024C088E2D89E802D1124C82F7E
:100B0000D0E0CE17DF0708F4EF01BE0176956795B8
:100B10009E0140E050E08AE0D81639F480E090E091
:100B2000605E734481449F4F06C080E090E0605354
:100B30007D4E8C4E9F4F0E947A12790102608AE0AE
:100B4000D81639F4CE0105966AE070E00E9453127F
:100B5000EB0183E0C83ED80711F4B5010FC0BE0118
:100B600080E090E0950140E050E00E94281228EEDD
:100B700033E040E050E00E949C12B90110926F00F7
:100B800000938100F0928900E0928800E091880053
:100B9000F0918900AC2DA03108F0AFE080E190E049
:100BA0008A1B910902C0F695E7958A95E2F7F093C2
:100BB0008B00E0938A007093B2016093B10186B319
:100BC0008FEF86BB81E080936F00CDB7DEB7EAE0A0
:100BD0000C94DB12CF93DF93EB018F3F11F0442392
:100BE00029F488EE93E0BE0140E067C0813110F443
:100BF00020E005C0282F2051203608F02FE5822F55
:100C00006CE00E944712382F682F70E084EF9FEF4E
:100C1000689FF001699FF00D789FF00D1124E20F9D
:100C2000F11DEC30F10538F4EC5CFF4F0C94EE1242
:100C30008CE991E023C080E090E020C085EB91E05A
:100C40001DC08FEC91E01AC08AEE91E017C087E0DA
:100C500092E014C086E292E011C087E492E00EC0F8
:100C600089E692E00BC08EE892E008C085EB92E046
:100C700005C08EED92E002C08AE093E0373071F05B
:100C800002C0880F991F6A95E2F7323020F005966E
:100C90006AE070E00BC0805090480BC036E0880FCF
:100CA000991F3A95E1F7029665E070E00E945312B1
:100CB000CB01403108F04FE0BE01C8DEDF91CF919B
:100CC00008953091AF01E091CB01F091CC01332335
:100CD00011F0249101C02081822F81548A3108F4BF
:100CE000205E203259F48091CB019091CC01019685
:100CF0009093CC018093CB01019729F7822F08951F
:100D0000CF93DF93DEDF282FC0E0D0E01CC0CE0100
:100D100053E0880F991F5A95E1F7CC0FDD1FC80FDC
:100D2000D91F822F992787FD9095C80FD91FE0976B
:100D30008091CB019091CC0101969093CC0180934E
:100D4000CB01BFDF282F822F80538A3000F3CE01E2
:100D5000DF91CF910895A0E0B0E0E1EBF6E00C94D4
:100D6000BD1280909501B090AD01BB2021F0609143
:100D7000AE01662399F4A090AE0100919A01109102
:100D80009B01E0909601F0909701C0919801D0915D
:100D90009901C0909C01D0909D0103C18FEF70E03C
:100DA00040E018DF1092AE01C0C194E0892EBB2450
:100DB00004EF11E084E0E82EF12CC0EDD7E0B4E0C0
:100DC0009B2EAFE0CA2ED12C7CDF282F8091CB0147
:100DD0009091CC0101969093CC018093CB01263663
:100DE00009F498C02736CCF42236A1F1233674F4E6
:100DF0002E3361F12F3334F42132B9F22C3309F060
:100E000006C126C0213609F002C11CC1243609F4EE
:100E100051C025360CF066C035C02F3609F4BFC06E
:100E2000203754F42C3609F4A5C02D3609F4A5C09A
:100E3000273609F0ECC086C0243709F4CEC0263727
:100E400009F4E2C0223709F0E2C0ADC08394BCCF00
:100E50008A94BACFA092AE01B092AD0110939B01DB
:100E600000939A01F0929701E0929601D093990134
:100E7000C093980190929501D0929D01C0929C01DF
:100E80002BE0F7C0A092AE01B092AD0110939B0190
:100E900000939A01F0929701E0929601D093990104
:100EA000C093980190929501D0929D01C0929C01AF
:100EB00020E0DFC0A092AE01B092AD0110939B0183
:100EC00000939A01F0929701E0929601D0939901D4
:100ED000C093980190929501D0929D01C0929C017F
:100EE00022E0C7C0A092AE01B092AD0110939B0169
:100EF00000939A01F0929701E0929601D0939901A4
:100F0000C093980190929501D0929D01C0929C014E
:100F100024E0AFC0A092AE01B092AD0110939B014E
:100F200000939A01F0929701E0929601D093990173
:100F3000C093980190929501D0929D01C0929C011E
:100F400025E097C0A092AE01B092AD0110939B0135
:100F500000939A01F0929701E0929601D093990143
:100F6000C093980190929501D0929D01C0929C01EE
:100F700027E07FC0C5DE7C0141C0A3DE8C3611F4C2
:100F8000BB2403C0AA24BB24B3948091CB019091CD
:100F9000CC0101969093CC018093CB0115CFB0DEAC
:100FA000882E982C11CFA092AE01B092AD01109373
:100FB0009B0100939A01F0929701E0929601D093E1
:100FC0009901C093980190929501D0929D01C09291
:100FD0009C0120E0FF24F3944DC092DEBC0180EC24
:100FE0009DE50E945312CB01EB01F3E0CC0FDD1F16
:100FF000FA95E1F7880F991FC80FD91FCE01B701E5
:101000000E9453128B01E0CE7BDE6C01DDCEA092FC
:10101000AE01B092AD0110939B0100939A01F09242
:101020009701E0929601D0939901C0939801909214
:101030009501D0929D01C0929C011092CC0110921A
:10104000CB0173C0A092AE01B092AD0110939B0191
:1010500000939A01F0929701E0929601D093990142
:10106000C093980190929501D0929D01C0929C01ED
:1010700029E0FF248CE0889EC0011124E22EE80EB6
:101080000AC08091CB019091CC0101969093CC0144
:101090008093CB01E39415DE8B3299F3833289F38D
:1010A0000BC08091CB019091CC0101969093CC0123
:1010B0008093CB01EA9405DE8D3299F3C0919A01B9
:1010C000D0919B018153883050F400919801109188
:1010D000990116DEBC01C8010E945312EB018E017A
:1010E0000BC08091CB019091CC0101969093CC01E3
:1010F0008093CB01C00FD11F16950795E2DD8E328C
:1011000081F38091AD01882339F0CE0196958795C2
:101110008093AE01C81BD109FF2011F0EE24EA94A0
:101120008E2DBE0140919C0155DDCDB7DEB7ECE0C0
:101130000C94D91210926F009093CC018093CB0144
:1011400081E08093AF011092AE0105CEF3CF0895F8
:1011500010926F009093CC018093CB011092AF015D
:101160001092AE01F8CDF4CF08951F920F920FB6F2
:101170000F9211242F933F934F935F936F937F931D
:101180008F939F93AF93BF93EF93FF938091B101A0
:101190009091B20101979093B2018093B1010196B1
:1011A00009F510926F00789480918100887F8160AA
:1011B0008093810080E197E290938900809388007A
:1011C00010928B0010928A0081E08093A0018091A0
:1011D000CB019091CC01892B29F08091B00188231B
:1011E00009F4B9DDFF91EF91BF91AF919F918F917C
:1011F0007F916F915F914F913F912F910F900FBE13
:101200000F901F901895EF92FF920F931F936AB162
:1012100057985A98289AE090B701F090B801009139
:10122000B9011091BA0120E030E041E050E0CA017C
:101230006F9364E06A95F1F76F910197C9F75C9A33
:10124000CA016F9364E06A95F1F76F910197C9F74E
:1012500089B15C98FA016F9364E06A95F1F76F9138
:101260003197C9F75C9AFA016F9364E06A95F1F7D8
:101270006F913197C9F75C9887FF0BC02C5F3F4F88
:10128000C901A0E0B0E08E159F05A007B10708F4E2
:10129000CECF6AB91F910F91FF90EF90089565B17D
:1012A00090E0AC0141705070440F551F9C012670B6
:1012B000307053E0220F331F5A95E1F7422B6D7CBB
:1012C000462B45B92BB18870907034E0880F991F78
:1012D0003A95E1F72F77282B2BB95C9A81E090E0C3
:1012E000FC016F9364E06A95F1F76F913197C9F74C
:1012F0005C986F9364E06A95F1F76F910197C9F775
:10130000089580E197E2A0E0B0E08093B701909368
:10131000B801A093B901B093BA01529A209A549A95
:101320008EE190E0C4D283E067D186E090E0BFD246
:1013300083E062D182E090E0BAD283E05DD182E0C6
:1013400090E0B5D282E058D182E090E0B0D288E25D
:1013500041D088E03FD081E03DD086E03BD08CE0BA
:1013600039C08091BB01882321F481E08093BB01C7
:10137000C8CF0895BF92CF92DF92EF92FF920F9362
:101380001F93082F162FF42EECDF3DDFB4B0C5B04D
:10139000DAB0EBB02898112311F05A9A01C05A988C
:1013A00084B1826384B9579A81E0F81621F0802FC6
:1013B00082958F7074DF802F8F7071DFDAB8EBB891
:1013C000B4B8C5B81F910F91FF90EF90DF90CF9008
:1013D000BF90089560E042E0CDCFA4E0B0E0E3EF3D
:1013E000F9E00C94C512182F062F80E8898380EC51
:1013F0008A8384E98B8384ED8C83FE01E60FF11DE3
:101400008181810FE7DF1093B6010093B501249627
:10141000E4E00C94E112E1CF089581E0DBDF8091FC
:10142000B3019091B401892B19F160E070E208C01A
:10143000E091B301F091B401E40FF51F70836F5F89
:10144000462F50E080919E0190E0019720919F01EE
:1014500030E0FC01E29FC001E39F900DF29F900DF0
:1014600011244817590724F31092B6011092B501C0
:101470000895D3CF089561E042E07CCF6F927F92D0
:101480008F929F92AF92BF92CF92DF92FF920F9373
:10149000DF93CF93CDB7DEB72A970FB6F894DEBFB0
:1014A0000FBECDBF5B016C010AE03E010894611CD8
:1014B000711CFA2CC601B5012AE030E040E050E092
:1014C0000E947A12C901DA015C016D0101504301E9
:1014D000800E911C80E3F80EC601B5012AE030E0D1
:1014E00040E050E0B5D7F61AF401F082A114B1043F
:1014F000C104D104F1F607C0F601E00FF11D8081AF
:10150000BADF0F5F04C06E010894C11CD11C0A3001
:1015100098F32A960FB6F894DEBF0FBECDBFCF91D9
:10152000DF910F91FF90DF90CF90BF90AF909F9091
:101530008F907F906F900895EF92FF920F931F937B
:101540007B018C0197FF0AC010950095F094E09400
:10155000E11CF11C011D111D8DE28DDFC801B701D9
:101560008DDF1F910F91FF90EF900895E5CF0895C3
:10157000CF93DF93EC0102C07EDF2196FE018491C0
:101580008823D1F7DF91CF910895F2CF0895CF93BB
:10159000DF93EC0102C021966EDF88818823D9F7A2
:1015A000DF91CF910895F3CF089565CF0895EF921D
:1015B000FF920F931F93CF93DF937C01062F10E0D0
:1015C000F3E0000F111FFA95E1F7C0E0D0E09E01B3
:1015D000200F822F8064FEDEF701EC0FFD1FE491E7
:1015E0008E2F49DF2196C830D10589F7CDB7DEB7F8
:1015F000E6E0E5C7DCCF089560E041E0BBCE282FF0
:10160000883068F481E090E002C0880F991F2A9525
:10161000E2F7282FAAE2B0E0EBE2F0E029C08E303A
:1016200080F430E02850304081E090E002C0880F24
:10163000991F2A95E2F7282FA4E2B0E0E5E2F0E056
:1016400017C0853130F020E0A0E0B0E0E0E0F0E04D
:101650000FC030E02E50304081E090E002C0880F93
:10166000991F2A95E2F7282FA7E2B0E0E8E2F0E020
:101670006F3F19F48081822709C0662319F08081A9
:10168000822B04C09081822F8095892380838C9146
:10169000822B8C930895E0EBF0E083EF80838081D0
:1016A00084BDE1EBF0E082E08083808185BDE4EBE6
:1016B000F0E010828081E3EBF0E08083808188BDE0
:1016C00088B587BD86E060E09ADF85E060E097DF5F
:1016D0008BE060E094DF83E060E091CF8091BC011B
:1016E000882321F481E08093BC01D5CF0895CF9366
:1016F000DF93EC01F3DFD7FD02C020E004C0D095FA
:10170000C195DF4F21E0CE01CF3FD10519F014F094
:101710008FEF90E0222319F018BC87BD02C088BD6E
:1017200017BCDF91CF910895CF93DF93EC01D6DF03
:10173000D7FD02C020E004C0D095C195DF4F21E065
:10174000CE01CF3FD10519F014F08FEF90E02223A6
:1017500029F01092B4008093B30004C08093B400C9
:101760001092B300DF91CF9108950F931F938B01D7
:10177000BEDFC801D9DF1F910F910895F6CF0895FC
:10178000282F8091BD01882391F481E08093BD01D1
:1017900084B18D7C84B985B1826385B985E090E0A0
:1017A0006F9364E06A95F1F76F910197C9F783B180
:1017B0008095822308951F93CF93DF93182F8091F4
:1017C000BD01882391F481E08093BD0184B18D7CBB
:1017D00084B985B1826385B985E090E06F9364E058
:1017E0006A95F1F76F910197C9F7C12FD0E083B1E6
:1017F00090E08C239D23892BD1F38AE090E057D091
:1018000083B190E08C239D23892B89F383B18123BD
:10181000DF91CF911F910895CECF08952F928F938E
:101820009F932FB68091CE019091CF010196809326
:10183000CE019093CF0190E08091D001891F8093D9
:10184000D0019091D6019C5F9093D6018091D501F3
:1018500080519742C0F09093D6018093D50180913A
:10186000D1019091D20101968093D1019093D20140
:1018700090E08091D301891F8093D3018091D4019E
:10188000891F8093D4012FBE9F918F912F9018951F
:1018900028EE33E009C0F9016F9364E06A95F1F72F
:1018A0006F913197C9F701970097A9F7089528EE2E
:1018B00033E009C0F9016F9364E06A95F1F76F9125
:1018C0003197C9F701970097A9F70895A0E7B0E00D
:1018D0008C918E7F8C93E0EBF0E08081836080833D
:1018E000E1EBF0E08081807F808380818260808373
:1018F000B89A8C9181608C93789408958091D701E7
:10190000882321F481E08093D701E0CF0895F6DFAA
:10191000E0E7F0E080818E7F80832091D1013091DB
:10192000D2014091D3015091D401808181608083A4
:10193000B901CA010895EBCF0895E0DFE0E7F0E0D8
:1019400080818E7F80831092D1011092D2011092FB
:10195000D3011092D4011092D6011092D50180814A
:10196000816080830895089588ED91E034C49C01DE
:10197000462F88ED91E0B90120E0A1C3682F88EDE2
:1019800091E046C50F93DF93CF9300D000D00F9224
:10199000CDB7DEB79C01962FDE011196E1EAF1E0AA
:1019A00085E001900D928150E1F7BE016F5F7F4F9E
:1019B000992329F088ED91E045E00FEF04C088ED10
:1019C00091E045E003E174D088ED91E059D0B5DFB6
:1019D0000F900F900F900F900F90CF91DF910F917C
:1019E000089560E0CFCFFC01118210821382128231
:1019F0001582148217821682613118F080E1808787
:101A000001C06087208B483060F481E090E002C024
:101A1000880F991F4A95E2F74AE250E02BE230E046
:101A200029C04E3080F4242F30E02850304081E02F
:101A300090E002C0880F991F2A95E2F744E250E037
:101A400025E230E017C0453130F080E040E050E062
:101A500020E030E00FC0242F30E02E50304081E0F5
:101A600090E002C0880F991F2A95E2F747E250E004
:101A700028E230E08187338722875587448708959D
:101A8000DC011C96ED91FC911D97309781F08081CF
:101A900019969C911997892B80831A96ED91FC9148
:101AA0001B97908119968C91809589238083089546
:101AB000A0E0B0E0EDE5FDE062C5EC015B01642F64
:101AC0007901402F20E08FDFCE018F5B9F4FFC011B
:101AD0001082DE01AE5BBF4F1C92FE01ED5BFF4F3B
:101AE0001082FF86EE8640E061E070E06F017D01CC
:101AF0008C014EC0F501E40FF11D8081883050F457
:101B00009B0102C0220F331F8A95E2F7922F29E230
:101B100030E01FC08E3060F490E00897FB0102C0F7
:101B2000EE0FFF1F8A95E2F79E2F23E230E011C0EF
:101B3000853120F090E020E030E00BC090E00E977F
:101B40009B0102C0220F331F8A95E2F7922F26E2F3
:101B500030E0E42FF0E0DE01AE0FBF1F51969C9302
:101B6000EE0FFF1FEC0FFD1F32A321A3233231051F
:101B700011F4F80109C02632310511F4F70104C04F
:101B80002932310521F4F6018081982B90834F5F33
:101B90008885481708F4AECFCDB7DEB7EAE00BC5AD
:101BA000A0E0B0E0E5EDFDE0E8C4EC015B01CF5B57
:101BB000DF4F4991A9918880C354D04090E009C07B
:101BC000E92FF0E0EE0FFF1FEA0DFB1D11821082DE
:101BD0009F5F88859817A0F384B1CF5BDF4F399161
:101BE000832B84B987B12991822B87B98AB19881D7
:101BF000C354D040892B8AB985B1832B85B988B16C
:101C0000822B88B98BB1892B8BB9EAE0F0E06F9316
:101C100064E06A95F1F76F913197C9F784B1309517
:101C2000832384B987B12095822387B98AB190959F
:101C300089238AB985B1382335B988B1282328B9D1
:101C40008BB198239BB99090B000C090B100809167
:101C5000B00083608093B00082E08093B100D090A8
:101C6000B20060E070E03AC05091B2005D19650FBB
:101C7000711DE3B0E41609F04FC0F6B0FA1609F092
:101C80004BC089B1881509F047C025C0A42FB0E02A
:101C90009D01220F331F8501020F131FF801808160
:101CA0009181892BA1F42C0F3D1FF90181A192A1F3
:101CB000FC01208130E0AC0FBD1F51968C9190E06B
:101CC00028233923232B19F4F801718360834F5F94
:101CD00088854817D8F2D50E4E2DAF2D8E859F855D
:101CE0006817790708F29092B000C092B10020E026
:101CF0000FC0E22FF0E0EE0FFF1FEA0DFB1D808109
:101D00009181892B21F48E859F85918380832F5F1C
:101D10008885281770F305C0E3B0F6B089B040E0BD
:101D2000D7CFCDB7DEB7ECE044C4A0E0B0E0EAE93D
:101D3000FEE027C4EC018B01D0907C00E0907A009B
:101D4000C7B0F8B080917A0086FDFCCF90E009C062
:101D5000E92FF0E0EE0FFF1FE00FF11F118210825C
:101D60009F5F88859817A0F397B18AA180959823E3
:101D700097B998B1892388B987E880937A0050E0B1
:101D800025C0FE01E40FF11D8189806480937C00F1
:101D900080917A00806480937A0080917A0086FD39
:101DA000FCCFE42FF0E0EE0FFF1FE00FF11F2091BA
:101DB00078003091790080819181820F931F918307
:101DC00080834F5F88854817E0F25F5F89A15817CD
:101DD00010F040E016C040E0F5CFE42FF0E0EE0F49
:101DE000FF1FE00FF11F69A1862F90E09595879561
:101DF00020813181820F931F70E055D371836083FE
:101E00004F5F8885481748F3D0927C00E0927A00B3
:101E1000F8B8C7B8CDB7DEB7E8E0CFC3A0E2B0E00E
:101E2000E3E1FFE0ADC38C017B01D42E842F815010
:101E30008230B0F4D8011C96ED91FC911D9730973B
:101E400079F0808119969C911997892B80831A9635
:101E5000ED91FC911B97808119969C91892B808331
:101E6000F8018089882339F5C02EB12EC801B70149
:101E700097DED8011C96ED91FC911D97309781F06B
:101E8000808119969C911997892B80831A96ED91E0
:101E9000FC911B97908119968C9180958923808362
:101EA000B2E0DB1609F050C08C2D9B2DBE016F5F98
:101EB0007F4F76DE25C0C02EB12EC801B70135DFB9
:101EC000D8011C96ED91FC911D97309781F080818F
:101ED00019969C911997892B80831A96ED91FC9104
:101EE0001B97908119968C91809589238083B2E00D
:101EF000DB1651F58C2D9B2DBE016F5F7F4F15DFDB
:101F000040E0BE016F5F7F4F1AC0E42FF0E0EE0F9C
:101F1000FF1F6701CE0EDF1EE60FF71FD8011E96CA
:101F20002D913C911F9780819181281B390BF601DF
:101F300080819181820F931F918380834F5FD801AD
:101F400018968C91481708F3A096E9E035C3A0E0F5
:101F5000B0E0ECEAFFE012C3EC01162F072F942E3D
:101F600022E0421711F0442351F48C819D81892B8A
:101F700009F4A1C08E819F81892B09F49CC0892D11
:101F80008150823050F488819981892B09F493C063
:101F90008A819B81892B09F48EC0CE01612F702F1D
:101FA000492D3CDF812F902F9C015901CC24DD2449
:101FB00000E010E07AC081E0981669F4EA81FB81C4
:101FC000E00FF11F20813181E881F981E00FF11FDD
:101FD000408151813DC0AC81BD81992059F4EE8191
:101FE000FF81E00FF11F20813181A00FB11F4D91C2
:101FF0005C912EC0A00FB11F8D919C91E881F98159
:10200000E00FF11F20813181EE85FF858217930754
:1020100010F4AF0105C0A9014E0F5F1F481B590BFB
:10202000EE81FF81E00FF11F60817181EA81FB8108
:10203000E00FF11F80819181EE85FF856817790798
:1020400010F49F0105C09C012E0F3F1F261B370B6C
:102050007901E41AF50AF1F0F5016081718180E0FF
:1020600090E09A0140E050E0621B730B840B950BEB
:1020700028EE33E040E050E0EBD1970140E050E043
:102080005BD2C901F3E0293E3F0714F088EE93E0EC
:1020900097FF02C080E090E0F501819391935F018A
:1020A0000894C11CD11C0E5F1F4F888590E0C81694
:1020B000D9060CF480CFCDB7DEB7EBE07BC2A4E04D
:1020C000B0E0E4E6F0E153C28C01F62EE72E2A835D
:1020D0003EDFD8011896BC91B9832F2D3E2DC90142
:1020E0008C01552444246624772443011C821B82DE
:1020F000AA24BB246501B8EE2B2EB3E03B2E31C0E1
:10210000F801E080F180FA81FF2321F091012E197E
:102110003F09790139ECE316F10414F044244394A7
:1021200083E3E816F10494F0B701882777FD8095E2
:10213000982FA60195018CD1660E771E881E991ED8
:10214000AB81BC81AE0DBF1DBC83AB83539488EEC5
:1021500093E0A0E0B0E0A80EB91ECA1EDB1E0E5F21
:102160001F4F9981591660F2442021F5692F70E0C4
:1021700084EF91E0DC016A9FC0016B9F900D7A9F14
:10218000900D1124845F914020911C0230911D021A
:10219000281739071CF440E050E019C088EE93E09E
:1021A000689FA001699F500D789F500D1124485ED3
:1021B00053400DC0EB81FC819F0140E050E0C40121
:1021C000B30198D1A90130931D0220931C02CA01CA
:1021D0002496E2E1E8C1CF93DF93EC018A819B81F1
:1021E000009711F00E9412048E819F81009711F0D8
:1021F0000E94120488819981009711F00E941204B4
:102200008C819D81009711F00E941204DF91CF9183
:102210000895A3E6B0E0EEE0F1E1A9C17C015B0125
:102220006A01A2962FAFA297DA018D919C91892B1A
:1022300011F5F701808590E0880F991F0E946803CF
:10224000D6018D939C93009709F4DEC020E030E026
:102250000CC0C901880F991FD601ED91FC91E80FC0
:10226000F91F118210822F5F3F4FF701808590E0A8
:102270002817390774F3D5018D919C91892B89F02A
:1022800000E010E03E010894611C711C41E4242E22
:10229000312C2C0E3D1E31E2432E512C4C0E5D1E76
:1022A00028C0F701808590E0880F991F0E9468037D
:1022B000D5018D939C93009709F4A6C020E030E0EF
:1022C00011C0C901880F991FD501ED91FC91E80F4C
:1022D000F91FD7011E968D919C911F979183808342
:1022E0002F5F3F4FF701808590E0281739074CF3A7
:1022F000C7CFC701B301A2964FADA2978FDDD7011B
:1023000018968C91882E9924A101F301A4965FAEB2
:102310004EAEA49760E070E034C00115110559F08D
:10232000A496AEADBFADA4972D913C9180819181D3
:102330002817390758F480819181A496AEADBFADBE
:10234000A4978D939C930115110541F0DA012D910D
:102350003C91808191818217930728F4808191813B
:10236000DA018D939C936F5F7F4F4E5F5F4F329684
:10237000A4968EAD9FADA4970296A4969FAF8EAF04
:10238000A497681579054CF20F5F1F4F0A301105AD
:1023900009F0AFCF40E050E020E030E08E010F5B6D
:1023A0001F4FBE016F5D7F4F28C0F801E20FF31F82
:1023B00080809180F601A081B181A20FB31F8D9121
:1023C0009C9111978815990510F48D929C92FB01B0
:1023D000E20FF31F80809180F501A081B181A20FEF
:1023E000B31F8D919C9111978816990610F48D92C8
:1023F0009C924F5F5F4F2E5F3F4FD70118968C9195
:1024000090E0481759078CF2CD59DF4FE2E1CBC07D
:102410001F93CF93DF93EC01162F862F81508230CC
:1024200038F4AE014E5F5F4FCE01BE0121E0F1DE18
:10243000123011F0112341F4AE014A5F5F4FCE011B
:102440002496BE0120E0E5DEDF91CF911F91089533
:10245000629FD001739FF001829FE00DF11D649F88
:10246000E00DF11D929FF00D839FF00D749FF00D14
:10247000659FF00D9927729FB00DE11DF91F639FB5
:10248000B00DE11DF91FBD01CF0111240895991B65
:1024900079E004C0991F961708F0961B881F7A955B
:1024A000C9F780950895AA1BBB1B51E107C0AA1F5D
:1024B000BB1FA617B70710F0A61BB70B881F991FE5
:1024C0005A95A9F780959095BC01CD01089597FB89
:1024D000092E07260AD077FD04D0E5DF06D00020BC
:1024E0001AF4709561957F4F0895F6F79095819550
:1024F0009F4F0895A1E21A2EAA1BBB1BFD010DC020
:10250000AA1FBB1FEE1FFF1FA217B307E407F507A3
:1025100020F0A21BB30BE40BF50B661F771F881F7F
:10252000991F1A9469F760957095809590959B0115
:10253000AC01BD01CF01089597FB092E05260ED0F1
:1025400057FD04D0D7DF0AD0001C38F450954095D1
:10255000309521953F4F4F4F5F4F0895F6F7909577
:102560008095709561957F4F8F4F9F4F08952F9263
:102570003F924F925F926F927F928F929F92AF9213
:10258000BF92CF92DF92EF92FF920F931F93CF9360
:10259000DF93CDB7DEB7CA1BDB0B0FB6F894DEBFF7
:1025A0000FBECDBF09942A88398848885F846E841D
:1025B0007D848C849B84AA84B984C884DF80EE8067
:1025C000FD800C811B81AA81B981CE0FD11D0FB670
:1025D000F894DEBF0FBECDBFED010895EE0FFF1FD3
:1025E0000590F491E02D099410E0C4ECD0E003C014
:1025F000FE01F6DF2296C63CD107D1F7F894FFCF53
:102600006D56005072657373204200476F210020A1
:102610000000010203040506FF3E3E613332005311
:102620006F6C766564210050726573732042000000
:10263000000000000000000000000000000000009A
:10264000000000000000000000000000000000008A
:10265000000000000000000000000000000000007A
:10266000000000000000000000000000000000006A
:10267000000000000000000000000000000000005A
:10268000000000000000000000000000000000004A
:102690000000008813040400D007F4010F000208B2
:0C26A000010E0F10111220002402000097
:00000001FF
