:1000000033C000004DC000004BC00000D4C300004E
:10001000D2C30000D0C3000043C0000041C00000B4
:100020003FC000000C94F5084BC500003DC6000021
:1000300067C6000035C0000033C0000031C00000BA
:100040002FC000002DC000002BC0000029C0000000
:1000500027C0000025C0000023C0000021C0000010
:100060001FC000001DC0000011241FBECFEFD4E050
:10007000DEBFCDBF11E0A0E0B1E0E2E9F4E102C0F3
:1000800005900D92A633B107D9F711E0A6E3B1E0D0
:1000900001C01D92A736B107E1F703D00C94470ABF
:1000A000AFCFA1E1B0E0E7E5F0E00C941A0A80E000
:1000B00090E060E04CE251E021E00E94F3085098AB
:1000C000589A04D38BE291E061E0F6D480917C00F1
:1000D0008F7D80937C00EE24FF2487016E010894BD
:1000E000C11CD11C0E9483096E197F09800B910BE2
:1000F000623371058105910560F0B0D1BC01769540
:1001000067956E517B4F80E027D60E9483097B0163
:100110008C0180E0B601DED30E94B9092C813D81BB
:100120004E815F81621B730B840B950B6059704D80
:1001300083409040D8F08885813061F480E060E0B1
:1001400097D280E091E032D380E061E091D28BE001
:1001500091E027C080E060E08BD28BE091E026D375
:1001600080E061E085D286E191E01BC08989823020
:1001700009F0B8CF80E060E07BD269857A858B8515
:100180009C859CD405D381E291E010D380E061E0AE
:100190006FD26D857E858F85988990D4F9D281E262
:1001A00091E004D39FCFCF93DF93BC0182309105C0
:1001B00010F462E070E0A0916501B0916601ED017C
:1001C000E0E0F0E040E050E021C0888199818617AE
:1001D000970769F48A819B81309719F09383828312
:1001E00004C09093660180936501FE0134C06817D6
:1001F000790738F44115510519F08417950708F46B
:10020000AC01FE018A819B819C01E9012097E9F6FE
:1002100041155105A9F1CA01861B970B049708F4F3
:10022000BA01E0E0F0E02AC08D919C91119784170B
:100230009507F9F46417750781F412968D919C91D6
:100240001397309719F09383828304C090936601CB
:1002500080936501FD0132964CC0CA01861B970B45
:10026000FD01E80FF91F6193719302978D939C93A1
:1002700040C0FD01828193819C01D9011097A1F6B4
:100280008091630190916401892B41F48091320146
:100290009091330190936401809363014091340104
:1002A000509135014115510541F44DB75EB780912C
:1002B000300190913101481B590B2091630130911D
:1002C0006401CA01821B930B8617970780F0AB016C
:1002D0004E5F5F4F8417950750F0420F531F5093A6
:1002E000640140936301F9016193719302C0E0E0FE
:1002F000F0E0CF01DF91CF910895CF93DF93009786
:1003000009F450C0EC0122971B821A82A09165016A
:10031000B0916601109709F140E050E0AC17BD07BD
:1003200008F1BB83AA83FE0121913191E20FF31FF3
:10033000AE17BF0779F48D919C911197280F391F43
:100340002E5F3F4F3983288312968D919C9113978E
:100350009B838A834115510571F4D0936601C09344
:10036000650120C012968D919C911397AD01009765
:1003700011F0DC01D3CFFA01D383C28321913191F3
:10038000E20FF31FCE17DF0769F488819981280FE8
:10039000391F2E5F3F4FFA01318320838A819B8171
:1003A00093838283DF91CF910895EF92FF920F9311
:1003B0001F93982F803278F487E880937A00809199
:1003C0007C0080648076892B80937C0080917A0009
:1003D000806480937A0080917A0086FDFCCFFB01D7
:1003E000EE24FF24870180917A00806480937A0054
:1003F00080917A0086FDFCCF80917C0085FF04C04F
:100400008091790090E004C080917800909179000B
:10041000A0E0B0E0E80EF91E0A1F1B1F319719F784
:10042000CB01969587956034710530F48E0D9F1D34
:1004300070E0C0D79B010CC0A0E0B0E0E80EF91E50
:100440000A1F1B1F9B0140E050E0C801B701C6D73F
:10045000C9011F910F91FF90EF90089587E064E12B
:1004600070E0A3CFEF92FF920F931F936AB157985A
:100470005A98289AE0903A01F0903B0100913C0193
:1004800010913D0120E030E041E050E0CA016F935F
:1004900064E06A95F1F76F910197C9F75C9ACA0118
:1004A0006F9364E06A95F1F76F910197C9F789B18D
:1004B0005C98FA016F9364E06A95F1F76F91319758
:1004C000C9F75C9AFA016F9364E06A95F1F76F914E
:1004D0003197C9F75C9887FF0BC02C5F3F4FC9016C
:1004E000A0E0B0E08E159F05A007B10708F4CECFBD
:1004F0006AB91F910F91FF90EF90089565B190E058
:10050000AC0141705070440F551F9C012670307033
:1005100053E0220F331F5A95E1F7422B6D7C462B97
:1005200045B92BB18870907034E0880F991F3A95C7
:10053000E1F72F77282B2BB95C9A81E090E0FC0142
:100540006F9364E06A95F1F76F913197C9F75C9802
:100550006F9364E06A95F1F76F910197C9F7089579
:1005600080E197E2A0E0B0E080933A0190933B01F4
:10057000A0933C01B0933D01529A209A549A8EE187
:1005800090E07DD683E014D186E090E078D683E0D9
:100590000FD182E090E073D683E00AD182E090E050
:1005A0006ED682E005D182E090E069D688E241D043
:1005B00088E03FD081E03DD086E03BD08CE039C080
:1005C00080913E01882321F481E080933E01C8CFD1
:1005D0000895BF92CF92DF92EF92FF920F931F93F5
:1005E000082F162FF42EECDF3DDFB4B0C5B0DAB023
:1005F000EBB02898112311F05A9A01C05A9884B18F
:10060000826384B9579A81E0F81621F0802F829591
:100610008F7074DF802F8F7071DFDAB8EBB8B4B8E9
:10062000C5B81F910F91FF90EF90DF90CF90BF90D2
:10063000089560E042E0CDCFA4E0B0E0E1E2F3E075
:10064000FDC6182F062F80E8898380EC8A8384E911
:100650008B8384ED8C83FE01E60FF11D8181810F78
:10066000E8DF10933901009338012496E4E002C7D3
:10067000E3CF089581E0DDDF80913601909137016D
:10068000892B19F160E070E208C0E0913601F09129
:100690003701E40FF51F70836F5F462F50E08091A4
:1006A0002D0190E0019720912E0130E0FC01E29FA6
:1006B000C001E39F900DF29F900D11244817590738
:1006C00024F310923901109238010895D3CF089580
:1006D00061E042E07ECF6F927F928F929F92AF92C5
:1006E000BF92CF92DF92FF920F93DF93CF93CDB75C
:1006F000DEB72A970FB6F894DEBF0FBECDBF5B0101
:100700006C010AE03E010894611C711CFA2CC601C0
:10071000B5012AE030E040E050E060D6C901DA01DE
:100720005C016D0101504301800E911C80E3F80EC5
:10073000C601B5012AE030E040E050E01CD6F61AD0
:10074000F401F082A114B104C104D104F9F607C088
:10075000F601E00FF11D8081BBDF0F5F04C06E0169
:100760000894C11CD11C0A3098F32A960FB6F8944D
:10077000DEBF0FBECDBFCF91DF910F91FF90DF9015
:10078000CF90BF90AF909F908F907F906F90089583
:10079000A2CF0895CF93DF93EC0102C0219698DF9A
:1007A00088818823D9F7DF91CF910895F3CF0895F9
:1007B00060E041E00ECF1F920F920FB60F9211240E
:1007C000EF92FF920F931F932F933F934F935F935B
:1007D0006F937F938F939F93AF93BF93CF93DF9349
:1007E000EF93FF932091B2008091550190915601B3
:1007F000A0915701B0915801B89905C0422F50E01F
:1008000060E070E011C08091B200409155015091BC
:100810005601609157017091580140505F4F6F4FE2
:100820007F4F90E0A0E0B0E0482B592B6A2B7B2B48
:10083000E0904101C0913F01D0914001FF2431C0BF
:10084000E881F9812081E0E030E08A8190E028238E
:100850003923232B09F0E1E08F81E81701F18B8127
:100860009C81AD81BE818A019B01081B190B2A0B5B
:100870003B0B8F81882339F0088719872A873B87AC
:100880008889826006C00C871D872E873F878889EC
:100890008160888BEF834B835C836D837E83F394CD
:1008A0006196FE1468F2FF91EF91DF91CF91BF91B5
:1008B000AF919F918F917F916F915F914F913F91F8
:1008C0002F911F910F91FF90EF900F900FBE0F90FF
:1008D0001F9018951F93982F809141019817E8F465
:1008E000109168001092680081E1989FA001112486
:1008F000E0913F01F0914001DB01E40FF51F81E140
:1009000001900D928150E1F7E0913F01F09140019B
:10091000E40FF51F108A109368001F9108958091CD
:100920003F0190914001009729F0E7DC10924001CF
:1009300010923F010895A0E0B0E0E0EAF4E075C550
:10094000082FF92E762E1092680010926B001092EC
:100950006C0010926D0060934101E1DF81E1789EAF
:10096000C001112420DC9093400180933F01009747
:1009700011F481E09DC0802F9F2D9C015901EE2430
:10098000CC24DD2481E0882E912C70C0F50180817B
:10099000883050F4940102C0220F331F8A95E2F789
:1009A000F22EC9E2D0E01FC08E3060F490E00897CC
:1009B000F40102C0EE0FFF1F8A95E2F7FE2EC3E29C
:1009C000D0E011C0853120F0FF24C0E0D0E00BC0A2
:1009D00090E00E97940102C0220F331F8A95E2F730
:1009E000F22EC6E2D0E000913F01109140010C0DC3
:1009F0001D1DF801D183C083F282108611861286F4
:100A0000138614861586168617867FD4F8016383AD
:100A1000748385839683E0913F01F0914001EC0D52
:100A2000FD1D88818F218783108AC332D10531F45F
:100A300080916B00F82AF0926B0010C0C632D1058D
:100A400031F480916C00F82AF0926C0007C0A997ED
:100A500029F480916D00F82AF0926D00E39421E171
:100A600030E0C20ED31E0894A11CB11CE71408F498
:100A70008DCF8FEF8BBB80916B00882329F0809105
:100A8000680081608093680080916C00882329F061
:100A90008091680082608093680080916D00882357
:100AA00029F080916800846080936800789480E0E9
:100AB000CDB7DEB7EDE0D5C43ECF0895D0C30895DD
:100AC0001F920F920FB60F9211242F933F934F93C3
:100AD0005F936F938F939F93AF93BF93CF93DF9366
:100AE000EF93FF93809150018F5F87708093500147
:100AF000682F6F5F677080914E01681728F0109221
:100B00008900109288004AC0862F90E0880F991FB4
:100B1000A0914201B0914301A80FB91F2D913C91C2
:100B20001197E0914A01F0914B01E80FF91F4081C4
:100B300051814115510519F12115310501F1E0915E
:100B40004601F0914701E80FF91F0190F081E02D77
:100B50003097A9F02E173F0740F4CA01820F931F68
:100B60008E179F07A8F4FC0113C0CF01840F951FB7
:100B70002817390768F0F901E41BF50B09C0E0916B
:100B80004601F0914701E80FF91F0190F081E02D37
:100B9000F0938900E0938800ED93FC9380914F01DE
:100BA000681728F010928B0010928A003DC0862FA3
:100BB00090E0880F991FC0914401D0914501C80F62
:100BC000D91F48815981E0914C01F0914D01E80F06
:100BD000F91F0190F081E02DA0914801B0914901E9
:100BE0003097C1F0A80FB91F2D913C9142175307C0
:100BF00038F4E40FF51FE217F30780F49F010EC0ED
:100C0000C9018E0F9F1F4817590740F09A012E1BEC
:100C10003F0B04C0A80FB91F2D913C9130938B005E
:100C200020938A00398328839091500180914E014E
:100C3000981788F483E0989FC0011124E091510136
:100C4000F0915201E80FF91FA081B1819C9182813E
:100C5000809589238C939091500180914F01981732
:100C600088F483E0989FC0011124E0915301F09132
:100C70005401E80FF91FA081B1819C918281809578
:100C800089238C93FF91EF91DF91CF91BF91AF9129
:100C90009F918F916F915F914F913F912F910F9005
:100CA0000FBE0F901F9018951F920F920FB60F92C4
:100CB00011248F939F93AF93BF93EF93FF939091E2
:100CC000500180914E01981780F483E0989FC001F5
:100CD0001124E0915101F0915201E80FF91FA08118
:100CE000B1818C91928189278C93FF91EF91BF9173
:100CF000AF919F918F910F900FBE0F901F901895FD
:100D00001F920F920FB60F9211248F939F93AF9360
:100D1000BF93EF93FF939091500180914F019817EB
:100D200080F483E0989FC0011124E0915301F09179
:100D30005401E80FF91FA081B1818C91928189271C
:100D40008C93FF91EF91BF91AF919F918F910F90F5
:100D50000FBE0F901F901895982F80914F019817F4
:100D600048F580916F008F7D80936F00892F90E010
:100D700087709070880F991FE0914801F0914901A8
:100D8000E80FF91F9B0189E06339780710F022E929
:100D900039E0C90143E0880F991F4A95E1F7220F16
:100DA000331F820F931F9183808380916F00806235
:100DB00080936F00089580915101909152010097A6
:100DC00029F09BDA10925201109251018091420158
:100DD00090914301009729F090DA1092430110920C
:100DE00042018091460190914701009729F085DAF0
:100DF000109247011092460180914A0190914B0157
:100E0000009729F07ADA10924B0110924A018091F2
:100E1000530190915401009729F06FDA1092540118
:100E2000109253018091440190914501009729F05F
:100E300064DA10924501109244018091480190912A
:100E40004901009729F059DA10924901109248019E
:100E500080914C0190914D01009729F04EDA10924B
:100E60004D0110924C010895A0E0B0E0E9E3F7E0F5
:100E7000E0C2082FE92EC42EB52E10926F001092FA
:100E8000600181E080932F01109262011092610154
:100E900010928100F62E88E0861710F4F8E0FF2EFD
:100EA000F0924E0182E080938000D22EE8E0E217BB
:100EB00010F4E8E0DE2ED0924F017DDF13E0F19ECA
:100EC000C001112470D980935101909352018091F7
:100ED0004E0190E0880F991F66D98093420190934C
:100EE000430180914E0190E0880F991F5CD9809357
:100EF00046019093470180914E0190E0880F991F21
:100F000052D99C0190934B0180934A0180915101E9
:100F100090915201892B09F459C08091420190911E
:100F20004301892B09F452C08091460190914701F9
:100F3000892B09F44BC0232B09F448C0DD2051F460
:100F4000802F9E2D9C01B90130E040E050E001E08F
:100F500010E08AC0D19EC001112425D9809353018D
:100F60009093540180914F0190E0880F991F1BD9F5
:100F7000809344019093450180914F0190E0880F48
:100F8000991F11D9809348019093490180914F0195
:100F900090E0880F991F07D99C0190934D01809391
:100FA0004C018091530190915401892B79F08091EB
:100FB000440190914501892B49F08091480190911D
:100FC0004901892B19F0232B09F0BACFF4DE81E017
:100FD00006C1C0915101D0915201C40FD51FFB0130
:100FE0008081883060F4F80102C0EE0FFF1F8A95FF
:100FF000E2F72E2FABE2B0E0EAE2F0E025C08E305F
:1010000070F490E00897F80102C0EE0FFF1F8A9578
:10101000E2F72E2FA5E2B0E0E4E2F0E015C0853162
:1010200030F0A0E0B0E0E0E0F0E020E00DC090E0C3
:101030000E97F80102C0EE0FFF1F8A95E2F72E2FE0
:10104000A8E2B0E0E7E2F0E08C91922F909598232F
:101050009C938081822B8083B983A8832A833F5FFE
:101060004D5F5F4F6F5F7F4F3F1508F4B2CF20E0B9
:101070001DC0822F90E0880F991FE0914201F091EE
:101080004301E80FF91F11821082E0914601F091AF
:101090004701E80FF91F11821082E0914A01F09197
:1010A0004B01E80FF91F118210822F5F80914E01D2
:1010B0002817F8F28C2D9B2D9C01890130E040E02F
:1010C00050E060E070E0A1E0EA2EF12C65C0C09134
:1010D0005301D0915401C60FD71FF8018081883089
:1010E00060F4F70102C0EE0FFF1F8A95E2F72E2F82
:1010F000ABE2B0E0EAE2F0E025C08E3070F490E0C0
:101100000897F70102C0EE0FFF1F8A95E2F72E2F16
:10111000A5E2B0E0E4E2F0E015C0853130F0A0E0F7
:10112000B0E0E0E0F0E020E00DC090E00E97F701C5
:1011300002C0EE0FFF1F8A95E2F72E2FA8E2B0E063
:10114000E7E2F0E09C91822F809589238C93808147
:10115000822B8083B983A8832A83E0914401F09194
:101160004501E40FF51F11821082E0914801F091D2
:101170004901E40FF51F11821082E0914C01F091BA
:101180004D01E40FF51F118210823F5F4E5F5F4FEC
:101190006D5F7F4F0F5F1F4F3D1508F498CF109282
:1011A000500181E18093810088EA91E69093870065
:1011B000809386008FEF86BB80916F008062809362
:1011C0006F00DD2029F080916F00846080936F00B4
:1011D00080916F00826080936F00789480E0CDB73B
:1011E000DEB7E9E042C140CE08952F928F939F93DE
:1011F0002FB6809156019091570101968093560128
:101200009093570190E080915801891F8093580175
:1012100090915E019C5F90935E0180915D01805191
:101220009742C0F090935E0180935D0180915901D7
:1012300090915A0101968093590190935A0190E040
:1012400080915B01891F80935B0180915C01891F04
:1012500080935C012FBE9F918F912F9018956F5FA7
:101260007F4F8F4F9F4F660F771F881F991F25E075
:1012700030E040E050E0B2D0CA01B901089528EE54
:1012800033E009C0F9016F9364E06A95F1F76F915B
:101290003197C9F701970097A9F70895A0E7B0E043
:1012A0008C918E7F8C93E0EBF0E080818360808373
:1012B000E1EBF0E08081807F8083808182608083A9
:1012C000B89A8C9181608C937894089580915F0195
:1012D000882321F481E080935F01E0CF0895F6DF59
:1012E000E0E7F0E080818E7F80832091590130918A
:1012F0005A0140915B0150915C0180818160808343
:10130000B901CA010895EBCF0895E0DF8091700024
:101310008E7F809370006091B20080915501909112
:101320005601A0915701B0915801B89905C0262FD8
:1013300030E040E050E011C08091B20020915501B2
:1013400030915601409157015091580120503F4F24
:101350004F4F5F4F90E0A0E0B0E0282B392B4A2B95
:101360005B2B80917000816080937000B901CA018D
:101370000895CBCF0895629FD001739FF001829FA3
:10138000E00DF11D649FE00DF11D929FF00D839F14
:10139000F00D749FF00D659FF00D9927729FB00DB1
:1013A000E11DF91F639FB00DE11DF91FBD01CF01C4
:1013B00011240895AA1BBB1B51E107C0AA1FBB1F24
:1013C000A617B70710F0A61BB70B881F991F5A95D1
:1013D000A9F780959095BC01CD010895A1E21A2E40
:1013E000AA1BBB1BFD010DC0AA1FBB1FEE1FFF1FC9
:1013F000A217B307E407F50720F0A21BB30BE40B19
:10140000F50B661F771F881F991F1A9469F760955F
:101410007095809590959B01AC01BD01CF01089519
:101420002F923F924F925F926F927F928F929F92F4
:10143000AF92BF92CF92DF92EF92FF920F931F93E2
:10144000CF93DF93CDB7DEB7CA1BDB0B0FB6F89493
:10145000DEBF0FBECDBF09942A88398848885F84D3
:101460006E847D848C849B84AA84B984C884DF8044
:10147000EE80FD800C811B81AA81B981CE0FD11D28
:101480000FB6F894DEBF0FBECDBFED010895F894FE
:02149000FFCF8C
:1014920044303A204849474820200020202020207C
:1014A20020202020200044303A20204C4F5720207A
:1014B2000020757320202020202000000102080156
:0614C2002000670100009C
:00000001FF
